{
  "_format": "hh-sol-artifact-1",
  "contractName": "ActivePoolTester",
  "sourceName": "contracts/TestContracts/ActivePoolTester.sol",
  "abi": [
    {
      "anonymous": false,
      "inputs": [
        {
          "indexed": false,
          "internalType": "address",
          "name": "_newActivePoolAddress",
          "type": "address"
        }
      ],
      "name": "ActivePoolAddressChanged",
      "type": "event"
    },
    {
      "anonymous": false,
      "inputs": [
        {
          "indexed": false,
          "internalType": "uint256",
          "name": "_ETH",
          "type": "uint256"
        }
      ],
      "name": "ActivePoolETHBalanceUpdated",
      "type": "event"
    },
    {
      "anonymous": false,
      "inputs": [
        {
          "indexed": false,
          "internalType": "uint256",
          "name": "_LUSDDebt",
          "type": "uint256"
        }
      ],
      "name": "ActivePoolLUSDDebtUpdated",
      "type": "event"
    },
    {
      "anonymous": false,
      "inputs": [
        {
          "indexed": false,
          "internalType": "address",
          "name": "_newBorrowerOperationsAddress",
          "type": "address"
        }
      ],
      "name": "BorrowerOperationsAddressChanged",
      "type": "event"
    },
    {
      "anonymous": false,
      "inputs": [
        {
          "indexed": false,
          "internalType": "address",
          "name": "_newDefaultPoolAddress",
          "type": "address"
        }
      ],
      "name": "DefaultPoolAddressChanged",
      "type": "event"
    },
    {
      "anonymous": false,
      "inputs": [
        {
          "indexed": false,
          "internalType": "uint256",
          "name": "_newBalance",
          "type": "uint256"
        }
      ],
      "name": "ETHBalanceUpdated",
      "type": "event"
    },
    {
      "anonymous": false,
      "inputs": [
        {
          "indexed": false,
          "internalType": "address",
          "name": "_to",
          "type": "address"
        },
        {
          "indexed": false,
          "internalType": "uint256",
          "name": "_amount",
          "type": "uint256"
        }
      ],
      "name": "EtherSent",
      "type": "event"
    },
    {
      "anonymous": false,
      "inputs": [
        {
          "indexed": false,
          "internalType": "uint256",
          "name": "_newBalance",
          "type": "uint256"
        }
      ],
      "name": "LUSDBalanceUpdated",
      "type": "event"
    },
    {
      "anonymous": false,
      "inputs": [
        {
          "indexed": true,
          "internalType": "address",
          "name": "previousOwner",
          "type": "address"
        },
        {
          "indexed": true,
          "internalType": "address",
          "name": "newOwner",
          "type": "address"
        }
      ],
      "name": "OwnershipTransferred",
      "type": "event"
    },
    {
      "anonymous": false,
      "inputs": [
        {
          "indexed": false,
          "internalType": "address",
          "name": "_newStabilityPoolAddress",
          "type": "address"
        }
      ],
      "name": "StabilityPoolAddressChanged",
      "type": "event"
    },
    {
      "anonymous": false,
      "inputs": [
        {
          "indexed": false,
          "internalType": "address",
          "name": "_newTroveManagerAddress",
          "type": "address"
        }
      ],
      "name": "TroveManagerAddressChanged",
      "type": "event"
    },
    {
      "inputs": [],
      "name": "NAME",
      "outputs": [
        {
          "internalType": "string",
          "name": "",
          "type": "string"
        }
      ],
      "stateMutability": "view",
      "type": "function"
    },
    {
      "inputs": [
        {
          "internalType": "uint256",
          "name": "amount",
          "type": "uint256"
        }
      ],
      "name": "addETH",
      "outputs": [],
      "stateMutability": "nonpayable",
      "type": "function"
    },
    {
      "inputs": [],
      "name": "borrowerOperationsAddress",
      "outputs": [
        {
          "internalType": "address",
          "name": "",
          "type": "address"
        }
      ],
      "stateMutability": "view",
      "type": "function"
    },
    {
      "inputs": [],
      "name": "collSurplusPoolAddress",
      "outputs": [
        {
          "internalType": "address",
          "name": "",
          "type": "address"
        }
      ],
      "stateMutability": "view",
      "type": "function"
    },
    {
      "inputs": [
        {
          "internalType": "uint256",
          "name": "_amount",
          "type": "uint256"
        }
      ],
      "name": "decreaseLUSDDebt",
      "outputs": [],
      "stateMutability": "nonpayable",
      "type": "function"
    },
    {
      "inputs": [],
      "name": "defaultPoolAddress",
      "outputs": [
        {
          "internalType": "address",
          "name": "",
          "type": "address"
        }
      ],
      "stateMutability": "view",
      "type": "function"
    },
    {
      "inputs": [],
      "name": "getETH",
      "outputs": [
        {
          "internalType": "uint256",
          "name": "",
          "type": "uint256"
        }
      ],
      "stateMutability": "view",
      "type": "function"
    },
    {
      "inputs": [],
      "name": "getLUSDDebt",
      "outputs": [
        {
          "internalType": "uint256",
          "name": "",
          "type": "uint256"
        }
      ],
      "stateMutability": "view",
      "type": "function"
    },
    {
      "inputs": [
        {
          "internalType": "uint256",
          "name": "_amount",
          "type": "uint256"
        }
      ],
      "name": "increaseLUSDDebt",
      "outputs": [],
      "stateMutability": "nonpayable",
      "type": "function"
    },
    {
      "inputs": [],
      "name": "isOwner",
      "outputs": [
        {
          "internalType": "bool",
          "name": "",
          "type": "bool"
        }
      ],
      "stateMutability": "view",
      "type": "function"
    },
    {
      "inputs": [],
      "name": "owner",
      "outputs": [
        {
          "internalType": "address",
          "name": "",
          "type": "address"
        }
      ],
      "stateMutability": "view",
      "type": "function"
    },
    {
      "inputs": [
        {
          "internalType": "address",
          "name": "_account",
          "type": "address"
        },
        {
          "internalType": "uint256",
          "name": "_amount",
          "type": "uint256"
        }
      ],
      "name": "sendETH",
      "outputs": [],
      "stateMutability": "nonpayable",
      "type": "function"
    },
    {
      "inputs": [
        {
          "internalType": "address",
          "name": "_borrowerOperationsAddress",
          "type": "address"
        },
        {
          "internalType": "address",
          "name": "_troveManagerAddress",
          "type": "address"
        },
        {
          "internalType": "address",
          "name": "_stabilityPoolAddress",
          "type": "address"
        },
        {
          "internalType": "address",
          "name": "_defaultPoolAddress",
          "type": "address"
        },
        {
          "internalType": "address",
          "name": "_stETHAddress",
          "type": "address"
        },
        {
          "internalType": "address",
          "name": "_collSurplusPoolAddress",
          "type": "address"
        }
      ],
      "name": "setAddresses",
      "outputs": [],
      "stateMutability": "nonpayable",
      "type": "function"
    },
    {
      "inputs": [],
      "name": "stETHAddress",
      "outputs": [
        {
          "internalType": "address",
          "name": "",
          "type": "address"
        }
      ],
      "stateMutability": "view",
      "type": "function"
    },
    {
      "inputs": [],
      "name": "stabilityPoolAddress",
      "outputs": [
        {
          "internalType": "address",
          "name": "",
          "type": "address"
        }
      ],
      "stateMutability": "view",
      "type": "function"
    },
    {
      "inputs": [],
      "name": "troveManagerAddress",
      "outputs": [
        {
          "internalType": "address",
          "name": "",
          "type": "address"
        }
      ],
      "stateMutability": "view",
      "type": "function"
    },
    {
      "inputs": [
        {
          "internalType": "uint256",
          "name": "_amount",
          "type": "uint256"
        }
      ],
      "name": "unprotectedIncreaseLUSDDebt",
      "outputs": [],
      "stateMutability": "nonpayable",
      "type": "function"
    },
    {
      "inputs": [
        {
          "internalType": "uint256",
          "name": "amount",
          "type": "uint256"
        }
      ],
      "name": "unprotectedPayable",
      "outputs": [],
      "stateMutability": "nonpayable",
      "type": "function"
    }
  ],
  "bytecode": "0x608060405234801561001057600080fd5b50600080546001600160a01b0319163390811782556040519091907f8be0079c531659141344cd1fd0a4f28419497f9722a3daafe3b4186f6b6457e0908290a3610de48061005f6000396000f3fe608060405234801561001057600080fd5b50600436106100f65760003560e01c80636ac9915f116100925780636ac9915f146101d65780636cfb6bf9146101f35780638da5cb5b146102415780638f32d59b14610249578063a3f4df7e14610265578063aac1846f146102e2578063ada50c9b146102ea578063b7f8cf9b146102f2578063cfb9329a146102fa576100f6565b80630b622ab2146100fb57806314f6c3be1461011f5780632a9043ec1461013957806338d995a81461014157806344a5724214610160578063575817b21461017d5780635a4d28bb1461019a5780635eb52fca146101a257806364a197f3146101aa575b600080fd5b610103610317565b604080516001600160a01b039092168252519081900360200190f35b610127610326565b60408051918252519081900360200190f35b61010361032c565b61015e6004803603602081101561015757600080fd5b503561033b565b005b61015e6004803603602081101561017657600080fd5b5035610390565b61015e6004803603602081101561019357600080fd5b50356103a9565b6101036103fe565b61012761040d565b61015e600480360360408110156101c057600080fd5b506001600160a01b038135169060200135610413565b61015e600480360360208110156101ec57600080fd5b5035610679565b61015e600480360360c081101561020957600080fd5b506001600160a01b038135811691602081013582169160408201358116916060810135821691608082013581169160a0013516610718565b6101036108f7565b610251610906565b604080519115158252519081900360200190f35b61026d610917565b6040805160208082528351818301528351919283929083019185019080838360005b838110156102a757818101518382015260200161028f565b50505050905090810190601f1680156102d45780820380516001836020036101000a031916815260200191505b509250505060405180910390f35b61010361093d565b61010361094c565b61010361095b565b61015e6004803603602081101561031057600080fd5b503561096a565b6003546001600160a01b031681565b60075490565b6006546001600160a01b031681565b610343610985565b600854610356908263ffffffff6109fa16565b600881905560408051918252517f0d4c964e4ceac5d740869d39789a7b91888a787b9c33e9365b1a658a21ffb6969181900360200190a150565b6008546103a3908263ffffffff610a4316565b60085550565b6103b1610a9d565b6007546103c4908263ffffffff610a4316565b600781905560408051918252517fca232b5abb988c540b959ff6c3bfae3e97fff964fd098c508f9613c0a6bf1a809181900360200190a150565b6002546001600160a01b031681565b60085490565b61041b610985565b60075461042e908263ffffffff6109fa16565b600781905560408051918252517fca232b5abb988c540b959ff6c3bfae3e97fff964fd098c508f9613c0a6bf1a809181900360200190a1604080516001600160a01b03841681526020810183905281517f6109e2559dfa766aaec7118351d48a523f0a4157f49c8d68749c8ac41318ad12929181900390910190a16005546040805163a9059cbb60e01b81526001600160a01b038581166004830152602482018590529151919092169163a9059cbb9160448083019260209291908290030181600087803b1580156104ff57600080fd5b505af1158015610513573d6000803e3d6000fd5b505050506040513d602081101561052957600080fd5b50506006546001600160a01b03838116911614156105a457816001600160a01b031663575817b2826040518263ffffffff1660e01b815260040180828152602001915050600060405180830381600087803b15801561058757600080fd5b505af115801561059b573d6000803e3d6000fd5b50505050610675565b6004546001600160a01b038381169116141561060057816001600160a01b031663575817b2826040518263ffffffff1660e01b815260040180828152602001915050600060405180830381600087803b15801561058757600080fd5b6003546001600160a01b038381169116141561067557816001600160a01b031663575817b2826040518263ffffffff1660e01b815260040180828152602001915050600060405180830381600087803b15801561065c57600080fd5b505af1158015610670573d6000803e3d6000fd5b505050505b5050565b600554604080516323b872dd60e01b81523360048201523060248201526044810184905290516001600160a01b03909216916323b872dd916064808201926020929091908290030181600087803b1580156106d357600080fd5b505af11580156106e7573d6000803e3d6000fd5b505050506040513d60208110156106fd57600080fd5b5050600754610712908263ffffffff610a4316565b60075550565b610720610906565b610771576040805162461bcd60e51b815260206004820181905260248201527f4f776e61626c653a2063616c6c6572206973206e6f7420746865206f776e6572604482015290519081900360640190fd5b61077a86610afb565b61078385610afb565b61078c84610afb565b61079583610afb565b61079e82610afb565b6107a781610afb565b600180546001600160a01b038089166001600160a01b0319928316811790935560028054898316908416179055600380548883169084161790556004805487831690841617905560058054868316908416179055600680549185169190921617905560408051918252517f3ca631ffcd2a9b5d9ae18543fc82f58eb4ca33af9e6ab01b7a8e95331e6ed9859181900360200190a1604080516001600160a01b038716815290517f143219c9e69b09e07e095fcc889b43d8f46ca892bba65f08dc3a0050869a56789181900360200190a1604080516001600160a01b038616815290517f82966d27eea39b038ee0fa30cd16532bb24f6e65d31cb58fb227aa5766cdcc7f9181900360200190a1604080516001600160a01b038516815290517f5ee0cae2f063ed938bb55046f6a932fb6ae792bf43624806bb90abe68a50be9b9181900360200190a1610670610baa565b6000546001600160a01b031690565b6000546001600160a01b0316331490565b6040518060400160405280600a8152602001691058dd1a5d99541bdbdb60b21b81525081565b6004546001600160a01b031681565b6005546001600160a01b031681565b6001546001600160a01b031681565b610972610bf4565b600854610356908263ffffffff610a4316565b6001546001600160a01b03163314806109a857506002546001600160a01b031633145b806109bd57506003546001600160a01b031633145b6109f85760405162461bcd60e51b8152600401808060200182810382526053815260200180610d2b6053913960600191505060405180910390fd5b565b6000610a3c83836040518060400160405280601e81526020017f536166654d6174683a207375627472616374696f6e206f766572666c6f770000815250610c52565b9392505050565b600082820183811015610a3c576040805162461bcd60e51b815260206004820152601b60248201527f536166654d6174683a206164646974696f6e206f766572666c6f770000000000604482015290519081900360640190fd5b6001546001600160a01b0316331480610ac057506004546001600160a01b031633145b6109f85760405162461bcd60e51b8152600401808060200182810382526031815260200180610d7e6031913960400191505060405180910390fd5b6001600160a01b038116610b56576040805162461bcd60e51b815260206004820152601e60248201527f4163636f756e742063616e6e6f74206265207a65726f20616464726573730000604482015290519081900360640190fd5b803b80610675576040805162461bcd60e51b815260206004820181905260248201527f4163636f756e7420636f64652073697a652063616e6e6f74206265207a65726f604482015290519081900360640190fd5b600080546040516001600160a01b03909116907f8be0079c531659141344cd1fd0a4f28419497f9722a3daafe3b4186f6b6457e0908390a3600080546001600160a01b0319169055565b6001546001600160a01b0316331480610c1757506002546001600160a01b031633145b6109f85760405162461bcd60e51b8152600401808060200182810382526041815260200180610cea6041913960600191505060405180910390fd5b60008184841115610ce15760405162461bcd60e51b81526004018080602001828103825283818151815260200191508051906020019080838360005b83811015610ca6578181015183820152602001610c8e565b50505050905090810190601f168015610cd35780820380516001836020036101000a031916815260200191505b509250505060405180910390fd5b50505090039056fe416374697665506f6f6c3a2043616c6c6572206973206e65697468657220426f72726f7765724f7065726174696f6e73206e6f722054726f76654d616e61676572416374697665506f6f6c3a2043616c6c6572206973206e65697468657220426f72726f7765724f7065726174696f6e73206e6f722054726f76654d616e61676572206e6f722053746162696c697479506f6f6c416374697665506f6f6c3a2043616c6c6572206973206e65697468657220424f206e6f722044656661756c7420506f6f6ca264697066735822122069700144ca77055acc96336607d6fa113e47fe0a98c581c1c6f3bd28fe0d620764736f6c634300060b0033",
  "linkReferences": {},
  "deployedLinkReferences": {}
}