{
  "_format": "hh-sol-artifact-1",
  "contractName": "ActivePool",
  "sourceName": "contracts/ActivePool.sol",
  "abi": [
    {
      "anonymous": false,
      "inputs": [
        {
          "indexed": false,
          "internalType": "address",
          "name": "_newActivePoolAddress",
          "type": "address"
        }
      ],
      "name": "ActivePoolAddressChanged",
      "type": "event"
    },
    {
      "anonymous": false,
      "inputs": [
        {
          "indexed": false,
          "internalType": "uint256",
          "name": "_ETH",
          "type": "uint256"
        }
      ],
      "name": "ActivePoolETHBalanceUpdated",
      "type": "event"
    },
    {
      "anonymous": false,
      "inputs": [
        {
          "indexed": false,
          "internalType": "uint256",
          "name": "_LUSDDebt",
          "type": "uint256"
        }
      ],
      "name": "ActivePoolLUSDDebtUpdated",
      "type": "event"
    },
    {
      "anonymous": false,
      "inputs": [
        {
          "indexed": false,
          "internalType": "address",
          "name": "_newBorrowerOperationsAddress",
          "type": "address"
        }
      ],
      "name": "BorrowerOperationsAddressChanged",
      "type": "event"
    },
    {
      "anonymous": false,
      "inputs": [
        {
          "indexed": false,
          "internalType": "address",
          "name": "_newDefaultPoolAddress",
          "type": "address"
        }
      ],
      "name": "DefaultPoolAddressChanged",
      "type": "event"
    },
    {
      "anonymous": false,
      "inputs": [
        {
          "indexed": false,
          "internalType": "uint256",
          "name": "_newBalance",
          "type": "uint256"
        }
      ],
      "name": "ETHBalanceUpdated",
      "type": "event"
    },
    {
      "anonymous": false,
      "inputs": [
        {
          "indexed": false,
          "internalType": "address",
          "name": "_to",
          "type": "address"
        },
        {
          "indexed": false,
          "internalType": "uint256",
          "name": "_amount",
          "type": "uint256"
        }
      ],
      "name": "EtherSent",
      "type": "event"
    },
    {
      "anonymous": false,
      "inputs": [
        {
          "indexed": false,
          "internalType": "uint256",
          "name": "_newBalance",
          "type": "uint256"
        }
      ],
      "name": "LUSDBalanceUpdated",
      "type": "event"
    },
    {
      "anonymous": false,
      "inputs": [
        {
          "indexed": true,
          "internalType": "address",
          "name": "previousOwner",
          "type": "address"
        },
        {
          "indexed": true,
          "internalType": "address",
          "name": "newOwner",
          "type": "address"
        }
      ],
      "name": "OwnershipTransferred",
      "type": "event"
    },
    {
      "anonymous": false,
      "inputs": [
        {
          "indexed": false,
          "internalType": "address",
          "name": "_newStabilityPoolAddress",
          "type": "address"
        }
      ],
      "name": "StabilityPoolAddressChanged",
      "type": "event"
    },
    {
      "anonymous": false,
      "inputs": [
        {
          "indexed": false,
          "internalType": "address",
          "name": "_newTroveManagerAddress",
          "type": "address"
        }
      ],
      "name": "TroveManagerAddressChanged",
      "type": "event"
    },
    {
      "inputs": [],
      "name": "NAME",
      "outputs": [
        {
          "internalType": "string",
          "name": "",
          "type": "string"
        }
      ],
      "stateMutability": "view",
      "type": "function"
    },
    {
      "inputs": [
        {
          "internalType": "uint256",
          "name": "amount",
          "type": "uint256"
        }
      ],
      "name": "addETH",
      "outputs": [],
      "stateMutability": "nonpayable",
      "type": "function"
    },
    {
      "inputs": [],
      "name": "borrowerOperationsAddress",
      "outputs": [
        {
          "internalType": "address",
          "name": "",
          "type": "address"
        }
      ],
      "stateMutability": "view",
      "type": "function"
    },
    {
      "inputs": [],
      "name": "collSurplusPoolAddress",
      "outputs": [
        {
          "internalType": "address",
          "name": "",
          "type": "address"
        }
      ],
      "stateMutability": "view",
      "type": "function"
    },
    {
      "inputs": [
        {
          "internalType": "uint256",
          "name": "_amount",
          "type": "uint256"
        }
      ],
      "name": "decreaseLUSDDebt",
      "outputs": [],
      "stateMutability": "nonpayable",
      "type": "function"
    },
    {
      "inputs": [],
      "name": "defaultPoolAddress",
      "outputs": [
        {
          "internalType": "address",
          "name": "",
          "type": "address"
        }
      ],
      "stateMutability": "view",
      "type": "function"
    },
    {
      "inputs": [],
      "name": "getETH",
      "outputs": [
        {
          "internalType": "uint256",
          "name": "",
          "type": "uint256"
        }
      ],
      "stateMutability": "view",
      "type": "function"
    },
    {
      "inputs": [],
      "name": "getLUSDDebt",
      "outputs": [
        {
          "internalType": "uint256",
          "name": "",
          "type": "uint256"
        }
      ],
      "stateMutability": "view",
      "type": "function"
    },
    {
      "inputs": [
        {
          "internalType": "uint256",
          "name": "_amount",
          "type": "uint256"
        }
      ],
      "name": "increaseLUSDDebt",
      "outputs": [],
      "stateMutability": "nonpayable",
      "type": "function"
    },
    {
      "inputs": [],
      "name": "isOwner",
      "outputs": [
        {
          "internalType": "bool",
          "name": "",
          "type": "bool"
        }
      ],
      "stateMutability": "view",
      "type": "function"
    },
    {
      "inputs": [],
      "name": "owner",
      "outputs": [
        {
          "internalType": "address",
          "name": "",
          "type": "address"
        }
      ],
      "stateMutability": "view",
      "type": "function"
    },
    {
      "inputs": [
        {
          "internalType": "address",
          "name": "_account",
          "type": "address"
        },
        {
          "internalType": "uint256",
          "name": "_amount",
          "type": "uint256"
        }
      ],
      "name": "sendETH",
      "outputs": [],
      "stateMutability": "nonpayable",
      "type": "function"
    },
    {
      "inputs": [
        {
          "internalType": "address",
          "name": "_borrowerOperationsAddress",
          "type": "address"
        },
        {
          "internalType": "address",
          "name": "_troveManagerAddress",
          "type": "address"
        },
        {
          "internalType": "address",
          "name": "_stabilityPoolAddress",
          "type": "address"
        },
        {
          "internalType": "address",
          "name": "_defaultPoolAddress",
          "type": "address"
        },
        {
          "internalType": "address",
          "name": "_stETHAddress",
          "type": "address"
        },
        {
          "internalType": "address",
          "name": "_collSurplusPoolAddress",
          "type": "address"
        }
      ],
      "name": "setAddresses",
      "outputs": [],
      "stateMutability": "nonpayable",
      "type": "function"
    },
    {
      "inputs": [],
      "name": "stETHAddress",
      "outputs": [
        {
          "internalType": "address",
          "name": "",
          "type": "address"
        }
      ],
      "stateMutability": "view",
      "type": "function"
    },
    {
      "inputs": [],
      "name": "stabilityPoolAddress",
      "outputs": [
        {
          "internalType": "address",
          "name": "",
          "type": "address"
        }
      ],
      "stateMutability": "view",
      "type": "function"
    },
    {
      "inputs": [],
      "name": "troveManagerAddress",
      "outputs": [
        {
          "internalType": "address",
          "name": "",
          "type": "address"
        }
      ],
      "stateMutability": "view",
      "type": "function"
    }
  ],
  "bytecode": "0x608060405234801561001057600080fd5b50600080546001600160a01b0319163390811782556040519091907f8be0079c531659141344cd1fd0a4f28419497f9722a3daafe3b4186f6b6457e0908290a3610cdc8061005f6000396000f3fe608060405234801561001057600080fd5b50600436106100e05760003560e01c80636cfb6bf9116100875780636cfb6bf9146101a35780638da5cb5b146101f15780638f32d59b146101f9578063a3f4df7e14610215578063aac1846f14610292578063ada50c9b1461029a578063b7f8cf9b146102a2578063cfb9329a146102aa576100e0565b80630b622ab2146100e557806314f6c3be146101095780632a9043ec1461012357806338d995a81461012b578063575817b21461014a5780635a4d28bb146101675780635eb52fca1461016f57806364a197f314610177575b600080fd5b6100ed6102c7565b604080516001600160a01b039092168252519081900360200190f35b6101116102d6565b60408051918252519081900360200190f35b6100ed6102dc565b6101486004803603602081101561014157600080fd5b50356102eb565b005b6101486004803603602081101561016057600080fd5b5035610340565b6100ed610395565b6101116103a4565b6101486004803603604081101561018d57600080fd5b506001600160a01b0381351690602001356103aa565b610148600480360360c08110156101b957600080fd5b506001600160a01b038135811691602081013582169160408201358116916060810135821691608082013581169160a0013516610610565b6100ed6107ef565b6102016107fe565b604080519115158252519081900360200190f35b61021d61080f565b6040805160208082528351818301528351919283929083019185019080838360005b8381101561025757818101518382015260200161023f565b50505050905090810190601f1680156102845780820380516001836020036101000a031916815260200191505b509250505060405180910390f35b6100ed610835565b6100ed610844565b6100ed610853565b610148600480360360208110156102c057600080fd5b5035610862565b6003546001600160a01b031681565b60075490565b6006546001600160a01b031681565b6102f361087d565b600854610306908263ffffffff6108f216565b600881905560408051918252517f0d4c964e4ceac5d740869d39789a7b91888a787b9c33e9365b1a658a21ffb6969181900360200190a150565b61034861093b565b60075461035b908263ffffffff61099916565b600781905560408051918252517fca232b5abb988c540b959ff6c3bfae3e97fff964fd098c508f9613c0a6bf1a809181900360200190a150565b6002546001600160a01b031681565b60085490565b6103b261087d565b6007546103c5908263ffffffff6108f216565b600781905560408051918252517fca232b5abb988c540b959ff6c3bfae3e97fff964fd098c508f9613c0a6bf1a809181900360200190a1604080516001600160a01b03841681526020810183905281517f6109e2559dfa766aaec7118351d48a523f0a4157f49c8d68749c8ac41318ad12929181900390910190a16005546040805163a9059cbb60e01b81526001600160a01b038581166004830152602482018590529151919092169163a9059cbb9160448083019260209291908290030181600087803b15801561049657600080fd5b505af11580156104aa573d6000803e3d6000fd5b505050506040513d60208110156104c057600080fd5b50506006546001600160a01b038381169116141561053b57816001600160a01b031663575817b2826040518263ffffffff1660e01b815260040180828152602001915050600060405180830381600087803b15801561051e57600080fd5b505af1158015610532573d6000803e3d6000fd5b5050505061060c565b6004546001600160a01b038381169116141561059757816001600160a01b031663575817b2826040518263ffffffff1660e01b815260040180828152602001915050600060405180830381600087803b15801561051e57600080fd5b6003546001600160a01b038381169116141561060c57816001600160a01b031663575817b2826040518263ffffffff1660e01b815260040180828152602001915050600060405180830381600087803b1580156105f357600080fd5b505af1158015610607573d6000803e3d6000fd5b505050505b5050565b6106186107fe565b610669576040805162461bcd60e51b815260206004820181905260248201527f4f776e61626c653a2063616c6c6572206973206e6f7420746865206f776e6572604482015290519081900360640190fd5b610672866109f3565b61067b856109f3565b610684846109f3565b61068d836109f3565b610696826109f3565b61069f816109f3565b600180546001600160a01b038089166001600160a01b0319928316811790935560028054898316908416179055600380548883169084161790556004805487831690841617905560058054868316908416179055600680549185169190921617905560408051918252517f3ca631ffcd2a9b5d9ae18543fc82f58eb4ca33af9e6ab01b7a8e95331e6ed9859181900360200190a1604080516001600160a01b038716815290517f143219c9e69b09e07e095fcc889b43d8f46ca892bba65f08dc3a0050869a56789181900360200190a1604080516001600160a01b038616815290517f82966d27eea39b038ee0fa30cd16532bb24f6e65d31cb58fb227aa5766cdcc7f9181900360200190a1604080516001600160a01b038516815290517f5ee0cae2f063ed938bb55046f6a932fb6ae792bf43624806bb90abe68a50be9b9181900360200190a1610607610aa2565b6000546001600160a01b031690565b6000546001600160a01b0316331490565b6040518060400160405280600a8152602001691058dd1a5d99541bdbdb60b21b81525081565b6004546001600160a01b031681565b6005546001600160a01b031681565b6001546001600160a01b031681565b61086a610aec565b600854610306908263ffffffff61099916565b6001546001600160a01b03163314806108a057506002546001600160a01b031633145b806108b557506003546001600160a01b031633145b6108f05760405162461bcd60e51b8152600401808060200182810382526053815260200180610c236053913960600191505060405180910390fd5b565b600061093483836040518060400160405280601e81526020017f536166654d6174683a207375627472616374696f6e206f766572666c6f770000815250610b4a565b9392505050565b6001546001600160a01b031633148061095e57506004546001600160a01b031633145b6108f05760405162461bcd60e51b8152600401808060200182810382526031815260200180610c766031913960400191505060405180910390fd5b600082820183811015610934576040805162461bcd60e51b815260206004820152601b60248201527f536166654d6174683a206164646974696f6e206f766572666c6f770000000000604482015290519081900360640190fd5b6001600160a01b038116610a4e576040805162461bcd60e51b815260206004820152601e60248201527f4163636f756e742063616e6e6f74206265207a65726f20616464726573730000604482015290519081900360640190fd5b803b8061060c576040805162461bcd60e51b815260206004820181905260248201527f4163636f756e7420636f64652073697a652063616e6e6f74206265207a65726f604482015290519081900360640190fd5b600080546040516001600160a01b03909116907f8be0079c531659141344cd1fd0a4f28419497f9722a3daafe3b4186f6b6457e0908390a3600080546001600160a01b0319169055565b6001546001600160a01b0316331480610b0f57506002546001600160a01b031633145b6108f05760405162461bcd60e51b8152600401808060200182810382526041815260200180610be26041913960600191505060405180910390fd5b60008184841115610bd95760405162461bcd60e51b81526004018080602001828103825283818151815260200191508051906020019080838360005b83811015610b9e578181015183820152602001610b86565b50505050905090810190601f168015610bcb5780820380516001836020036101000a031916815260200191505b509250505060405180910390fd5b50505090039056fe416374697665506f6f6c3a2043616c6c6572206973206e65697468657220426f72726f7765724f7065726174696f6e73206e6f722054726f76654d616e61676572416374697665506f6f6c3a2043616c6c6572206973206e65697468657220426f72726f7765724f7065726174696f6e73206e6f722054726f76654d616e61676572206e6f722053746162696c697479506f6f6c416374697665506f6f6c3a2043616c6c6572206973206e65697468657220424f206e6f722044656661756c7420506f6f6ca2646970667358221220fcec023b0070fde935885a1f02e071c21b062d2e6fda9014c0a4260a58b3a58664736f6c634300060b0033",
  "linkReferences": {},
  "deployedLinkReferences": {}
}