{
  "_format": "hh-sol-artifact-1",
  "contractName": "BorrowerWrappersScript",
  "sourceName": "contracts/Proxy/BorrowerWrappersScript.sol",
  "abi": [
    {
      "inputs": [
        {
          "internalType": "address",
          "name": "_borrowerOperationsAddress",
          "type": "address"
        },
        {
          "internalType": "address",
          "name": "_stETHAddress",
          "type": "address"
        },
        {
          "internalType": "address",
          "name": "_troveManagerAddress",
          "type": "address"
        },
        {
          "internalType": "address",
          "name": "_lqtyStakingAddress",
          "type": "address"
        }
      ],
      "stateMutability": "nonpayable",
      "type": "constructor"
    },
    {
      "inputs": [],
      "name": "NAME",
      "outputs": [
        {
          "internalType": "string",
          "name": "",
          "type": "string"
        }
      ],
      "stateMutability": "view",
      "type": "function"
    },
    {
      "inputs": [
        {
          "internalType": "address",
          "name": "_upperHint",
          "type": "address"
        },
        {
          "internalType": "address",
          "name": "_lowerHint",
          "type": "address"
        },
        {
          "internalType": "uint256",
          "name": "amount",
          "type": "uint256"
        }
      ],
      "name": "addColl",
      "outputs": [],
      "stateMutability": "nonpayable",
      "type": "function"
    },
    {
      "inputs": [
        {
          "internalType": "uint256",
          "name": "_maxFee",
          "type": "uint256"
        },
        {
          "internalType": "uint256",
          "name": "_collWithdrawal",
          "type": "uint256"
        },
        {
          "internalType": "uint256",
          "name": "_debtChange",
          "type": "uint256"
        },
        {
          "internalType": "bool",
          "name": "isDebtIncrease",
          "type": "bool"
        },
        {
          "internalType": "address",
          "name": "_upperHint",
          "type": "address"
        },
        {
          "internalType": "address",
          "name": "_lowerHint",
          "type": "address"
        },
        {
          "internalType": "uint256",
          "name": "amount",
          "type": "uint256"
        }
      ],
      "name": "adjustTrove",
      "outputs": [],
      "stateMutability": "nonpayable",
      "type": "function"
    },
    {
      "inputs": [],
      "name": "claimCollateral",
      "outputs": [],
      "stateMutability": "nonpayable",
      "type": "function"
    },
    {
      "inputs": [
        {
          "internalType": "uint256",
          "name": "_maxFee",
          "type": "uint256"
        },
        {
          "internalType": "uint256",
          "name": "_LUSDAmount",
          "type": "uint256"
        },
        {
          "internalType": "address",
          "name": "_upperHint",
          "type": "address"
        },
        {
          "internalType": "address",
          "name": "_lowerHint",
          "type": "address"
        },
        {
          "internalType": "uint256",
          "name": "amount",
          "type": "uint256"
        }
      ],
      "name": "claimCollateralAndOpenTrove",
      "outputs": [],
      "stateMutability": "nonpayable",
      "type": "function"
    },
    {
      "inputs": [
        {
          "internalType": "uint256",
          "name": "_maxFee",
          "type": "uint256"
        },
        {
          "internalType": "address",
          "name": "_upperHint",
          "type": "address"
        },
        {
          "internalType": "address",
          "name": "_lowerHint",
          "type": "address"
        }
      ],
      "name": "claimSPRewardsAndRecycle",
      "outputs": [],
      "stateMutability": "nonpayable",
      "type": "function"
    },
    {
      "inputs": [
        {
          "internalType": "uint256",
          "name": "_maxFee",
          "type": "uint256"
        },
        {
          "internalType": "address",
          "name": "_upperHint",
          "type": "address"
        },
        {
          "internalType": "address",
          "name": "_lowerHint",
          "type": "address"
        }
      ],
      "name": "claimStakingGainsAndRecycle",
      "outputs": [],
      "stateMutability": "nonpayable",
      "type": "function"
    },
    {
      "inputs": [],
      "name": "closeTrove",
      "outputs": [],
      "stateMutability": "nonpayable",
      "type": "function"
    },
    {
      "inputs": [
        {
          "internalType": "uint256",
          "name": "_maxFee",
          "type": "uint256"
        },
        {
          "internalType": "uint256",
          "name": "_LUSDAmount",
          "type": "uint256"
        },
        {
          "internalType": "address",
          "name": "_upperHint",
          "type": "address"
        },
        {
          "internalType": "address",
          "name": "_lowerHint",
          "type": "address"
        },
        {
          "internalType": "uint256",
          "name": "amount",
          "type": "uint256"
        }
      ],
      "name": "openTrove",
      "outputs": [],
      "stateMutability": "nonpayable",
      "type": "function"
    },
    {
      "inputs": [
        {
          "internalType": "uint256",
          "name": "_amount",
          "type": "uint256"
        },
        {
          "internalType": "address",
          "name": "_upperHint",
          "type": "address"
        },
        {
          "internalType": "address",
          "name": "_lowerHint",
          "type": "address"
        }
      ],
      "name": "repayLUSD",
      "outputs": [],
      "stateMutability": "nonpayable",
      "type": "function"
    },
    {
      "inputs": [
        {
          "internalType": "uint256",
          "name": "_LQTYamount",
          "type": "uint256"
        }
      ],
      "name": "stake",
      "outputs": [],
      "stateMutability": "nonpayable",
      "type": "function"
    },
    {
      "inputs": [
        {
          "internalType": "address",
          "name": "_recipient",
          "type": "address"
        },
        {
          "internalType": "uint256",
          "name": "_amount",
          "type": "uint256"
        }
      ],
      "name": "transferETH",
      "outputs": [
        {
          "internalType": "bool",
          "name": "",
          "type": "bool"
        }
      ],
      "stateMutability": "nonpayable",
      "type": "function"
    },
    {
      "inputs": [
        {
          "internalType": "uint256",
          "name": "_amount",
          "type": "uint256"
        },
        {
          "internalType": "address",
          "name": "_upperHint",
          "type": "address"
        },
        {
          "internalType": "address",
          "name": "_lowerHint",
          "type": "address"
        }
      ],
      "name": "withdrawColl",
      "outputs": [],
      "stateMutability": "nonpayable",
      "type": "function"
    },
    {
      "inputs": [
        {
          "internalType": "uint256",
          "name": "_maxFee",
          "type": "uint256"
        },
        {
          "internalType": "uint256",
          "name": "_amount",
          "type": "uint256"
        },
        {
          "internalType": "address",
          "name": "_upperHint",
          "type": "address"
        },
        {
          "internalType": "address",
          "name": "_lowerHint",
          "type": "address"
        }
      ],
      "name": "withdrawLUSD",
      "outputs": [],
      "stateMutability": "nonpayable",
      "type": "function"
    }
  ],
  "bytecode": "0x6101c06040523480156200001257600080fd5b506040516200299e3803806200299e833981810160405260808110156200003857600080fd5b50805160208201516040830151606090930151919290918083858162000067826001600160e01b036200044016565b6200007b816001600160e01b036200044016565b6001600160601b0319606092831b811660805290821b811660a05291901b1660c052620000b1816001600160e01b036200044016565b60601b6001600160601b03191660e052620000cc8262000440565b6000829050806001600160a01b0316610100816001600160a01b031660601b815250506000816001600160a01b031663048c661d6040518163ffffffff1660e01b815260040160206040518083038186803b1580156200012b57600080fd5b505afa15801562000140573d6000803e3d6000fd5b505050506040513d60208110156200015757600080fd5b505190506200016f816001600160e01b036200044016565b806001600160a01b0316610120816001600160a01b031660601b815250506000826001600160a01b031663741bef1a6040518163ffffffff1660e01b815260040160206040518083038186803b158015620001c957600080fd5b505afa158015620001de573d6000803e3d6000fd5b505050506040513d6020811015620001f557600080fd5b505190506200020d816001600160e01b036200044016565b806001600160a01b0316610140816001600160a01b031660601b815250506000836001600160a01b031663b83f91a26040518163ffffffff1660e01b815260040160206040518083038186803b1580156200026757600080fd5b505afa1580156200027c573d6000803e3d6000fd5b505050506040513d60208110156200029357600080fd5b50519050620002ab816001600160e01b036200044016565b806001600160a01b0316610160816001600160a01b031660601b815250506000846001600160a01b0316631f7af3c36040518163ffffffff1660e01b815260040160206040518083038186803b1580156200030557600080fd5b505afa1580156200031a573d6000803e3d6000fd5b505050506040513d60208110156200033157600080fd5b5051905062000349816001600160e01b036200044016565b806001600160a01b0316610180816001600160a01b031660601b815250506000856001600160a01b031663a3a640176040518163ffffffff1660e01b815260040160206040518083038186803b158015620003a357600080fd5b505afa158015620003b8573d6000803e3d6000fd5b505050506040513d6020811015620003cf57600080fd5b505190506001600160a01b03878116908216146200041f5760405162461bcd60e51b81526004018080602001828103825260318152602001806200296d6031913960400191505060405180910390fd5b60601b6001600160601b0319166101a05250620004f5975050505050505050565b6001600160a01b0381166200049c576040805162461bcd60e51b815260206004820152601e60248201527f4163636f756e742063616e6e6f74206265207a65726f20616464726573730000604482015290519081900360640190fd5b803b80620004f1576040805162461bcd60e51b815260206004820181905260248201527f4163636f756e7420636f64652073697a652063616e6e6f74206265207a65726f604482015290519081900360640190fd5b5050565b60805160601c60a05160601c60c05160601c60e05160601c6101005160601c6101205160601c6101405160601c6101605160601c6101805160601c6101a05160601c6123206200064d60003980610a64528061148452806118fe5250806106b3528061086452806113ec528061186c525080611354528061159f525080611e9252508061074b52806109ea52806117ef525080611dac5280611f445280611fe0525080611219525080610b7352508061061a52806107ca5280610c1e5280610cdb5280610dfa5280610eb75280610ff852806110b552806112bb52806114e9528061163352806119b75280611a745280611b0e5280611c205250806104005280610469528061051452806105ad52806109585280610aee5280610caa5280610d835280610e865280610f6d5280611084528061117a5280611662528061174c5280611a435280611b9e5280611d0352506123206000f3fe608060405234801561001057600080fd5b50600436106100ca5760003560e01c80637e88d4081161007c5780637e88d408146101f75780638e6b3ac51461022d57806395a119e61461026f578063a3f4df7e146102bf578063a694fc3a1461033c578063d08eb01b14610359578063d89b63ba1461038d576100ca565b806304491fa7146100cf5780630e704d50146101055780631184e5f81461010d5780635530273c1461014757806358c9d9771461017b5780636f0b0c1c146101af5780637b1a4909146101b7575b600080fd5b610103600480360360608110156100e557600080fd5b508035906001600160a01b03602082013581169160400135166103cf565b005b610103610467565b6101036004803603608081101561012357600080fd5b508035906020810135906001600160a01b03604082013581169160600135166104dc565b6101036004803603606081101561015d57600080fd5b508035906001600160a01b036020820135811691604001351661057c565b6101036004803603606081101561019157600080fd5b508035906001600160a01b03602082013581169160400135166105f7565b610103610aec565b6101e3600480360360408110156101cd57600080fd5b506001600160a01b038135169060200135610b47565b604080519115158252519081900360200190f35b6101036004803603606081101561020d57600080fd5b506001600160a01b03813581169160208101359091169060400135610bf1565b610103600480360360a081101561024357600080fd5b508035906020810135906001600160a01b03604082013581169160608101359091169060800135610dcd565b610103600480360360e081101561028557600080fd5b5080359060208101359060408101359060608101351515906001600160a01b03608082013581169160a08101359091169060c00135610fcb565b6102c76111e5565b6040805160208082528351818301528351919283929083019185019080838360005b838110156103015781810151838201526020016102e9565b50505050905090810190601f16801561032e5780820380516001836020036101000a031916815260200191505b509250505060405180910390f35b6101036004803603602081101561035257600080fd5b5035611217565b6101036004803603606081101561036f57600080fd5b508035906001600160a01b0360208201358116916040013516611298565b610103600480360360a08110156103a357600080fd5b508035906020810135906001600160a01b0360408201358116916060810135909116906080013561198a565b604080516304491fa760e01b8152600481018590526001600160a01b038481166024830152838116604483015291517f0000000000000000000000000000000000000000000000000000000000000000909216916304491fa79160648082019260009290919082900301818387803b15801561044a57600080fd5b505af115801561045e573d6000803e3d6000fd5b50505050505050565b7f00000000000000000000000000000000000000000000000000000000000000006001600160a01b0316630e704d506040518163ffffffff1660e01b8152600401600060405180830381600087803b1580156104c257600080fd5b505af11580156104d6573d6000803e3d6000fd5b50505050565b604080516302309cbf60e31b815260048101869052602481018590526001600160a01b038481166044830152838116606483015291517f000000000000000000000000000000000000000000000000000000000000000090921691631184e5f89160848082019260009290919082900301818387803b15801561055e57600080fd5b505af1158015610572573d6000803e3d6000fd5b5050505050505050565b6040805163154c09cf60e21b8152600481018590526001600160a01b038481166024830152838116604483015291517f000000000000000000000000000000000000000000000000000000000000000090921691635530273c9160648082019260009290919082900301818387803b15801561044a57600080fd5b604080516370a0823160e01b815230600482015290516000916001600160a01b037f000000000000000000000000000000000000000000000000000000000000000016916370a0823191602480820192602092909190829003018186803b15801561066157600080fd5b505afa158015610675573d6000803e3d6000fd5b505050506040513d602081101561068b57600080fd5b5051604080516370a0823160e01b815230600482015290519192506000916001600160a01b037f000000000000000000000000000000000000000000000000000000000000000016916370a08231916024808301926020929190829003018186803b1580156106f957600080fd5b505afa15801561070d573d6000803e3d6000fd5b505050506040513d602081101561072357600080fd5b505160408051632e54bf9560e01b815260006004820181905291519293506001600160a01b037f00000000000000000000000000000000000000000000000000000000000000001692632e54bf959260248084019391929182900301818387803b15801561079057600080fd5b505af11580156107a4573d6000803e3d6000fd5b5050604080516370a0823160e01b81523060048201529051600093506001600160a01b037f00000000000000000000000000000000000000000000000000000000000000001692506370a0823191602480820192602092909190829003018186803b15801561081257600080fd5b505afa158015610826573d6000803e3d6000fd5b505050506040513d602081101561083c57600080fd5b5051604080516370a0823160e01b815230600482015290519192506000916001600160a01b037f000000000000000000000000000000000000000000000000000000000000000016916370a08231916024808301926020929190829003018186803b1580156108aa57600080fd5b505afa1580156108be573d6000803e3d6000fd5b505050506040513d60208110156108d457600080fd5b5051905060006108ea838663ffffffff611d6116565b90508015610a48576108fb30611daa565b600061090682611e8d565b60408051634ad08cf360e11b8152600481018c905260006024820181905260448201849052600160648301526001600160a01b038c811660848401528b811660a484015260c4830187905292519394507f0000000000000000000000000000000000000000000000000000000000000000909216926395a119e69260e48084019391929182900301818387803b15801561099f57600080fd5b505af11580156109b3573d6000803e3d6000fd5b505050506000811115610a465760408051635f788d6560e01b81526004810183905260006024820181905291516001600160a01b037f00000000000000000000000000000000000000000000000000000000000000001692635f788d65926044808201939182900301818387803b158015610a2d57600080fd5b505af1158015610a41573d6000803e3d6000fd5b505050505b505b6000610a5a838663ffffffff611d6116565b90508015610ae1577f00000000000000000000000000000000000000000000000000000000000000006001600160a01b031663a694fc3a826040518263ffffffff1660e01b815260040180828152602001915050600060405180830381600087803b158015610ac857600080fd5b505af1158015610adc573d6000803e3d6000fd5b505050505b505050505050505050565b7f00000000000000000000000000000000000000000000000000000000000000006001600160a01b0316636f0b0c1c6040518163ffffffff1660e01b8152600401600060405180830381600087803b1580156104c257600080fd5b6040805163a9059cbb60e01b81526001600160a01b0384811660048301526024820184905291516000927f0000000000000000000000000000000000000000000000000000000000000000169163a9059cbb91604480830192602092919082900301818787803b158015610bba57600080fd5b505af1158015610bce573d6000803e3d6000fd5b505050506040513d6020811015610be457600080fd5b5060019150505b92915050565b604080516323b872dd60e01b81523360048201523060248201526044810183905290516001600160a01b037f000000000000000000000000000000000000000000000000000000000000000016916323b872dd9160648083019260209291908290030181600087803b158015610c6657600080fd5b505af1158015610c7a573d6000803e3d6000fd5b505050506040513d6020811015610c9057600080fd5b50506040805163095ea7b360e01b81526001600160a01b037f0000000000000000000000000000000000000000000000000000000000000000811660048301526024820184905291517f00000000000000000000000000000000000000000000000000000000000000009092169163095ea7b3916044808201926020929091908290030181600087803b158015610d2657600080fd5b505af1158015610d3a573d6000803e3d6000fd5b505050506040513d6020811015610d5057600080fd5b505060408051630fd11a8160e31b81526001600160a01b03858116600483015284811660248301526044820184905291517f000000000000000000000000000000000000000000000000000000000000000090921691637e88d4089160648082019260009290919082900301818387803b15801561044a57600080fd5b604080516323b872dd60e01b81523360048201523060248201526044810183905290516001600160a01b037f000000000000000000000000000000000000000000000000000000000000000016916323b872dd9160648083019260209291908290030181600087803b158015610e4257600080fd5b505af1158015610e56573d6000803e3d6000fd5b505050506040513d6020811015610e6c57600080fd5b50506040805163095ea7b360e01b81526001600160a01b037f0000000000000000000000000000000000000000000000000000000000000000811660048301526024820184905291517f00000000000000000000000000000000000000000000000000000000000000009092169163095ea7b3916044808201926020929091908290030181600087803b158015610f0257600080fd5b505af1158015610f16573d6000803e3d6000fd5b505050506040513d6020811015610f2c57600080fd5b505060408051638e6b3ac560e01b815260048101879052602481018690526001600160a01b03858116604483015284811660648301526084820184905291517f000000000000000000000000000000000000000000000000000000000000000090921691638e6b3ac59160a48082019260009290919082900301818387803b158015610fb757600080fd5b505af1158015610ae1573d6000803e3d6000fd5b604080516323b872dd60e01b81523360048201523060248201526044810183905290516001600160a01b037f000000000000000000000000000000000000000000000000000000000000000016916323b872dd9160648083019260209291908290030181600087803b15801561104057600080fd5b505af1158015611054573d6000803e3d6000fd5b505050506040513d602081101561106a57600080fd5b50506040805163095ea7b360e01b81526001600160a01b037f0000000000000000000000000000000000000000000000000000000000000000811660048301526024820184905291517f00000000000000000000000000000000000000000000000000000000000000009092169163095ea7b3916044808201926020929091908290030181600087803b15801561110057600080fd5b505af1158015611114573d6000803e3d6000fd5b505050506040513d602081101561112a57600080fd5b505060408051634ad08cf360e11b815260048101899052602481018890526044810187905285151560648201526001600160a01b03858116608483015284811660a483015260c4820184905291517f0000000000000000000000000000000000000000000000000000000000000000909216916395a119e69160e48082019260009290919082900301818387803b1580156111c457600080fd5b505af11580156111d8573d6000803e3d6000fd5b5050505050505050505050565b60405180604001604052806016815260200175109bdc9c9bddd95c95dc985c1c195c9cd4d8dc9a5c1d60521b81525081565b7f00000000000000000000000000000000000000000000000000000000000000006001600160a01b031663a694fc3a826040518263ffffffff1660e01b815260040180828152602001915050600060405180830381600087803b15801561127d57600080fd5b505af1158015611291573d6000803e3d6000fd5b5050505050565b604080516370a0823160e01b815230600482015290516000916001600160a01b037f000000000000000000000000000000000000000000000000000000000000000016916370a0823191602480820192602092909190829003018186803b15801561130257600080fd5b505afa158015611316573d6000803e3d6000fd5b505050506040513d602081101561132c57600080fd5b5051604080516370a0823160e01b815230600482015290519192506000916001600160a01b037f000000000000000000000000000000000000000000000000000000000000000016916370a08231916024808301926020929190829003018186803b15801561139a57600080fd5b505afa1580156113ae573d6000803e3d6000fd5b505050506040513d60208110156113c457600080fd5b5051604080516370a0823160e01b815230600482015290519192506000916001600160a01b037f000000000000000000000000000000000000000000000000000000000000000016916370a08231916024808301926020929190829003018186803b15801561143257600080fd5b505afa158015611446573d6000803e3d6000fd5b505050506040513d602081101561145c57600080fd5b5051604080516305c2fbcf60e31b815260006004820181905291519293506001600160a01b037f00000000000000000000000000000000000000000000000000000000000000001692632e17de789260248084019391929182900301818387803b1580156114c957600080fd5b505af11580156114dd573d6000803e3d6000fd5b505050506000611595847f00000000000000000000000000000000000000000000000000000000000000006001600160a01b03166370a08231306040518263ffffffff1660e01b815260040180826001600160a01b03166001600160a01b0316815260200191505060206040518083038186803b15801561155d57600080fd5b505afa158015611571573d6000803e3d6000fd5b505050506040513d602081101561158757600080fd5b50519063ffffffff611d6116565b90506000611613847f00000000000000000000000000000000000000000000000000000000000000006001600160a01b03166370a08231306040518263ffffffff1660e01b815260040180826001600160a01b03166001600160a01b0316815260200191505060206040518083038186803b15801561155d57600080fd5b9050600082156117ab5761162630611daa565b61162f83611e8d565b90507f00000000000000000000000000000000000000000000000000000000000000006001600160a01b031663095ea7b37f0000000000000000000000000000000000000000000000000000000000000000856040518363ffffffff1660e01b815260040180836001600160a01b03166001600160a01b0316815260200182815260200192505050602060405180830381600087803b1580156116d157600080fd5b505af11580156116e5573d6000803e3d6000fd5b505050506040513d60208110156116fb57600080fd5b505060408051634ad08cf360e11b8152600481018b905260006024820181905260448201849052600160648301526001600160a01b038b811660848401528a811660a484015260c4830187905292517f0000000000000000000000000000000000000000000000000000000000000000909316926395a119e69260e480820193929182900301818387803b15801561179257600080fd5b505af11580156117a6573d6000803e3d6000fd5b505050505b60006117bd838363ffffffff6120a516565b9050801561197e5760408051635f788d6560e01b81526004810183905260006024820181905291516001600160a01b037f00000000000000000000000000000000000000000000000000000000000000001692635f788d65926044808201939182900301818387803b15801561183257600080fd5b505af1158015611846573d6000803e3d6000fd5b5050604080516370a0823160e01b81523060048201529051600093506001600160a01b037f00000000000000000000000000000000000000000000000000000000000000001692506370a0823191602480820192602092909190829003018186803b1580156118b457600080fd5b505afa1580156118c8573d6000803e3d6000fd5b505050506040513d60208110156118de57600080fd5b5051905060006118f4828863ffffffff611d6116565b9050801561197b577f00000000000000000000000000000000000000000000000000000000000000006001600160a01b031663a694fc3a826040518263ffffffff1660e01b815260040180828152602001915050600060405180830381600087803b15801561196257600080fd5b505af1158015611976573d6000803e3d6000fd5b505050505b50505b50505050505050505050565b604080516323b872dd60e01b81523360048201523060248201526044810183905290516001600160a01b037f000000000000000000000000000000000000000000000000000000000000000016916323b872dd9160648083019260209291908290030181600087803b1580156119ff57600080fd5b505af1158015611a13573d6000803e3d6000fd5b505050506040513d6020811015611a2957600080fd5b50506040805163095ea7b360e01b81526001600160a01b037f0000000000000000000000000000000000000000000000000000000000000000811660048301526024820184905291517f00000000000000000000000000000000000000000000000000000000000000009092169163095ea7b3916044808201926020929091908290030181600087803b158015611abf57600080fd5b505af1158015611ad3573d6000803e3d6000fd5b505050506040513d6020811015611ae957600080fd5b5050604080516370a0823160e01b815230600482015290516000916001600160a01b037f000000000000000000000000000000000000000000000000000000000000000016916370a0823191602480820192602092909190829003018186803b158015611b5557600080fd5b505afa158015611b69573d6000803e3d6000fd5b505050506040513d6020811015611b7f57600080fd5b505160408051631bc2c30760e21b815290519192506001600160a01b037f00000000000000000000000000000000000000000000000000000000000000001691636f0b0c1c9160048082019260009290919082900301818387803b158015611be657600080fd5b505af1158015611bfa573d6000803e3d6000fd5b5050604080516370a0823160e01b81523060048201529051600093506001600160a01b037f00000000000000000000000000000000000000000000000000000000000000001692506370a0823191602480820192602092909190829003018186803b158015611c6857600080fd5b505afa158015611c7c573d6000803e3d6000fd5b505050506040513d6020811015611c9257600080fd5b50519050818111611c9f57fe5b6000611cc184611cb5848663ffffffff611d6116565b9063ffffffff6120a516565b60408051638e6b3ac560e01b8152600481018b9052602481018a90526001600160a01b03898116604483015288811660648301526084820184905291519293507f000000000000000000000000000000000000000000000000000000000000000090911691638e6b3ac59160a48082019260009290919082900301818387803b158015611d4d57600080fd5b505af115801561197b573d6000803e3d6000fd5b6000611da383836040518060400160405280601e81526020017f536166654d6174683a207375627472616374696f6e206f766572666c6f7700008152506120ff565b9392505050565b7f00000000000000000000000000000000000000000000000000000000000000006001600160a01b03166321e37801826040518263ffffffff1660e01b815260040180826001600160a01b03166001600160a01b0316815260200191505060206040518083038186803b158015611e2057600080fd5b505afa158015611e34573d6000803e3d6000fd5b505050506040513d6020811015611e4a57600080fd5b5051600114611e8a5760405162461bcd60e51b81526004018080602001828103825260388152602001806122926038913960400191505060405180910390fd5b50565b6000807f00000000000000000000000000000000000000000000000000000000000000006001600160a01b0316630fdb11cf6040518163ffffffff1660e01b8152600401602060405180830381600087803b158015611eeb57600080fd5b505af1158015611eff573d6000803e3d6000fd5b505050506040513d6020811015611f1557600080fd5b505160408051630d293c7160e41b81523060048201526024810183905290519192506000916001600160a01b037f0000000000000000000000000000000000000000000000000000000000000000169163d293c710916044808301926020929190829003018186803b158015611f8a57600080fd5b505afa158015611f9e573d6000803e3d6000fd5b505050506040513d6020811015611fb457600080fd5b505190506000611fda82611fce878663ffffffff61219616565b9063ffffffff6121ef16565b905060007f00000000000000000000000000000000000000000000000000000000000000006001600160a01b03166366ca4a216040518163ffffffff1660e01b815260040160206040518083038186803b15801561203757600080fd5b505afa15801561204b573d6000803e3d6000fd5b505050506040513d602081101561206157600080fd5b50519050600061209a612082670de0b6b3a76400008463ffffffff6120a516565b611fce85670de0b6b3a764000063ffffffff61219616565b979650505050505050565b600082820183811015611da3576040805162461bcd60e51b815260206004820152601b60248201527f536166654d6174683a206164646974696f6e206f766572666c6f770000000000604482015290519081900360640190fd5b6000818484111561218e5760405162461bcd60e51b81526004018080602001828103825283818151815260200191508051906020019080838360005b8381101561215357818101518382015260200161213b565b50505050905090810190601f1680156121805780820380516001836020036101000a031916815260200191505b509250505060405180910390fd5b505050900390565b6000826121a557506000610beb565b828202828482816121b257fe5b0414611da35760405162461bcd60e51b81526004018080602001828103825260218152602001806122ca6021913960400191505060405180910390fd5b6000611da383836040518060400160405280601a81526020017f536166654d6174683a206469766973696f6e206279207a65726f0000000000008152506000818361227b5760405162461bcd60e51b815260206004820181815283516024840152835190928392604490910191908501908083836000831561215357818101518382015260200161213b565b50600083858161228757fe5b049594505050505056fe426f72726f77657257726170706572735363726970743a2063616c6c6572206d757374206861766520616e206163746976652074726f7665536166654d6174683a206d756c7469706c69636174696f6e206f766572666c6f77a26469706673582212205d01397a5102425772ff6948a5f4951e371c06ff3338f980cea3a22947e0271d64736f6c634300060b0033426f72726f77657257726170706572735363726970743a2057726f6e67204c5154595374616b696e672061646472657373",
  "linkReferences": {},
  "deployedLinkReferences": {}
}