{
  "_format": "hh-sol-artifact-1",
  "contractName": "BorrowerOperations",
  "sourceName": "contracts/BorrowerOperations.sol",
  "abi": [
    {
      "anonymous": false,
      "inputs": [
        {
          "indexed": false,
          "internalType": "address",
          "name": "_activePoolAddress",
          "type": "address"
        }
      ],
      "name": "ActivePoolAddressChanged",
      "type": "event"
    },
    {
      "anonymous": false,
      "inputs": [
        {
          "indexed": false,
          "internalType": "address",
          "name": "_collSurplusPoolAddress",
          "type": "address"
        }
      ],
      "name": "CollSurplusPoolAddressChanged",
      "type": "event"
    },
    {
      "anonymous": false,
      "inputs": [
        {
          "indexed": false,
          "internalType": "address",
          "name": "_defaultPoolAddress",
          "type": "address"
        }
      ],
      "name": "DefaultPoolAddressChanged",
      "type": "event"
    },
    {
      "anonymous": false,
      "inputs": [
        {
          "indexed": false,
          "internalType": "address",
          "name": "_gasPoolAddress",
          "type": "address"
        }
      ],
      "name": "GasPoolAddressChanged",
      "type": "event"
    },
    {
      "anonymous": false,
      "inputs": [
        {
          "indexed": false,
          "internalType": "address",
          "name": "_lqtyStakingAddress",
          "type": "address"
        }
      ],
      "name": "LQTYStakingAddressChanged",
      "type": "event"
    },
    {
      "anonymous": false,
      "inputs": [
        {
          "indexed": true,
          "internalType": "address",
          "name": "_borrower",
          "type": "address"
        },
        {
          "indexed": false,
          "internalType": "uint256",
          "name": "_LUSDFee",
          "type": "uint256"
        }
      ],
      "name": "LUSDBorrowingFeePaid",
      "type": "event"
    },
    {
      "anonymous": false,
      "inputs": [
        {
          "indexed": false,
          "internalType": "address",
          "name": "_lusdTokenAddress",
          "type": "address"
        }
      ],
      "name": "LUSDTokenAddressChanged",
      "type": "event"
    },
    {
      "anonymous": false,
      "inputs": [
        {
          "indexed": true,
          "internalType": "address",
          "name": "previousOwner",
          "type": "address"
        },
        {
          "indexed": true,
          "internalType": "address",
          "name": "newOwner",
          "type": "address"
        }
      ],
      "name": "OwnershipTransferred",
      "type": "event"
    },
    {
      "anonymous": false,
      "inputs": [
        {
          "indexed": false,
          "internalType": "address",
          "name": "_newPriceFeedAddress",
          "type": "address"
        }
      ],
      "name": "PriceFeedAddressChanged",
      "type": "event"
    },
    {
      "anonymous": false,
      "inputs": [
        {
          "indexed": false,
          "internalType": "address",
          "name": "_sortedTrovesAddress",
          "type": "address"
        }
      ],
      "name": "SortedTrovesAddressChanged",
      "type": "event"
    },
    {
      "anonymous": false,
      "inputs": [
        {
          "indexed": false,
          "internalType": "address",
          "name": "_stabilityPoolAddress",
          "type": "address"
        }
      ],
      "name": "StabilityPoolAddressChanged",
      "type": "event"
    },
    {
      "anonymous": false,
      "inputs": [
        {
          "indexed": true,
          "internalType": "address",
          "name": "_borrower",
          "type": "address"
        },
        {
          "indexed": false,
          "internalType": "uint256",
          "name": "arrayIndex",
          "type": "uint256"
        }
      ],
      "name": "TroveCreated",
      "type": "event"
    },
    {
      "anonymous": false,
      "inputs": [
        {
          "indexed": false,
          "internalType": "address",
          "name": "_newTroveManagerAddress",
          "type": "address"
        }
      ],
      "name": "TroveManagerAddressChanged",
      "type": "event"
    },
    {
      "anonymous": false,
      "inputs": [
        {
          "indexed": true,
          "internalType": "address",
          "name": "_borrower",
          "type": "address"
        },
        {
          "indexed": false,
          "internalType": "uint256",
          "name": "_debt",
          "type": "uint256"
        },
        {
          "indexed": false,
          "internalType": "uint256",
          "name": "_coll",
          "type": "uint256"
        },
        {
          "indexed": false,
          "internalType": "uint256",
          "name": "stake",
          "type": "uint256"
        },
        {
          "indexed": false,
          "internalType": "enum BorrowerOperations.BorrowerOperation",
          "name": "operation",
          "type": "uint8"
        }
      ],
      "name": "TroveUpdated",
      "type": "event"
    },
    {
      "inputs": [],
      "name": "BORROWING_FEE_FLOOR",
      "outputs": [
        {
          "internalType": "uint256",
          "name": "",
          "type": "uint256"
        }
      ],
      "stateMutability": "view",
      "type": "function"
    },
    {
      "inputs": [],
      "name": "CCR",
      "outputs": [
        {
          "internalType": "uint256",
          "name": "",
          "type": "uint256"
        }
      ],
      "stateMutability": "view",
      "type": "function"
    },
    {
      "inputs": [],
      "name": "DECIMAL_PRECISION",
      "outputs": [
        {
          "internalType": "uint256",
          "name": "",
          "type": "uint256"
        }
      ],
      "stateMutability": "view",
      "type": "function"
    },
    {
      "inputs": [],
      "name": "LUSD_GAS_COMPENSATION",
      "outputs": [
        {
          "internalType": "uint256",
          "name": "",
          "type": "uint256"
        }
      ],
      "stateMutability": "view",
      "type": "function"
    },
    {
      "inputs": [],
      "name": "MCR",
      "outputs": [
        {
          "internalType": "uint256",
          "name": "",
          "type": "uint256"
        }
      ],
      "stateMutability": "view",
      "type": "function"
    },
    {
      "inputs": [],
      "name": "MIN_NET_DEBT",
      "outputs": [
        {
          "internalType": "uint256",
          "name": "",
          "type": "uint256"
        }
      ],
      "stateMutability": "view",
      "type": "function"
    },
    {
      "inputs": [],
      "name": "NAME",
      "outputs": [
        {
          "internalType": "string",
          "name": "",
          "type": "string"
        }
      ],
      "stateMutability": "view",
      "type": "function"
    },
    {
      "inputs": [],
      "name": "PERCENT_DIVISOR",
      "outputs": [
        {
          "internalType": "uint256",
          "name": "",
          "type": "uint256"
        }
      ],
      "stateMutability": "view",
      "type": "function"
    },
    {
      "inputs": [],
      "name": "_100pct",
      "outputs": [
        {
          "internalType": "uint256",
          "name": "",
          "type": "uint256"
        }
      ],
      "stateMutability": "view",
      "type": "function"
    },
    {
      "inputs": [],
      "name": "activePool",
      "outputs": [
        {
          "internalType": "contract IActivePool",
          "name": "",
          "type": "address"
        }
      ],
      "stateMutability": "view",
      "type": "function"
    },
    {
      "inputs": [
        {
          "internalType": "address",
          "name": "_upperHint",
          "type": "address"
        },
        {
          "internalType": "address",
          "name": "_lowerHint",
          "type": "address"
        },
        {
          "internalType": "uint256",
          "name": "amount",
          "type": "uint256"
        }
      ],
      "name": "addColl",
      "outputs": [],
      "stateMutability": "nonpayable",
      "type": "function"
    },
    {
      "inputs": [
        {
          "internalType": "uint256",
          "name": "_maxFeePercentage",
          "type": "uint256"
        },
        {
          "internalType": "uint256",
          "name": "_collWithdrawal",
          "type": "uint256"
        },
        {
          "internalType": "uint256",
          "name": "_LUSDChange",
          "type": "uint256"
        },
        {
          "internalType": "bool",
          "name": "_isDebtIncrease",
          "type": "bool"
        },
        {
          "internalType": "address",
          "name": "_upperHint",
          "type": "address"
        },
        {
          "internalType": "address",
          "name": "_lowerHint",
          "type": "address"
        },
        {
          "internalType": "uint256",
          "name": "amount",
          "type": "uint256"
        }
      ],
      "name": "adjustTrove",
      "outputs": [],
      "stateMutability": "nonpayable",
      "type": "function"
    },
    {
      "inputs": [],
      "name": "claimCollateral",
      "outputs": [],
      "stateMutability": "nonpayable",
      "type": "function"
    },
    {
      "inputs": [],
      "name": "closeTrove",
      "outputs": [],
      "stateMutability": "nonpayable",
      "type": "function"
    },
    {
      "inputs": [],
      "name": "defaultPool",
      "outputs": [
        {
          "internalType": "contract IDefaultPool",
          "name": "",
          "type": "address"
        }
      ],
      "stateMutability": "view",
      "type": "function"
    },
    {
      "inputs": [
        {
          "internalType": "uint256",
          "name": "_debt",
          "type": "uint256"
        }
      ],
      "name": "getCompositeDebt",
      "outputs": [
        {
          "internalType": "uint256",
          "name": "",
          "type": "uint256"
        }
      ],
      "stateMutability": "pure",
      "type": "function"
    },
    {
      "inputs": [],
      "name": "getEntireSystemColl",
      "outputs": [
        {
          "internalType": "uint256",
          "name": "entireSystemColl",
          "type": "uint256"
        }
      ],
      "stateMutability": "view",
      "type": "function"
    },
    {
      "inputs": [],
      "name": "getEntireSystemDebt",
      "outputs": [
        {
          "internalType": "uint256",
          "name": "entireSystemDebt",
          "type": "uint256"
        }
      ],
      "stateMutability": "view",
      "type": "function"
    },
    {
      "inputs": [],
      "name": "isOwner",
      "outputs": [
        {
          "internalType": "bool",
          "name": "",
          "type": "bool"
        }
      ],
      "stateMutability": "view",
      "type": "function"
    },
    {
      "inputs": [],
      "name": "lqtyStaking",
      "outputs": [
        {
          "internalType": "contract ILQTYStaking",
          "name": "",
          "type": "address"
        }
      ],
      "stateMutability": "view",
      "type": "function"
    },
    {
      "inputs": [],
      "name": "lqtyStakingAddress",
      "outputs": [
        {
          "internalType": "address",
          "name": "",
          "type": "address"
        }
      ],
      "stateMutability": "view",
      "type": "function"
    },
    {
      "inputs": [],
      "name": "lusdToken",
      "outputs": [
        {
          "internalType": "contract ILUSDToken",
          "name": "",
          "type": "address"
        }
      ],
      "stateMutability": "view",
      "type": "function"
    },
    {
      "inputs": [
        {
          "internalType": "address",
          "name": "_borrower",
          "type": "address"
        },
        {
          "internalType": "address",
          "name": "_upperHint",
          "type": "address"
        },
        {
          "internalType": "address",
          "name": "_lowerHint",
          "type": "address"
        },
        {
          "internalType": "uint256",
          "name": "amount",
          "type": "uint256"
        }
      ],
      "name": "moveETHGainToTrove",
      "outputs": [],
      "stateMutability": "nonpayable",
      "type": "function"
    },
    {
      "inputs": [
        {
          "internalType": "uint256",
          "name": "_maxFeePercentage",
          "type": "uint256"
        },
        {
          "internalType": "uint256",
          "name": "_LUSDAmount",
          "type": "uint256"
        },
        {
          "internalType": "address",
          "name": "_upperHint",
          "type": "address"
        },
        {
          "internalType": "address",
          "name": "_lowerHint",
          "type": "address"
        },
        {
          "internalType": "uint256",
          "name": "amount",
          "type": "uint256"
        }
      ],
      "name": "openTrove",
      "outputs": [],
      "stateMutability": "nonpayable",
      "type": "function"
    },
    {
      "inputs": [],
      "name": "owner",
      "outputs": [
        {
          "internalType": "address",
          "name": "",
          "type": "address"
        }
      ],
      "stateMutability": "view",
      "type": "function"
    },
    {
      "inputs": [],
      "name": "priceFeed",
      "outputs": [
        {
          "internalType": "contract IPriceFeed",
          "name": "",
          "type": "address"
        }
      ],
      "stateMutability": "view",
      "type": "function"
    },
    {
      "inputs": [
        {
          "internalType": "uint256",
          "name": "_LUSDAmount",
          "type": "uint256"
        },
        {
          "internalType": "address",
          "name": "_upperHint",
          "type": "address"
        },
        {
          "internalType": "address",
          "name": "_lowerHint",
          "type": "address"
        }
      ],
      "name": "repayLUSD",
      "outputs": [],
      "stateMutability": "nonpayable",
      "type": "function"
    },
    {
      "inputs": [
        {
          "internalType": "address",
          "name": "_troveManagerAddress",
          "type": "address"
        },
        {
          "internalType": "address",
          "name": "_activePoolAddress",
          "type": "address"
        },
        {
          "internalType": "address",
          "name": "_defaultPoolAddress",
          "type": "address"
        },
        {
          "internalType": "address",
          "name": "_stabilityPoolAddress",
          "type": "address"
        },
        {
          "internalType": "address",
          "name": "_gasPoolAddress",
          "type": "address"
        },
        {
          "internalType": "address",
          "name": "_collSurplusPoolAddress",
          "type": "address"
        },
        {
          "internalType": "address",
          "name": "_priceFeedAddress",
          "type": "address"
        },
        {
          "internalType": "address",
          "name": "_sortedTrovesAddress",
          "type": "address"
        },
        {
          "internalType": "address",
          "name": "_lusdTokenAddress",
          "type": "address"
        },
        {
          "internalType": "address",
          "name": "_lqtyStakingAddress",
          "type": "address"
        },
        {
          "internalType": "address",
          "name": "_stETHAddress",
          "type": "address"
        }
      ],
      "name": "setAddresses",
      "outputs": [],
      "stateMutability": "nonpayable",
      "type": "function"
    },
    {
      "inputs": [],
      "name": "sortedTroves",
      "outputs": [
        {
          "internalType": "contract ISortedTroves",
          "name": "",
          "type": "address"
        }
      ],
      "stateMutability": "view",
      "type": "function"
    },
    {
      "inputs": [],
      "name": "stETHAddress",
      "outputs": [
        {
          "internalType": "address",
          "name": "",
          "type": "address"
        }
      ],
      "stateMutability": "view",
      "type": "function"
    },
    {
      "inputs": [],
      "name": "troveManager",
      "outputs": [
        {
          "internalType": "contract ITroveManager",
          "name": "",
          "type": "address"
        }
      ],
      "stateMutability": "view",
      "type": "function"
    },
    {
      "inputs": [
        {
          "internalType": "uint256",
          "name": "_collWithdrawal",
          "type": "uint256"
        },
        {
          "internalType": "address",
          "name": "_upperHint",
          "type": "address"
        },
        {
          "internalType": "address",
          "name": "_lowerHint",
          "type": "address"
        }
      ],
      "name": "withdrawColl",
      "outputs": [],
      "stateMutability": "nonpayable",
      "type": "function"
    },
    {
      "inputs": [
        {
          "internalType": "uint256",
          "name": "_maxFeePercentage",
          "type": "uint256"
        },
        {
          "internalType": "uint256",
          "name": "_LUSDAmount",
          "type": "uint256"
        },
        {
          "internalType": "address",
          "name": "_upperHint",
          "type": "address"
        },
        {
          "internalType": "address",
          "name": "_lowerHint",
          "type": "address"
        }
      ],
      "name": "withdrawLUSD",
      "outputs": [],
      "stateMutability": "nonpayable",
      "type": "function"
    }
  ],
  "bytecode": "0x608060405234801561001057600080fd5b50600380546001600160a01b031916339081179091556040516000907f8be0079c531659141344cd1fd0a4f28419497f9722a3daafe3b4186f6b6457e0908290a361384e806100606000396000f3fe608060405234801561001057600080fd5b50600436106101bb5760003560e01c8063795d26c3116100fa57806395a119e61161009d57806395a119e61461043f578063a20baee6146102ef578063a3a640171461048f578063a3f4df7e14610497578063ada50c9b14610514578063ae9187541461051c578063b83f91a214610524578063e486a5681461052c578063f92d343314610568576101bb565b8063795d26c31461030f5780637985c5e4146103175780637e88d408146103935780637f7dde4a146103c9578063887105d3146103d15780638da5cb5b146103d95780638e6b3ac5146103e15780638f32d59b14610423576101bb565b80634ff81443116101625780634ff814431461028e5780635530273c146102ab5780635733d58f146102df5780636f0b0c1c146102e757806372fe25aa146102ef578063741bef1a146102f7578063761ab22c146102ff578063794e572414610307576101bb565b806304491fa7146101c05780630e704d50146101f65780631184e5f8146101fe5780631bf43555146102385780632e86bbd8146102525780633cc742251461025a5780633d83908a1461027e5780634870dd9a14610286575b600080fd5b6101f4600480360360608110156101d657600080fd5b508035906001600160a01b0360208201358116916040013516610570565b005b6101f4610588565b6101f46004803603608081101561021457600080fd5b508035906020810135906001600160a01b0360408201358116916060013516610983565b61024061099c565b60408051918252519081900360200190f35b6102406109a9565b6102626109b6565b604080516001600160a01b039092168252519081900360200190f35b6102626109c5565b6102406109d4565b610240600480360360208110156102a457600080fd5b50356109d9565b6101f4600480360360608110156102c157600080fd5b508035906001600160a01b03602082013581169160400135166109ea565b6102406109fc565b6101f4610a08565b610240610a68565b610262610a74565b610262610a83565b610240610a92565b610240610a9e565b6101f4600480360361016081101561032e57600080fd5b506001600160a01b038135811691602081013582169160408201358116916060810135821691608082013581169160a081013582169160c082013581169160e08101358216916101008201358116916101208101358216916101409091013516610b9f565b6101f4600480360360608110156103a957600080fd5b506001600160a01b03813581169160208101359091169060400135610f5d565b610262610ff6565b610240611005565b6102626110c1565b6101f4600480360360a08110156103f757600080fd5b508035906020810135906001600160a01b036040820135811691606081013590911690608001356110d0565b61042b61178f565b604080519115158252519081900360200190f35b6101f4600480360360e081101561045557600080fd5b5080359060208101359060408101359060608101351515906001600160a01b03608082013581169160a08101359091169060c001356117a0565b610262611847565b61049f611856565b6040805160208082528351818301528351919283929083019185019080838360005b838110156104d95781810151838201526020016104c1565b50505050905090810190601f1680156105065780820380516001836020036101000a031916815260200191505b509250505060405180910390f35b610262611884565b610262611893565b6102626118a2565b6101f46004803603608081101561054257600080fd5b506001600160a01b038135811691602081013582169160408201351690606001356118b1565b6102406118cc565b61058333600085600086866000806118d7565b505050565b600554600054600b546001600160a01b039283169291821691166105ac8333611f28565b60025460408051630fdb11cf60e01b815290516000926001600160a01b031691630fdb11cf91600480830192602092919082900301818787803b1580156105f257600080fd5b505af1158015610606573d6000803e3d6000fd5b505050506040513d602081101561061c57600080fd5b5051905061062981611fed565b60408051630b07655760e01b815233600482015290516001600160a01b03861691630b07655791602480830192600092919082900301818387803b15801561067057600080fd5b505af1158015610684573d6000803e3d6000fd5b5050604080516309019aaf60e31b81523360048201529051600093506001600160a01b038816925063480cd57891602480820192602092909190829003018186803b1580156106d257600080fd5b505afa1580156106e6573d6000803e3d6000fd5b505050506040513d60208110156106fc57600080fd5b50516040805163d66a255360e01b815233600482015290519192506000916001600160a01b0388169163d66a2553916024808301926020929190829003018186803b15801561074a57600080fd5b505afa15801561075e573d6000803e3d6000fd5b505050506040513d602081101561077457600080fd5b5051905061079b843361079684680ad78ebc5ac620000063ffffffff61203516565b61207e565b60006107ac8360008460008861213e565b90506107b7816121c9565b60408051631fc5750960e31b815233600482015290516001600160a01b0389169163fe2ba84891602480830192600092919082900301818387803b1580156107fe57600080fd5b505af1158015610812573d6000803e3d6000fd5b5050604080516365e89c5760e11b815233600482015290516001600160a01b038b16935063cbd138ae9250602480830192600092919082900301818387803b15801561085d57600080fd5b505af1158015610871573d6000803e3d6000fd5b50505050336001600160a01b03166000805160206135ea83398151915260008060006001604051808581526020018481526020018381526020018260028111156108b757fe5b60ff16815260200194505050505060405180910390a26108f18686336108ec86680ad78ebc5ac620000063ffffffff61203516565b612210565b60075461091490879087906001600160a01b0316680ad78ebc5ac6200000612210565b604080516364a197f360e01b81523360048201526024810185905290516001600160a01b038816916364a197f391604480830192600092919082900301818387803b15801561096257600080fd5b505af1158015610976573d6000803e3d6000fd5b5050505050505050505050565b61099633600085600186868a60006118d7565b50505050565b686194049f30f720000081565b680ad78ebc5ac620000081565b6001546001600160a01b031681565b6005546001600160a01b031681565b60c881565b60006109e4826122ec565b92915050565b610583338460008086866000806118d7565b6714d1120d7b16000081565b6008546040805163b32beb5b60e01b815233600482015290516001600160a01b039092169163b32beb5b9160248082019260009290919082900301818387803b158015610a5457600080fd5b505af1158015610996573d6000803e3d6000fd5b670de0b6b3a764000081565b6002546001600160a01b031681565b600a546001600160a01b031681565b670f43fc2c04ee000081565b6000805460408051632f5a97e560e11b8152905183926001600160a01b031691635eb52fca916004808301926020929190829003018186803b158015610ae357600080fd5b505afa158015610af7573d6000803e3d6000fd5b505050506040513d6020811015610b0d57600080fd5b505160015460408051632f5a97e560e11b815290519293506000926001600160a01b0390921691635eb52fca91600480820192602092909190829003018186803b158015610b5a57600080fd5b505afa158015610b6e573d6000803e3d6000fd5b505050506040513d6020811015610b8457600080fd5b50519050610b98828263ffffffff61230716565b9250505090565b610ba761178f565b610bf8576040805162461bcd60e51b815260206004820181905260248201527f4f776e61626c653a2063616c6c6572206973206e6f7420746865206f776e6572604482015290519081900360640190fd5b610c018b612361565b610c0a8a612361565b610c1389612361565b610c1c88612361565b610c2587612361565b610c2e86612361565b610c3785612361565b610c4084612361565b610c4983612361565b610c5282612361565b610c5b81612361565b600580546001600160a01b03199081166001600160a01b038e81169182179093556000805483168e85161790556001805483168d85161790556006805483168c85161790556007805483168b85161790556008805483168a8516179055600280548316898516179055600c80548316888516179055600b80548316878516179055600a8054831686851690811790915560098054841690911790556004805490921692841692909217905560408051918252517f143219c9e69b09e07e095fcc889b43d8f46ca892bba65f08dc3a0050869a5678916020908290030190a1604080516001600160a01b038c16815290517f78f058b189175430c48dc02699e3a0031ea4ff781536dc2fab847de4babdd8829181900360200190a1604080516001600160a01b038b16815290517f5ee0cae2f063ed938bb55046f6a932fb6ae792bf43624806bb90abe68a50be9b9181900360200190a1604080516001600160a01b038a16815290517f82966d27eea39b038ee0fa30cd16532bb24f6e65d31cb58fb227aa5766cdcc7f9181900360200190a1604080516001600160a01b038916815290517fcfb07d791fcafc032b35837b50eb84b74df518cf4cc287e8084f47630fa70fa09181900360200190a1604080516001600160a01b038816815290517fe67f36a6e961157d6eff83b91f3af5a62131ceb6f04954ef74f51c1c05e7f88d9181900360200190a1604080516001600160a01b038716815290517f8c537274438aa850a330284665d81a85dd38267d09e4050d416bfc94142db2649181900360200190a1604080516001600160a01b038616815290517f65f4cf077bc01e4742eb5ad98326f6e95b63548ea24b17f8d5e823111fe788009181900360200190a1604080516001600160a01b038516815290517f227eec0ec317af6ab1a9587ffa1c84332522eb4c583a908f89babc05f8f339bd9181900360200190a1604080516001600160a01b038416815290517f756ebc192164c295bba134b5aacd72cc7aff8098a670d1f0a5f6b3a0b4ce67079181900360200190a1610976612414565b60048054604080516323b872dd60e01b8152339381019390935230602484015260448301849052516001600160a01b03909116916323b872dd9160648083019260209291908290030181600087803b158015610fb857600080fd5b505af1158015610fcc573d6000803e3d6000fd5b505050506040513d6020811015610fe257600080fd5b5061058390503360008080878782886118d7565b6000546001600160a01b031681565b6000805460408051630a7b61df60e11b8152905183926001600160a01b0316916314f6c3be916004808301926020929190829003018186803b15801561104a57600080fd5b505afa15801561105e573d6000803e3d6000fd5b505050506040513d602081101561107457600080fd5b505160015460408051630a7b61df60e11b815290519293506000926001600160a01b03909216916314f6c3be91600480820192602092909190829003018186803b158015610b5a57600080fd5b6003546001600160a01b031690565b60048054604080516323b872dd60e01b8152339381019390935230602484015260448301849052516001600160a01b03909116916323b872dd9160648083019260209291908290030181600087803b15801561112b57600080fd5b505af115801561113f573d6000803e3d6000fd5b505050506040513d602081101561115557600080fd5b50611160905061336a565b50604080516060810182526005546001600160a01b03908116825260005481166020830152600b54169181019190915261119861338a565b600260009054906101000a90046001600160a01b03166001600160a01b0316630fdb11cf6040518163ffffffff1660e01b8152600401602060405180830381600087803b1580156111e857600080fd5b505af11580156111fc573d6000803e3d6000fd5b505050506040513d602081101561121257600080fd5b50518082526000906112239061245e565b905061122f888261247b565b825161123b9033612527565b604082018790528061127c5761125b83600001518460400151898b612603565b6020830181905260408301516112769163ffffffff61230716565b60408301525b61128982604001516127b3565b61129682604001516122ec565b606083018190526112a357fe5b6112b684836060015184600001516127fb565b608083015260608201516112cb908590612839565b60a083015280156112e8576112e3826080015161286e565b61131b565b6112f582608001516128b5565b600061130e85600185606001516001876000015161213e565b9050611319816121c9565b505b825160408051635d6b480f60e01b81523360048201526001602482015290516001600160a01b0390921691635d6b480f9160448082019260009290919082900301818387803b15801561136d57600080fd5b505af1158015611381573d6000803e3d6000fd5b50508451604080516372423c1760e01b81523360048201526024810189905290516001600160a01b0390921693506372423c1792506044808201926020929091908290030181600087803b1580156113d857600080fd5b505af11580156113ec573d6000803e3d6000fd5b505050506040513d602081101561140257600080fd5b50508251606083015160408051639976cf4560e01b81523360048201526024810192909252516001600160a01b0390921691639976cf45916044808201926020929091908290030181600087803b15801561145c57600080fd5b505af1158015611470573d6000803e3d6000fd5b505050506040513d602081101561148657600080fd5b50508251604080516382fe3eb960e01b815233600482015290516001600160a01b03909216916382fe3eb99160248082019260009290919082900301818387803b1580156114d357600080fd5b505af11580156114e7573d6000803e3d6000fd5b5050845160408051630c7940bd60e11b815233600482015290516001600160a01b0390921693506318f2817a92506024808201926020929091908290030181600087803b15801561153757600080fd5b505af115801561154b573d6000803e3d6000fd5b505050506040513d602081101561156157600080fd5b505160c0830152600c5460a0830151604080516346f7cf8760e01b815233600482015260248101929092526001600160a01b038981166044840152888116606484015290519216916346f7cf879160848082019260009290919082900301818387803b1580156115d057600080fd5b505af11580156115e4573d6000803e3d6000fd5b50508451604080516315d549f160e01b815233600482015290516001600160a01b0390921693506315d549f192506024808201926020929091908290030181600087803b15801561163457600080fd5b505af1158015611648573d6000803e3d6000fd5b505050506040513d602081101561165e57600080fd5b505160e08301819052604080519182525133917f59cfd0cd754bc5748b6770e94a4ffa5f678d885cb899dcfadc5734edb97c67ab919081900360200190a26116aa8360200151856128fc565b6116c383602001518460400151338a86604001516129e6565b602083015160408401516007546116ef9291906001600160a01b0316680ad78ebc5ac6200000806129e6565b336001600160a01b03166000805160206135ea8339815191528360600151868560c0015160006040518085815260200184815260200183815260200182600281111561173757fe5b60ff16815260200194505050505060405180910390a2602080830151604080519182525133927fa55c5f48fd29482ad55f4b59bf070cd1ac1a7132a31f7a136ebe8877ae37e1ff928290030190a25050505050505050565b6003546001600160a01b0316331490565b801561182e5760048054604080516323b872dd60e01b8152339381019390935230602484015260448301849052516001600160a01b03909116916323b872dd9160648083019260209291908290030181600087803b15801561180157600080fd5b505af1158015611815573d6000803e3d6000fd5b505050506040513d602081101561182b57600080fd5b50505b61183e3387878787878d886118d7565b50505050505050565b6009546001600160a01b031681565b60405180604001604052806012815260200171426f72726f7765724f7065726174696f6e7360701b81525081565b6004546001600160a01b031681565b600c546001600160a01b031681565b600b546001600160a01b031681565b6118b9612ac3565b61099684600080600087876000886118d7565b6611c37937e0800081565b6118df61336a565b50604080516060810182526005546001600160a01b03908116825260005481166020830152600b5416918101919091526119176133cf565b600260009054906101000a90046001600160a01b03166001600160a01b0316630fdb11cf6040518163ffffffff1660e01b8152600401602060405180830381600087803b15801561196757600080fd5b505af115801561197b573d6000803e3d6000fd5b505050506040513d602081101561199157600080fd5b50518082526000906119a29061245e565b905087156119bd576119b4858261247b565b6119bd89612b0e565b6119c78a85612b4d565b6119d28a8a86612b93565b82516119de908c611f28565b336001600160a01b038c161480611a1457506006546001600160a01b031633148015611a0a5750600084115b8015611a14575088155b611a1a57fe5b82600001516001600160a01b0316630b0765578c6040518263ffffffff1660e01b815260040180826001600160a01b03166001600160a01b03168152602001915050600060405180830381600087803b158015611a7657600080fd5b505af1158015611a8a573d6000803e3d6000fd5b50505050611a98848b612be5565b15156060840152602083015260408201899052878015611ab6575080155b15611af157611acf836000015184604001518b88612603565b61012083018190526040830151611aeb9163ffffffff61230716565b60408301525b82600001516001600160a01b031663d66a25538c6040518263ffffffff1660e01b815260040180826001600160a01b03166001600160a01b0316815260200191505060206040518083038186803b158015611b4b57600080fd5b505afa158015611b5f573d6000803e3d6000fd5b505050506040513d6020811015611b7557600080fd5b505160808301528251604080516309019aaf60e31b81526001600160a01b038e811660048301529151919092169163480cd578916024808301926020929190829003018186803b158015611bc857600080fd5b505afa158015611bdc573d6000803e3d6000fd5b505050506040513d6020811015611bf257600080fd5b505160a0830181905260808301518351611c0d9291906127fb565b8260c0018181525050611c3d8260a0015183608001518460200151856060015186604001518d8860000151612c04565b60e083015260a08201518a1115611c5057fe5b611c5c818b8a85612c37565b87158015611c6a5750600089115b15611cbd57611c98611c938360400151611c878560800151612cab565b9063ffffffff61203516565b6127b3565b611caa82608001518360400151612cc6565b611cbd83604001518c846040015161207e565b611cdb83600001518c8460200151856060015186604001518d612d1d565b610140840152610160830152825160408051630c7940bd60e11b81526001600160a01b038e81166004830152915191909216916318f2817a9160248083019260209291908290030181600087803b158015611d3557600080fd5b505af1158015611d49573d6000803e3d6000fd5b505050506040513d6020811015611d5f57600080fd5b505161018083015260a08201516080830151602084015160608501516040860151600094611d93949093909290918e612f7d565b9050600c60009054906101000a90046001600160a01b03166001600160a01b0316632be212608d838b8b6040518563ffffffff1660e01b815260040180856001600160a01b03166001600160a01b03168152602001848152602001836001600160a01b03166001600160a01b03168152602001826001600160a01b03166001600160a01b03168152602001945050505050600060405180830381600087803b158015611e3e57600080fd5b505af1158015611e52573d6000803e3d6000fd5b505050508b6001600160a01b03166000805160206135ea833981519152846101400151856101600151866101800151600260405180858152602001848152602001838152602001826002811115611ea557fe5b60ff16815260200194505050505060405180910390a2610120830151604080519182525133917fa55c5f48fd29482ad55f4b59bf070cd1ac1a7132a31f7a136ebe8877ae37e1ff919081900360200190a2611f1a8460200151856040015133866020015187606001518f8f8a60400151612fae565b505050505050505050505050565b6000826001600160a01b03166321e37801836040518263ffffffff1660e01b815260040180826001600160a01b03166001600160a01b0316815260200191505060206040518083038186803b158015611f8057600080fd5b505afa158015611f94573d6000803e3d6000fd5b505050506040513d6020811015611faa57600080fd5b50519050600181146105835760405162461bcd60e51b815260040180806020018281038252602e8152602001806135bc602e913960400191505060405180910390fd5b611ff68161245e565b156120325760405162461bcd60e51b815260040180806020018281038252603981526020018061346a6039913960400191505060405180910390fd5b50565b600061207783836040518060400160405280601e81526020017f536166654d6174683a207375627472616374696f6e206f766572666c6f77000081525061305b565b9392505050565b80836001600160a01b03166370a08231846040518263ffffffff1660e01b815260040180826001600160a01b03166001600160a01b0316815260200191505060206040518083038186803b1580156120d557600080fd5b505afa1580156120e9573d6000803e3d6000fd5b505050506040513d60208110156120ff57600080fd5b505110156105835760405162461bcd60e51b815260040180806020018281038252603d815260200180613648603d913960400191505060405180910390fd5b600080612149611005565b90506000612155610a9e565b9050866121715761216c828963ffffffff61203516565b612181565b612181828963ffffffff61230716565b91508461219d57612198818763ffffffff61203516565b6121ad565b6121ad818763ffffffff61230716565b905060006121bc8383876127fb565b9998505050505050505050565b6714d1120d7b1600008110156120325760405162461bcd60e51b81526004018080602001828103825260498152602001806135736049913960600191505060405180910390fd5b836001600160a01b03166338d995a8826040518263ffffffff1660e01b815260040180828152602001915050600060405180830381600087803b15801561225657600080fd5b505af115801561226a573d6000803e3d6000fd5b50505050826001600160a01b0316639dc29fac83836040518363ffffffff1660e01b815260040180836001600160a01b03166001600160a01b0316815260200182815260200192505050600060405180830381600087803b1580156122ce57600080fd5b505af11580156122e2573d6000803e3d6000fd5b5050505050505050565b60006109e482680ad78ebc5ac620000063ffffffff61230716565b600082820183811015612077576040805162461bcd60e51b815260206004820152601b60248201527f536166654d6174683a206164646974696f6e206f766572666c6f770000000000604482015290519081900360640190fd5b6001600160a01b0381166123bc576040805162461bcd60e51b815260206004820152601e60248201527f4163636f756e742063616e6e6f74206265207a65726f20616464726573730000604482015290519081900360640190fd5b803b80612410576040805162461bcd60e51b815260206004820181905260248201527f4163636f756e7420636f64652073697a652063616e6e6f74206265207a65726f604482015290519081900360640190fd5b5050565b6003546040516000916001600160a01b0316907f8be0079c531659141344cd1fd0a4f28419497f9722a3daafe3b4186f6b6457e0908390a3600380546001600160a01b0319169055565b60008061246a836130f2565b6714d1120d7b160000119392505050565b80156124cd57670de0b6b3a76400008211156124c85760405162461bcd60e51b81526004018080602001828103825260328152602001806134da6032913960400191505060405180910390fd5b612410565b6611c37937e0800082108015906124ec5750670de0b6b3a76400008211155b6124105760405162461bcd60e51b81526004018080602001828103825260308152602001806137746030913960400191505060405180910390fd5b6000826001600160a01b03166321e37801836040518263ffffffff1660e01b815260040180826001600160a01b03166001600160a01b0316815260200191505060206040518083038186803b15801561257f57600080fd5b505afa158015612593573d6000803e3d6000fd5b505050506040513d60208110156125a957600080fd5b505190506001811415610583576040805162461bcd60e51b815260206004820152601c60248201527f426f72726f7765724f70733a2054726f76652069732061637469766500000000604482015290519081900360640190fd5b6000846001600160a01b0316635dba4c4a6040518163ffffffff1660e01b8152600401600060405180830381600087803b15801561264057600080fd5b505af1158015612654573d6000803e3d6000fd5b505050506000856001600160a01b031663631203b0856040518263ffffffff1660e01b81526004018082815260200191505060206040518083038186803b15801561269e57600080fd5b505afa1580156126b2573d6000803e3d6000fd5b505050506040513d60208110156126c857600080fd5b505190506126d781858561311e565b60095460408051634677ffb360e01b81526004810184905290516001600160a01b0390921691634677ffb39160248082019260009290919082900301818387803b15801561272457600080fd5b505af1158015612738573d6000803e3d6000fd5b5050600a54604080516340c10f1960e01b81526001600160a01b03928316600482015260248101869052905191891693506340c10f19925060448082019260009290919082900301818387803b15801561279157600080fd5b505af11580156127a5573d6000803e3d6000fd5b509298975050505050505050565b686194049f30f72000008110156120325760405162461bcd60e51b815260040180806020018281038252603a8152602001806136ce603a913960400191505060405180910390fd5b6000821561282e57600061282584612819878663ffffffff61319316565b9063ffffffff6131ec16565b91506120779050565b506000199392505050565b600081156128655761285e826128198568056bc75e2d6310000063ffffffff61319316565b90506109e4565b506000196109e4565b6714d1120d7b1600008110156120325760405162461bcd60e51b81526004018080602001828103825260378152602001806134a36037913960400191505060405180910390fd5b670f43fc2c04ee00008110156120325760405162461bcd60e51b81526004018080602001828103825260498152602001806136856049913960600191505060405180910390fd5b600480546040805163a9059cbb60e01b81526001600160a01b0386811694820194909452602481018590529051929091169163a9059cbb916044808201926020929091908290030181600087803b15801561295657600080fd5b505af115801561296a573d6000803e3d6000fd5b505050506040513d602081101561298057600080fd5b505060408051632bac0bd960e11b81526004810183905290516001600160a01b0384169163575817b291602480830192600092919082900301818387803b1580156129ca57600080fd5b505af11580156129de573d6000803e3d6000fd5b505050505050565b846001600160a01b031663cfb9329a826040518263ffffffff1660e01b815260040180828152602001915050600060405180830381600087803b158015612a2c57600080fd5b505af1158015612a40573d6000803e3d6000fd5b50505050836001600160a01b03166340c10f1984846040518363ffffffff1660e01b815260040180836001600160a01b03166001600160a01b0316815260200182815260200192505050600060405180830381600087803b158015612aa457600080fd5b505af1158015612ab8573d6000803e3d6000fd5b505050505050505050565b6006546001600160a01b03163314612b0c5760405162461bcd60e51b815260040180806020018281038252602981526020018061374b6029913960400191505060405180910390fd5b565b600081116120325760405162461bcd60e51b81526004018080602001828103825260378152602001806137a46037913960400191505060405180910390fd5b801580612b58575081155b6124105760405162461bcd60e51b815260040180806020018281038252603081526020018061343a6030913960400191505060405180910390fd5b80151580612ba057508215155b80612baa57508115155b6105835760405162461bcd60e51b815260040180806020018281038252604681526020018061350c6046913960600191505060405180910390fd5b6000808315612bf957508290506001612bfd565b8291505b9250929050565b6000806000612c178a8a8a8a8a8a61322e565b915091506000612c288383876127fb565b9b9a5050505050505050505050565b8315612c7057612c4683613289565b8115612c6b57612c598160e0015161286e565b612c6b8160e001518260c001516132c6565b610996565b612c7d8160e001516128b5565b612c9a81602001518260600151836040015185856000015161213e565b6101008201819052610996906121c9565b60006109e482680ad78ebc5ac620000063ffffffff61203516565b612cdf82680ad78ebc5ac620000063ffffffff61203516565b8111156124105760405162461bcd60e51b81526004018080602001828103825260438152602001806137086043913960600191505060405180910390fd5b600080600085612db857886001600160a01b031663d3d6f84389896040518363ffffffff1660e01b815260040180836001600160a01b03166001600160a01b0316815260200182815260200192505050602060405180830381600087803b158015612d8757600080fd5b505af1158015612d9b573d6000803e3d6000fd5b505050506040513d6020811015612db157600080fd5b5051612e45565b886001600160a01b03166372423c1789896040518363ffffffff1660e01b815260040180836001600160a01b03166001600160a01b0316815260200182815260200192505050602060405180830381600087803b158015612e1857600080fd5b505af1158015612e2c573d6000803e3d6000fd5b505050506040513d6020811015612e4257600080fd5b50515b9050600084612edf57896001600160a01b03166312610e928a886040518363ffffffff1660e01b815260040180836001600160a01b03166001600160a01b0316815260200182815260200192505050602060405180830381600087803b158015612eae57600080fd5b505af1158015612ec2573d6000803e3d6000fd5b505050506040513d6020811015612ed857600080fd5b5051612f6c565b896001600160a01b0316639976cf458a886040518363ffffffff1660e01b815260040180836001600160a01b03166001600160a01b0316815260200182815260200192505050602060405180830381600087803b158015612f3f57600080fd5b505af1158015612f53573d6000803e3d6000fd5b505050506040513d6020811015612f6957600080fd5b50515b919a91995090975050505050505050565b6000806000612f9089898989898961322e565b915091506000612fa08383612839565b9a9950505050505050505050565b8115612fc657612fc188888886856129e6565b612fd2565b612fd288888886612210565b8315612fe757612fe288866128fc565b6122e2565b876001600160a01b03166364a197f387876040518363ffffffff1660e01b815260040180836001600160a01b03166001600160a01b0316815260200182815260200192505050600060405180830381600087803b15801561304757600080fd5b505af1158015611f1a573d6000803e3d6000fd5b600081848411156130ea5760405162461bcd60e51b81526004018080602001828103825283818151815260200191508051906020019080838360005b838110156130af578181015183820152602001613097565b50505050905090810190601f1680156130dc5780820380516001836020036101000a031916815260200191505b509250505060405180910390fd5b505050900390565b6000806130fd611005565b90506000613109610a9e565b90506131168282866127fb565b949350505050565b600061313c8361281986670de0b6b3a764000063ffffffff61319316565b905081811115610996576040805162461bcd60e51b815260206004820152601d60248201527f4665652065786365656465642070726f7669646564206d6178696d756d000000604482015290519081900360640190fd5b6000826131a2575060006109e4565b828202828482816131af57fe5b04146120775760405162461bcd60e51b81526004018080602001828103825260218152602001806135526021913960400191505060405180910390fd5b600061207783836040518060400160405280601a81526020017f536166654d6174683a206469766973696f6e206279207a65726f000000000000815250613305565b60008087878661324d576132488a8963ffffffff61203516565b61325d565b61325d8a8963ffffffff61230716565b91508461327957613274898763ffffffff61203516565b612f6c565b612f6c898763ffffffff61230716565b80156120325760405162461bcd60e51b815260040180806020018281038252603e81526020018061360a603e913960400191505060405180910390fd5b808210156124105760405162461bcd60e51b815260040180806020018281038252603e8152602001806137db603e913960400191505060405180910390fd5b600081836133545760405162461bcd60e51b81526020600482018181528351602484015283519092839260449091019190850190808383600083156130af578181015183820152602001613097565b50600083858161336057fe5b0495945050505050565b604080516060810182526000808252602082018190529181019190915290565b60405180610100016040528060008152602001600081526020016000815260200160008152602001600081526020016000815260200160008152602001600081525090565b604051806101a00160405280600081526020016000815260200160008152602001600015158152602001600081526020016000815260200160008152602001600081526020016000815260200160008152602001600081526020016000815260200160008152509056fe426f72726f7765724f7065726174696f6e733a2043616e6e6f7420776974686472617720616e642061646420636f6c6c426f72726f7765724f70733a204f7065726174696f6e206e6f74207065726d697474656420647572696e67205265636f76657279204d6f6465426f72726f7765724f70733a204f7065726174696f6e206d757374206c656176652074726f7665207769746820494352203e3d204343524d6178206665652070657263656e74616765206d757374206c657373207468616e206f7220657175616c20746f2031303025426f72726f7765724f70733a205468657265206d75737420626520656974686572206120636f6c6c61746572616c206368616e6765206f7220612064656274206368616e6765536166654d6174683a206d756c7469706c69636174696f6e206f766572666c6f77426f72726f7765724f70733a20416e206f7065726174696f6e207468617420776f756c6420726573756c7420696e20544352203c20434352206973206e6f74207065726d6974746564426f72726f7765724f70733a2054726f766520646f6573206e6f74206578697374206f7220697320636c6f736564c3770d654ed33aeea6bf11ac8ef05d02a6a04ed4686dd2f624d853bbec43cc8b426f72726f7765724f70733a20436f6c6c61746572616c207769746864726177616c206e6f74207065726d6974746564205265636f76657279204d6f6465426f72726f7765724f70733a2043616c6c657220646f65736e74206861766520656e6f756768204c55534420746f206d616b652072657061796d656e74426f72726f7765724f70733a20416e206f7065726174696f6e207468617420776f756c6420726573756c7420696e20494352203c204d4352206973206e6f74207065726d6974746564426f72726f7765724f70733a2054726f76652773206e65742064656274206d7573742062652067726561746572207468616e206d696e696d756d426f72726f7765724f70733a20416d6f756e7420726570616964206d757374206e6f74206265206c6172676572207468616e207468652054726f766527732064656274426f72726f7765724f70733a2043616c6c6572206973206e6f742053746162696c69747920506f6f6c4d6178206665652070657263656e74616765206d757374206265206265747765656e20302e352520616e642031303025426f72726f7765724f70733a204465627420696e637265617365207265717569726573206e6f6e2d7a65726f20646562744368616e6765426f72726f7765724f70733a2043616e6e6f7420646563726561736520796f75722054726f766527732049435220696e205265636f76657279204d6f6465a26469706673582212200a3eddb10fc57cee728084b3e767a9adf235a57f6cfdbfa56cacd025fe36c09664736f6c634300060b0033",
  "linkReferences": {},
  "deployedLinkReferences": {}
}