{
  "_format": "hh-sol-artifact-1",
  "contractName": "BorrowerOperationsTester",
  "sourceName": "contracts/TestContracts/BorrowerOperationsTester.sol",
  "abi": [
    {
      "anonymous": false,
      "inputs": [
        {
          "indexed": false,
          "internalType": "address",
          "name": "_activePoolAddress",
          "type": "address"
        }
      ],
      "name": "ActivePoolAddressChanged",
      "type": "event"
    },
    {
      "anonymous": false,
      "inputs": [
        {
          "indexed": false,
          "internalType": "address",
          "name": "_collSurplusPoolAddress",
          "type": "address"
        }
      ],
      "name": "CollSurplusPoolAddressChanged",
      "type": "event"
    },
    {
      "anonymous": false,
      "inputs": [
        {
          "indexed": false,
          "internalType": "address",
          "name": "_defaultPoolAddress",
          "type": "address"
        }
      ],
      "name": "DefaultPoolAddressChanged",
      "type": "event"
    },
    {
      "anonymous": false,
      "inputs": [
        {
          "indexed": false,
          "internalType": "address",
          "name": "_gasPoolAddress",
          "type": "address"
        }
      ],
      "name": "GasPoolAddressChanged",
      "type": "event"
    },
    {
      "anonymous": false,
      "inputs": [
        {
          "indexed": false,
          "internalType": "address",
          "name": "_lqtyStakingAddress",
          "type": "address"
        }
      ],
      "name": "LQTYStakingAddressChanged",
      "type": "event"
    },
    {
      "anonymous": false,
      "inputs": [
        {
          "indexed": true,
          "internalType": "address",
          "name": "_borrower",
          "type": "address"
        },
        {
          "indexed": false,
          "internalType": "uint256",
          "name": "_LUSDFee",
          "type": "uint256"
        }
      ],
      "name": "LUSDBorrowingFeePaid",
      "type": "event"
    },
    {
      "anonymous": false,
      "inputs": [
        {
          "indexed": false,
          "internalType": "address",
          "name": "_lusdTokenAddress",
          "type": "address"
        }
      ],
      "name": "LUSDTokenAddressChanged",
      "type": "event"
    },
    {
      "anonymous": false,
      "inputs": [
        {
          "indexed": true,
          "internalType": "address",
          "name": "previousOwner",
          "type": "address"
        },
        {
          "indexed": true,
          "internalType": "address",
          "name": "newOwner",
          "type": "address"
        }
      ],
      "name": "OwnershipTransferred",
      "type": "event"
    },
    {
      "anonymous": false,
      "inputs": [
        {
          "indexed": false,
          "internalType": "address",
          "name": "_newPriceFeedAddress",
          "type": "address"
        }
      ],
      "name": "PriceFeedAddressChanged",
      "type": "event"
    },
    {
      "anonymous": false,
      "inputs": [
        {
          "indexed": false,
          "internalType": "address",
          "name": "_sortedTrovesAddress",
          "type": "address"
        }
      ],
      "name": "SortedTrovesAddressChanged",
      "type": "event"
    },
    {
      "anonymous": false,
      "inputs": [
        {
          "indexed": false,
          "internalType": "address",
          "name": "_stabilityPoolAddress",
          "type": "address"
        }
      ],
      "name": "StabilityPoolAddressChanged",
      "type": "event"
    },
    {
      "anonymous": false,
      "inputs": [
        {
          "indexed": true,
          "internalType": "address",
          "name": "_borrower",
          "type": "address"
        },
        {
          "indexed": false,
          "internalType": "uint256",
          "name": "arrayIndex",
          "type": "uint256"
        }
      ],
      "name": "TroveCreated",
      "type": "event"
    },
    {
      "anonymous": false,
      "inputs": [
        {
          "indexed": false,
          "internalType": "address",
          "name": "_newTroveManagerAddress",
          "type": "address"
        }
      ],
      "name": "TroveManagerAddressChanged",
      "type": "event"
    },
    {
      "anonymous": false,
      "inputs": [
        {
          "indexed": true,
          "internalType": "address",
          "name": "_borrower",
          "type": "address"
        },
        {
          "indexed": false,
          "internalType": "uint256",
          "name": "_debt",
          "type": "uint256"
        },
        {
          "indexed": false,
          "internalType": "uint256",
          "name": "_coll",
          "type": "uint256"
        },
        {
          "indexed": false,
          "internalType": "uint256",
          "name": "stake",
          "type": "uint256"
        },
        {
          "indexed": false,
          "internalType": "enum BorrowerOperations.BorrowerOperation",
          "name": "operation",
          "type": "uint8"
        }
      ],
      "name": "TroveUpdated",
      "type": "event"
    },
    {
      "inputs": [],
      "name": "BORROWING_FEE_FLOOR",
      "outputs": [
        {
          "internalType": "uint256",
          "name": "",
          "type": "uint256"
        }
      ],
      "stateMutability": "view",
      "type": "function"
    },
    {
      "inputs": [],
      "name": "CCR",
      "outputs": [
        {
          "internalType": "uint256",
          "name": "",
          "type": "uint256"
        }
      ],
      "stateMutability": "view",
      "type": "function"
    },
    {
      "inputs": [],
      "name": "DECIMAL_PRECISION",
      "outputs": [
        {
          "internalType": "uint256",
          "name": "",
          "type": "uint256"
        }
      ],
      "stateMutability": "view",
      "type": "function"
    },
    {
      "inputs": [],
      "name": "LUSD_GAS_COMPENSATION",
      "outputs": [
        {
          "internalType": "uint256",
          "name": "",
          "type": "uint256"
        }
      ],
      "stateMutability": "view",
      "type": "function"
    },
    {
      "inputs": [],
      "name": "MCR",
      "outputs": [
        {
          "internalType": "uint256",
          "name": "",
          "type": "uint256"
        }
      ],
      "stateMutability": "view",
      "type": "function"
    },
    {
      "inputs": [],
      "name": "MIN_NET_DEBT",
      "outputs": [
        {
          "internalType": "uint256",
          "name": "",
          "type": "uint256"
        }
      ],
      "stateMutability": "view",
      "type": "function"
    },
    {
      "inputs": [],
      "name": "NAME",
      "outputs": [
        {
          "internalType": "string",
          "name": "",
          "type": "string"
        }
      ],
      "stateMutability": "view",
      "type": "function"
    },
    {
      "inputs": [],
      "name": "PERCENT_DIVISOR",
      "outputs": [
        {
          "internalType": "uint256",
          "name": "",
          "type": "uint256"
        }
      ],
      "stateMutability": "view",
      "type": "function"
    },
    {
      "inputs": [],
      "name": "_100pct",
      "outputs": [
        {
          "internalType": "uint256",
          "name": "",
          "type": "uint256"
        }
      ],
      "stateMutability": "view",
      "type": "function"
    },
    {
      "inputs": [],
      "name": "activePool",
      "outputs": [
        {
          "internalType": "contract IActivePool",
          "name": "",
          "type": "address"
        }
      ],
      "stateMutability": "view",
      "type": "function"
    },
    {
      "inputs": [
        {
          "internalType": "address",
          "name": "_upperHint",
          "type": "address"
        },
        {
          "internalType": "address",
          "name": "_lowerHint",
          "type": "address"
        },
        {
          "internalType": "uint256",
          "name": "amount",
          "type": "uint256"
        }
      ],
      "name": "addColl",
      "outputs": [],
      "stateMutability": "nonpayable",
      "type": "function"
    },
    {
      "inputs": [
        {
          "internalType": "uint256",
          "name": "_maxFeePercentage",
          "type": "uint256"
        },
        {
          "internalType": "uint256",
          "name": "_collWithdrawal",
          "type": "uint256"
        },
        {
          "internalType": "uint256",
          "name": "_LUSDChange",
          "type": "uint256"
        },
        {
          "internalType": "bool",
          "name": "_isDebtIncrease",
          "type": "bool"
        },
        {
          "internalType": "address",
          "name": "_upperHint",
          "type": "address"
        },
        {
          "internalType": "address",
          "name": "_lowerHint",
          "type": "address"
        },
        {
          "internalType": "uint256",
          "name": "amount",
          "type": "uint256"
        }
      ],
      "name": "adjustTrove",
      "outputs": [],
      "stateMutability": "nonpayable",
      "type": "function"
    },
    {
      "inputs": [
        {
          "internalType": "address",
          "name": "_borrower",
          "type": "address"
        },
        {
          "internalType": "uint256",
          "name": "_collWithdrawal",
          "type": "uint256"
        },
        {
          "internalType": "uint256",
          "name": "_debtChange",
          "type": "uint256"
        },
        {
          "internalType": "bool",
          "name": "_isDebtIncrease",
          "type": "bool"
        },
        {
          "internalType": "address",
          "name": "_upperHint",
          "type": "address"
        },
        {
          "internalType": "address",
          "name": "_lowerHint",
          "type": "address"
        }
      ],
      "name": "callInternalAdjustLoan",
      "outputs": [],
      "stateMutability": "nonpayable",
      "type": "function"
    },
    {
      "inputs": [],
      "name": "claimCollateral",
      "outputs": [],
      "stateMutability": "nonpayable",
      "type": "function"
    },
    {
      "inputs": [],
      "name": "closeTrove",
      "outputs": [],
      "stateMutability": "nonpayable",
      "type": "function"
    },
    {
      "inputs": [],
      "name": "defaultPool",
      "outputs": [
        {
          "internalType": "contract IDefaultPool",
          "name": "",
          "type": "address"
        }
      ],
      "stateMutability": "view",
      "type": "function"
    },
    {
      "inputs": [
        {
          "internalType": "uint256",
          "name": "_debt",
          "type": "uint256"
        }
      ],
      "name": "getCompositeDebt",
      "outputs": [
        {
          "internalType": "uint256",
          "name": "",
          "type": "uint256"
        }
      ],
      "stateMutability": "pure",
      "type": "function"
    },
    {
      "inputs": [],
      "name": "getEntireSystemColl",
      "outputs": [
        {
          "internalType": "uint256",
          "name": "entireSystemColl",
          "type": "uint256"
        }
      ],
      "stateMutability": "view",
      "type": "function"
    },
    {
      "inputs": [],
      "name": "getEntireSystemDebt",
      "outputs": [
        {
          "internalType": "uint256",
          "name": "entireSystemDebt",
          "type": "uint256"
        }
      ],
      "stateMutability": "view",
      "type": "function"
    },
    {
      "inputs": [
        {
          "internalType": "uint256",
          "name": "_coll",
          "type": "uint256"
        },
        {
          "internalType": "uint256",
          "name": "_debt",
          "type": "uint256"
        },
        {
          "internalType": "uint256",
          "name": "_collChange",
          "type": "uint256"
        },
        {
          "internalType": "bool",
          "name": "isCollIncrease",
          "type": "bool"
        },
        {
          "internalType": "uint256",
          "name": "_debtChange",
          "type": "uint256"
        },
        {
          "internalType": "bool",
          "name": "isDebtIncrease",
          "type": "bool"
        },
        {
          "internalType": "uint256",
          "name": "_price",
          "type": "uint256"
        }
      ],
      "name": "getNewICRFromTroveChange",
      "outputs": [
        {
          "internalType": "uint256",
          "name": "",
          "type": "uint256"
        }
      ],
      "stateMutability": "pure",
      "type": "function"
    },
    {
      "inputs": [
        {
          "internalType": "uint256",
          "name": "_collChange",
          "type": "uint256"
        },
        {
          "internalType": "bool",
          "name": "isCollIncrease",
          "type": "bool"
        },
        {
          "internalType": "uint256",
          "name": "_debtChange",
          "type": "uint256"
        },
        {
          "internalType": "bool",
          "name": "isDebtIncrease",
          "type": "bool"
        },
        {
          "internalType": "uint256",
          "name": "_price",
          "type": "uint256"
        }
      ],
      "name": "getNewTCRFromTroveChange",
      "outputs": [
        {
          "internalType": "uint256",
          "name": "",
          "type": "uint256"
        }
      ],
      "stateMutability": "view",
      "type": "function"
    },
    {
      "inputs": [
        {
          "internalType": "uint256",
          "name": "_coll",
          "type": "uint256"
        },
        {
          "internalType": "uint256",
          "name": "_price",
          "type": "uint256"
        }
      ],
      "name": "getUSDValue",
      "outputs": [
        {
          "internalType": "uint256",
          "name": "",
          "type": "uint256"
        }
      ],
      "stateMutability": "pure",
      "type": "function"
    },
    {
      "inputs": [],
      "name": "isOwner",
      "outputs": [
        {
          "internalType": "bool",
          "name": "",
          "type": "bool"
        }
      ],
      "stateMutability": "view",
      "type": "function"
    },
    {
      "inputs": [],
      "name": "lqtyStaking",
      "outputs": [
        {
          "internalType": "contract ILQTYStaking",
          "name": "",
          "type": "address"
        }
      ],
      "stateMutability": "view",
      "type": "function"
    },
    {
      "inputs": [],
      "name": "lqtyStakingAddress",
      "outputs": [
        {
          "internalType": "address",
          "name": "",
          "type": "address"
        }
      ],
      "stateMutability": "view",
      "type": "function"
    },
    {
      "inputs": [],
      "name": "lusdToken",
      "outputs": [
        {
          "internalType": "contract ILUSDToken",
          "name": "",
          "type": "address"
        }
      ],
      "stateMutability": "view",
      "type": "function"
    },
    {
      "inputs": [
        {
          "internalType": "address",
          "name": "_borrower",
          "type": "address"
        },
        {
          "internalType": "address",
          "name": "_upperHint",
          "type": "address"
        },
        {
          "internalType": "address",
          "name": "_lowerHint",
          "type": "address"
        },
        {
          "internalType": "uint256",
          "name": "amount",
          "type": "uint256"
        }
      ],
      "name": "moveETHGainToTrove",
      "outputs": [],
      "stateMutability": "nonpayable",
      "type": "function"
    },
    {
      "inputs": [
        {
          "internalType": "uint256",
          "name": "_maxFeePercentage",
          "type": "uint256"
        },
        {
          "internalType": "uint256",
          "name": "_LUSDAmount",
          "type": "uint256"
        },
        {
          "internalType": "address",
          "name": "_upperHint",
          "type": "address"
        },
        {
          "internalType": "address",
          "name": "_lowerHint",
          "type": "address"
        },
        {
          "internalType": "uint256",
          "name": "amount",
          "type": "uint256"
        }
      ],
      "name": "openTrove",
      "outputs": [],
      "stateMutability": "nonpayable",
      "type": "function"
    },
    {
      "inputs": [],
      "name": "owner",
      "outputs": [
        {
          "internalType": "address",
          "name": "",
          "type": "address"
        }
      ],
      "stateMutability": "view",
      "type": "function"
    },
    {
      "inputs": [],
      "name": "priceFeed",
      "outputs": [
        {
          "internalType": "contract IPriceFeed",
          "name": "",
          "type": "address"
        }
      ],
      "stateMutability": "view",
      "type": "function"
    },
    {
      "inputs": [
        {
          "internalType": "uint256",
          "name": "_LUSDAmount",
          "type": "uint256"
        },
        {
          "internalType": "address",
          "name": "_upperHint",
          "type": "address"
        },
        {
          "internalType": "address",
          "name": "_lowerHint",
          "type": "address"
        }
      ],
      "name": "repayLUSD",
      "outputs": [],
      "stateMutability": "nonpayable",
      "type": "function"
    },
    {
      "inputs": [
        {
          "internalType": "address",
          "name": "_troveManagerAddress",
          "type": "address"
        },
        {
          "internalType": "address",
          "name": "_activePoolAddress",
          "type": "address"
        },
        {
          "internalType": "address",
          "name": "_defaultPoolAddress",
          "type": "address"
        },
        {
          "internalType": "address",
          "name": "_stabilityPoolAddress",
          "type": "address"
        },
        {
          "internalType": "address",
          "name": "_gasPoolAddress",
          "type": "address"
        },
        {
          "internalType": "address",
          "name": "_collSurplusPoolAddress",
          "type": "address"
        },
        {
          "internalType": "address",
          "name": "_priceFeedAddress",
          "type": "address"
        },
        {
          "internalType": "address",
          "name": "_sortedTrovesAddress",
          "type": "address"
        },
        {
          "internalType": "address",
          "name": "_lusdTokenAddress",
          "type": "address"
        },
        {
          "internalType": "address",
          "name": "_lqtyStakingAddress",
          "type": "address"
        },
        {
          "internalType": "address",
          "name": "_stETHAddress",
          "type": "address"
        }
      ],
      "name": "setAddresses",
      "outputs": [],
      "stateMutability": "nonpayable",
      "type": "function"
    },
    {
      "inputs": [],
      "name": "sortedTroves",
      "outputs": [
        {
          "internalType": "contract ISortedTroves",
          "name": "",
          "type": "address"
        }
      ],
      "stateMutability": "view",
      "type": "function"
    },
    {
      "inputs": [],
      "name": "stETHAddress",
      "outputs": [
        {
          "internalType": "address",
          "name": "",
          "type": "address"
        }
      ],
      "stateMutability": "view",
      "type": "function"
    },
    {
      "inputs": [],
      "name": "troveManager",
      "outputs": [
        {
          "internalType": "contract ITroveManager",
          "name": "",
          "type": "address"
        }
      ],
      "stateMutability": "view",
      "type": "function"
    },
    {
      "inputs": [
        {
          "internalType": "uint256",
          "name": "_collWithdrawal",
          "type": "uint256"
        },
        {
          "internalType": "address",
          "name": "_upperHint",
          "type": "address"
        },
        {
          "internalType": "address",
          "name": "_lowerHint",
          "type": "address"
        }
      ],
      "name": "withdrawColl",
      "outputs": [],
      "stateMutability": "nonpayable",
      "type": "function"
    },
    {
      "inputs": [
        {
          "internalType": "uint256",
          "name": "_maxFeePercentage",
          "type": "uint256"
        },
        {
          "internalType": "uint256",
          "name": "_LUSDAmount",
          "type": "uint256"
        },
        {
          "internalType": "address",
          "name": "_upperHint",
          "type": "address"
        },
        {
          "internalType": "address",
          "name": "_lowerHint",
          "type": "address"
        }
      ],
      "name": "withdrawLUSD",
      "outputs": [],
      "stateMutability": "nonpayable",
      "type": "function"
    },
    {
      "stateMutability": "payable",
      "type": "receive"
    }
  ],
  "bytecode": "0x608060405234801561001057600080fd5b50600380546001600160a01b031916339081179091556040516000907f8be0079c531659141344cd1fd0a4f28419497f9722a3daafe3b4186f6b6457e0908290a3613bb9806100606000396000f3fe6080604052600436106101ee5760003560e01c8063794e5724116101135780638f32d59b116100ab578063ada50c9b1161006f578063ada50c9b146107cc578063ae918754146107e1578063b83f91a2146107f6578063e486a5681461080b578063f92d343314610854576101f5565b80638f32d59b146106a757806395a119e6146106d0578063a20baee61461049e578063a3a640171461072d578063a3f4df7e14610742576101f5565b8063794e5724146104dd578063795d26c3146104f25780637985c5e4146105075780637e88d408146105905780637f7dde4a146105d357806387eb305d146105e8578063887105d31461062e5780638da5cb5b146106435780638e6b3ac514610658576101f5565b80634ff81443116101865780634ff814431461038757806351584ca4146103b15780635530273c146104035780635733d58f146104445780636f0b0c1c146104595780636f30d2121461046e57806372fe25aa1461049e578063741bef1a146104b3578063761ab22c146104c8576101f5565b806304491fa7146101fa5780630e704d501461023d5780631184e5f8146102525780631bf43555146102995780632cdcd722146102c05780632e86bbd8146103175780633cc742251461032c5780633d83908a1461035d5780634870dd9a14610372576101f5565b366101f557005b600080fd5b34801561020657600080fd5b5061023b6004803603606081101561021d57600080fd5b508035906001600160a01b0360208201358116916040013516610869565b005b34801561024957600080fd5b5061023b610881565b34801561025e57600080fd5b5061023b6004803603608081101561027557600080fd5b508035906020810135906001600160a01b0360408201358116916060013516610c7c565b3480156102a557600080fd5b506102ae610c95565b60408051918252519081900360200190f35b3480156102cc57600080fd5b5061023b600480360360c08110156102e357600080fd5b506001600160a01b0381358116916020810135916040820135916060810135151591608082013581169160a0013516610ca2565b34801561032357600080fd5b506102ae610cbb565b34801561033857600080fd5b50610341610cc8565b604080516001600160a01b039092168252519081900360200190f35b34801561036957600080fd5b50610341610cd7565b34801561037e57600080fd5b506102ae610ce6565b34801561039357600080fd5b506102ae600480360360208110156103aa57600080fd5b5035610ceb565b3480156103bd57600080fd5b506102ae600480360360e08110156103d457600080fd5b50803590602081013590604081013590606081013515159060808101359060a081013515159060c00135610cfc565b34801561040f57600080fd5b5061023b6004803603606081101561042657600080fd5b508035906001600160a01b0360208201358116916040013516610d19565b34801561045057600080fd5b506102ae610d2b565b34801561046557600080fd5b5061023b610d37565b34801561047a57600080fd5b506102ae6004803603604081101561049157600080fd5b5080359060200135610d97565b3480156104aa57600080fd5b506102ae610daa565b3480156104bf57600080fd5b50610341610db6565b3480156104d457600080fd5b50610341610dc5565b3480156104e957600080fd5b506102ae610dd4565b3480156104fe57600080fd5b506102ae610de0565b34801561051357600080fd5b5061023b600480360361016081101561052b57600080fd5b506001600160a01b038135811691602081013582169160408201358116916060810135821691608082013581169160a081013582169160c082013581169160e08101358216916101008201358116916101208101358216916101409091013516610ee1565b34801561059c57600080fd5b5061023b600480360360608110156105b357600080fd5b506001600160a01b0381358116916020810135909116906040013561129f565b3480156105df57600080fd5b50610341611338565b3480156105f457600080fd5b506102ae600480360360a081101561060b57600080fd5b508035906020810135151590604081013590606081013515159060800135611347565b34801561063a57600080fd5b506102ae611360565b34801561064f57600080fd5b5061034161141c565b34801561066457600080fd5b5061023b600480360360a081101561067b57600080fd5b508035906020810135906001600160a01b0360408201358116916060810135909116906080013561142b565b3480156106b357600080fd5b506106bc611aea565b604080519115158252519081900360200190f35b3480156106dc57600080fd5b5061023b600480360360e08110156106f357600080fd5b5080359060208101359060408101359060608101351515906001600160a01b03608082013581169160a08101359091169060c00135611afb565b34801561073957600080fd5b50610341611ba2565b34801561074e57600080fd5b50610757611bb1565b6040805160208082528351818301528351919283929083019185019080838360005b83811015610791578181015183820152602001610779565b50505050905090810190601f1680156107be5780820380516001836020036101000a031916815260200191505b509250505060405180910390f35b3480156107d857600080fd5b50610341611bdf565b3480156107ed57600080fd5b50610341611bee565b34801561080257600080fd5b50610341611bfd565b34801561081757600080fd5b5061023b6004803603608081101561082e57600080fd5b506001600160a01b03813581169160208101358216916040820135169060600135611c0c565b34801561086057600080fd5b506102ae611c27565b61087c3360008560008686600080611c32565b505050565b600554600054600b546001600160a01b039283169291821691166108a58333612283565b60025460408051630fdb11cf60e01b815290516000926001600160a01b031691630fdb11cf91600480830192602092919082900301818787803b1580156108eb57600080fd5b505af11580156108ff573d6000803e3d6000fd5b505050506040513d602081101561091557600080fd5b5051905061092281612348565b60408051630b07655760e01b815233600482015290516001600160a01b03861691630b07655791602480830192600092919082900301818387803b15801561096957600080fd5b505af115801561097d573d6000803e3d6000fd5b5050604080516309019aaf60e31b81523360048201529051600093506001600160a01b038816925063480cd57891602480820192602092909190829003018186803b1580156109cb57600080fd5b505afa1580156109df573d6000803e3d6000fd5b505050506040513d60208110156109f557600080fd5b50516040805163d66a255360e01b815233600482015290519192506000916001600160a01b0388169163d66a2553916024808301926020929190829003018186803b158015610a4357600080fd5b505afa158015610a57573d6000803e3d6000fd5b505050506040513d6020811015610a6d57600080fd5b50519050610a948433610a8f84680ad78ebc5ac620000063ffffffff61239016565b6123d2565b6000610aa583600084600088612492565b9050610ab08161251d565b60408051631fc5750960e31b815233600482015290516001600160a01b0389169163fe2ba84891602480830192600092919082900301818387803b158015610af757600080fd5b505af1158015610b0b573d6000803e3d6000fd5b5050604080516365e89c5760e11b815233600482015290516001600160a01b038b16935063cbd138ae9250602480830192600092919082900301818387803b158015610b5657600080fd5b505af1158015610b6a573d6000803e3d6000fd5b50505050336001600160a01b03166000805160206139558339815191526000806000600160405180858152602001848152602001838152602001826002811115610bb057fe5b60ff16815260200194505050505060405180910390a2610bea868633610be586680ad78ebc5ac620000063ffffffff61239016565b612564565b600754610c0d90879087906001600160a01b0316680ad78ebc5ac6200000612564565b604080516364a197f360e01b81523360048201526024810185905290516001600160a01b038816916364a197f391604480830192600092919082900301818387803b158015610c5b57600080fd5b505af1158015610c6f573d6000803e3d6000fd5b5050505050505050505050565b610c8f33600085600186868a6000611c32565b50505050565b686194049f30f720000081565b610cb3868686868686600080611c32565b505050505050565b680ad78ebc5ac620000081565b6001546001600160a01b031681565b6005546001600160a01b031681565b60c881565b6000610cf682612640565b92915050565b6000610d0d8888888888888861265b565b98975050505050505050565b61087c33846000808686600080611c32565b6714d1120d7b16000081565b6008546040805163b32beb5b60e01b815233600482015290516001600160a01b039092169163b32beb5b9160248082019260009290919082900301818387803b158015610d8357600080fd5b505af1158015610c8f573d6000803e3d6000fd5b6000610da3838361268e565b9392505050565b670de0b6b3a764000081565b6002546001600160a01b031681565b600a546001600160a01b031681565b670f43fc2c04ee000081565b6000805460408051632f5a97e560e11b8152905183926001600160a01b031691635eb52fca916004808301926020929190829003018186803b158015610e2557600080fd5b505afa158015610e39573d6000803e3d6000fd5b505050506040513d6020811015610e4f57600080fd5b505160015460408051632f5a97e560e11b815290519293506000926001600160a01b0390921691635eb52fca91600480820192602092909190829003018186803b158015610e9c57600080fd5b505afa158015610eb0573d6000803e3d6000fd5b505050506040513d6020811015610ec657600080fd5b50519050610eda828263ffffffff6126c116565b9250505090565b610ee9611aea565b610f3a576040805162461bcd60e51b815260206004820181905260248201527f4f776e61626c653a2063616c6c6572206973206e6f7420746865206f776e6572604482015290519081900360640190fd5b610f438b61271b565b610f4c8a61271b565b610f558961271b565b610f5e8861271b565b610f678761271b565b610f708661271b565b610f798561271b565b610f828461271b565b610f8b8361271b565b610f948261271b565b610f9d8161271b565b600580546001600160a01b03199081166001600160a01b038e81169182179093556000805483168e85161790556001805483168d85161790556006805483168c85161790556007805483168b85161790556008805483168a8516179055600280548316898516179055600c80548316888516179055600b80548316878516179055600a8054831686851690811790915560098054841690911790556004805490921692841692909217905560408051918252517f143219c9e69b09e07e095fcc889b43d8f46ca892bba65f08dc3a0050869a5678916020908290030190a1604080516001600160a01b038c16815290517f78f058b189175430c48dc02699e3a0031ea4ff781536dc2fab847de4babdd8829181900360200190a1604080516001600160a01b038b16815290517f5ee0cae2f063ed938bb55046f6a932fb6ae792bf43624806bb90abe68a50be9b9181900360200190a1604080516001600160a01b038a16815290517f82966d27eea39b038ee0fa30cd16532bb24f6e65d31cb58fb227aa5766cdcc7f9181900360200190a1604080516001600160a01b038916815290517fcfb07d791fcafc032b35837b50eb84b74df518cf4cc287e8084f47630fa70fa09181900360200190a1604080516001600160a01b038816815290517fe67f36a6e961157d6eff83b91f3af5a62131ceb6f04954ef74f51c1c05e7f88d9181900360200190a1604080516001600160a01b038716815290517f8c537274438aa850a330284665d81a85dd38267d09e4050d416bfc94142db2649181900360200190a1604080516001600160a01b038616815290517f65f4cf077bc01e4742eb5ad98326f6e95b63548ea24b17f8d5e823111fe788009181900360200190a1604080516001600160a01b038516815290517f227eec0ec317af6ab1a9587ffa1c84332522eb4c583a908f89babc05f8f339bd9181900360200190a1604080516001600160a01b038416815290517f756ebc192164c295bba134b5aacd72cc7aff8098a670d1f0a5f6b3a0b4ce67079181900360200190a1610c6f6127ce565b60048054604080516323b872dd60e01b8152339381019390935230602484015260448301849052516001600160a01b03909116916323b872dd9160648083019260209291908290030181600087803b1580156112fa57600080fd5b505af115801561130e573d6000803e3d6000fd5b505050506040513d602081101561132457600080fd5b5061087c9050336000808087878288611c32565b6000546001600160a01b031681565b60006113568686868686612492565b9695505050505050565b6000805460408051630a7b61df60e11b8152905183926001600160a01b0316916314f6c3be916004808301926020929190829003018186803b1580156113a557600080fd5b505afa1580156113b9573d6000803e3d6000fd5b505050506040513d60208110156113cf57600080fd5b505160015460408051630a7b61df60e11b815290519293506000926001600160a01b03909216916314f6c3be91600480820192602092909190829003018186803b158015610e9c57600080fd5b6003546001600160a01b031690565b60048054604080516323b872dd60e01b8152339381019390935230602484015260448301849052516001600160a01b03909116916323b872dd9160648083019260209291908290030181600087803b15801561148657600080fd5b505af115801561149a573d6000803e3d6000fd5b505050506040513d60208110156114b057600080fd5b506114bb90506136d5565b50604080516060810182526005546001600160a01b03908116825260005481166020830152600b5416918101919091526114f36136f5565b600260009054906101000a90046001600160a01b03166001600160a01b0316630fdb11cf6040518163ffffffff1660e01b8152600401602060405180830381600087803b15801561154357600080fd5b505af1158015611557573d6000803e3d6000fd5b505050506040513d602081101561156d57600080fd5b505180825260009061157e90612818565b905061158a8882612835565b825161159690336128e1565b60408201879052806115d7576115b683600001518460400151898b6129bd565b6020830181905260408301516115d19163ffffffff6126c116565b60408301525b6115e48260400151612b6d565b6115f18260400151612640565b606083018190526115fe57fe5b6116118483606001518460000151612bb5565b60808301526060820151611626908590612be7565b60a083015280156116435761163e8260800151612c1c565b611676565b6116508260800151612c63565b6000611669856001856060015160018760000151612492565b90506116748161251d565b505b825160408051635d6b480f60e01b81523360048201526001602482015290516001600160a01b0390921691635d6b480f9160448082019260009290919082900301818387803b1580156116c857600080fd5b505af11580156116dc573d6000803e3d6000fd5b50508451604080516372423c1760e01b81523360048201526024810189905290516001600160a01b0390921693506372423c1792506044808201926020929091908290030181600087803b15801561173357600080fd5b505af1158015611747573d6000803e3d6000fd5b505050506040513d602081101561175d57600080fd5b50508251606083015160408051639976cf4560e01b81523360048201526024810192909252516001600160a01b0390921691639976cf45916044808201926020929091908290030181600087803b1580156117b757600080fd5b505af11580156117cb573d6000803e3d6000fd5b505050506040513d60208110156117e157600080fd5b50508251604080516382fe3eb960e01b815233600482015290516001600160a01b03909216916382fe3eb99160248082019260009290919082900301818387803b15801561182e57600080fd5b505af1158015611842573d6000803e3d6000fd5b5050845160408051630c7940bd60e11b815233600482015290516001600160a01b0390921693506318f2817a92506024808201926020929091908290030181600087803b15801561189257600080fd5b505af11580156118a6573d6000803e3d6000fd5b505050506040513d60208110156118bc57600080fd5b505160c0830152600c5460a0830151604080516346f7cf8760e01b815233600482015260248101929092526001600160a01b038981166044840152888116606484015290519216916346f7cf879160848082019260009290919082900301818387803b15801561192b57600080fd5b505af115801561193f573d6000803e3d6000fd5b50508451604080516315d549f160e01b815233600482015290516001600160a01b0390921693506315d549f192506024808201926020929091908290030181600087803b15801561198f57600080fd5b505af11580156119a3573d6000803e3d6000fd5b505050506040513d60208110156119b957600080fd5b505160e08301819052604080519182525133917f59cfd0cd754bc5748b6770e94a4ffa5f678d885cb899dcfadc5734edb97c67ab919081900360200190a2611a05836020015185612caa565b611a1e83602001518460400151338a8660400151612d8c565b60208301516040840151600754611a4a9291906001600160a01b0316680ad78ebc5ac620000080612d8c565b336001600160a01b03166000805160206139558339815191528360600151868560c00151600060405180858152602001848152602001838152602001826002811115611a9257fe5b60ff16815260200194505050505060405180910390a2602080830151604080519182525133927fa55c5f48fd29482ad55f4b59bf070cd1ac1a7132a31f7a136ebe8877ae37e1ff928290030190a25050505050505050565b6003546001600160a01b0316331490565b8015611b895760048054604080516323b872dd60e01b8152339381019390935230602484015260448301849052516001600160a01b03909116916323b872dd9160648083019260209291908290030181600087803b158015611b5c57600080fd5b505af1158015611b70573d6000803e3d6000fd5b505050506040513d6020811015611b8657600080fd5b50505b611b993387878787878d88611c32565b50505050505050565b6009546001600160a01b031681565b60405180604001604052806012815260200171426f72726f7765724f7065726174696f6e7360701b81525081565b6004546001600160a01b031681565b600c546001600160a01b031681565b600b546001600160a01b031681565b611c14612e69565b610c8f8460008060008787600088611c32565b6611c37937e0800081565b611c3a6136d5565b50604080516060810182526005546001600160a01b03908116825260005481166020830152600b541691810191909152611c7261373a565b600260009054906101000a90046001600160a01b03166001600160a01b0316630fdb11cf6040518163ffffffff1660e01b8152600401602060405180830381600087803b158015611cc257600080fd5b505af1158015611cd6573d6000803e3d6000fd5b505050506040513d6020811015611cec57600080fd5b5051808252600090611cfd90612818565b90508715611d1857611d0f8582612835565b611d1889612eb4565b611d228a85612ef3565b611d2d8a8a86612f39565b8251611d39908c612283565b336001600160a01b038c161480611d6f57506006546001600160a01b031633148015611d655750600084115b8015611d6f575088155b611d7557fe5b82600001516001600160a01b0316630b0765578c6040518263ffffffff1660e01b815260040180826001600160a01b03166001600160a01b03168152602001915050600060405180830381600087803b158015611dd157600080fd5b505af1158015611de5573d6000803e3d6000fd5b50505050611df3848b612f8b565b15156060840152602083015260408201899052878015611e11575080155b15611e4c57611e2a836000015184604001518b886129bd565b61012083018190526040830151611e469163ffffffff6126c116565b60408301525b82600001516001600160a01b031663d66a25538c6040518263ffffffff1660e01b815260040180826001600160a01b03166001600160a01b0316815260200191505060206040518083038186803b158015611ea657600080fd5b505afa158015611eba573d6000803e3d6000fd5b505050506040513d6020811015611ed057600080fd5b505160808301528251604080516309019aaf60e31b81526001600160a01b038e811660048301529151919092169163480cd578916024808301926020929190829003018186803b158015611f2357600080fd5b505afa158015611f37573d6000803e3d6000fd5b505050506040513d6020811015611f4d57600080fd5b505160a0830181905260808301518351611f68929190612bb5565b8260c0018181525050611f988260a0015183608001518460200151856060015186604001518d886000015161265b565b60e083015260a08201518a1115611fab57fe5b611fb7818b8a85612faa565b87158015611fc55750600089115b1561201857611ff3611fee8360400151611fe2856080015161301e565b9063ffffffff61239016565b612b6d565b61200582608001518360400151613039565b61201883604001518c84604001516123d2565b61203683600001518c8460200151856060015186604001518d613090565b610140840152610160830152825160408051630c7940bd60e11b81526001600160a01b038e81166004830152915191909216916318f2817a9160248083019260209291908290030181600087803b15801561209057600080fd5b505af11580156120a4573d6000803e3d6000fd5b505050506040513d60208110156120ba57600080fd5b505161018083015260a082015160808301516020840151606085015160408601516000946120ee949093909290918e6132f0565b9050600c60009054906101000a90046001600160a01b03166001600160a01b0316632be212608d838b8b6040518563ffffffff1660e01b815260040180856001600160a01b03166001600160a01b03168152602001848152602001836001600160a01b03166001600160a01b03168152602001826001600160a01b03166001600160a01b03168152602001945050505050600060405180830381600087803b15801561219957600080fd5b505af11580156121ad573d6000803e3d6000fd5b505050508b6001600160a01b031660008051602061395583398151915284610140015185610160015186610180015160026040518085815260200184815260200183815260200182600281111561220057fe5b60ff16815260200194505050505060405180910390a2610120830151604080519182525133917fa55c5f48fd29482ad55f4b59bf070cd1ac1a7132a31f7a136ebe8877ae37e1ff919081900360200190a26122758460200151856040015133866020015187606001518f8f8a60400151613321565b505050505050505050505050565b6000826001600160a01b03166321e37801836040518263ffffffff1660e01b815260040180826001600160a01b03166001600160a01b0316815260200191505060206040518083038186803b1580156122db57600080fd5b505afa1580156122ef573d6000803e3d6000fd5b505050506040513d602081101561230557600080fd5b505190506001811461087c5760405162461bcd60e51b815260040180806020018281038252602e815260200180613927602e913960400191505060405180910390fd5b61235181612818565b1561238d5760405162461bcd60e51b81526004018080602001828103825260398152602001806137d56039913960400191505060405180910390fd5b50565b6000610da383836040518060400160405280601e81526020017f536166654d6174683a207375627472616374696f6e206f766572666c6f7700008152506133ce565b80836001600160a01b03166370a08231846040518263ffffffff1660e01b815260040180826001600160a01b03166001600160a01b0316815260200191505060206040518083038186803b15801561242957600080fd5b505afa15801561243d573d6000803e3d6000fd5b505050506040513d602081101561245357600080fd5b5051101561087c5760405162461bcd60e51b815260040180806020018281038252603d8152602001806139b3603d913960400191505060405180910390fd5b60008061249d611360565b905060006124a9610de0565b9050866124c5576124c0828963ffffffff61239016565b6124d5565b6124d5828963ffffffff6126c116565b9150846124f1576124ec818763ffffffff61239016565b612501565b612501818763ffffffff6126c116565b90506000612510838387612bb5565b9998505050505050505050565b6714d1120d7b16000081101561238d5760405162461bcd60e51b81526004018080602001828103825260498152602001806138de6049913960600191505060405180910390fd5b836001600160a01b03166338d995a8826040518263ffffffff1660e01b815260040180828152602001915050600060405180830381600087803b1580156125aa57600080fd5b505af11580156125be573d6000803e3d6000fd5b50505050826001600160a01b0316639dc29fac83836040518363ffffffff1660e01b815260040180836001600160a01b03166001600160a01b0316815260200182815260200192505050600060405180830381600087803b15801561262257600080fd5b505af1158015612636573d6000803e3d6000fd5b5050505050505050565b6000610cf682680ad78ebc5ac620000063ffffffff6126c116565b600080600061266e8a8a8a8a8a8a613465565b91509150600061267f838387612bb5565b9b9a5050505050505050505050565b6000806126b9670de0b6b3a76400006126ad858763ffffffff6134c016565b9063ffffffff61351916565b949350505050565b600082820183811015610da3576040805162461bcd60e51b815260206004820152601b60248201527f536166654d6174683a206164646974696f6e206f766572666c6f770000000000604482015290519081900360640190fd5b6001600160a01b038116612776576040805162461bcd60e51b815260206004820152601e60248201527f4163636f756e742063616e6e6f74206265207a65726f20616464726573730000604482015290519081900360640190fd5b803b806127ca576040805162461bcd60e51b815260206004820181905260248201527f4163636f756e7420636f64652073697a652063616e6e6f74206265207a65726f604482015290519081900360640190fd5b5050565b6003546040516000916001600160a01b0316907f8be0079c531659141344cd1fd0a4f28419497f9722a3daafe3b4186f6b6457e0908390a3600380546001600160a01b0319169055565b6000806128248361355b565b6714d1120d7b160000119392505050565b801561288757670de0b6b3a76400008211156128825760405162461bcd60e51b81526004018080602001828103825260328152602001806138456032913960400191505060405180910390fd5b6127ca565b6611c37937e0800082108015906128a65750670de0b6b3a76400008211155b6127ca5760405162461bcd60e51b8152600401808060200182810382526030815260200180613adf6030913960400191505060405180910390fd5b6000826001600160a01b03166321e37801836040518263ffffffff1660e01b815260040180826001600160a01b03166001600160a01b0316815260200191505060206040518083038186803b15801561293957600080fd5b505afa15801561294d573d6000803e3d6000fd5b505050506040513d602081101561296357600080fd5b50519050600181141561087c576040805162461bcd60e51b815260206004820152601c60248201527f426f72726f7765724f70733a2054726f76652069732061637469766500000000604482015290519081900360640190fd5b6000846001600160a01b0316635dba4c4a6040518163ffffffff1660e01b8152600401600060405180830381600087803b1580156129fa57600080fd5b505af1158015612a0e573d6000803e3d6000fd5b505050506000856001600160a01b031663631203b0856040518263ffffffff1660e01b81526004018082815260200191505060206040518083038186803b158015612a5857600080fd5b505afa158015612a6c573d6000803e3d6000fd5b505050506040513d6020811015612a8257600080fd5b50519050612a9181858561357f565b60095460408051634677ffb360e01b81526004810184905290516001600160a01b0390921691634677ffb39160248082019260009290919082900301818387803b158015612ade57600080fd5b505af1158015612af2573d6000803e3d6000fd5b5050600a54604080516340c10f1960e01b81526001600160a01b03928316600482015260248101869052905191891693506340c10f19925060448082019260009290919082900301818387803b158015612b4b57600080fd5b505af1158015612b5f573d6000803e3d6000fd5b509298975050505050505050565b686194049f30f720000081101561238d5760405162461bcd60e51b815260040180806020018281038252603a815260200180613a39603a913960400191505060405180910390fd5b60008215612bdc576000612bd3846126ad878663ffffffff6134c016565b9150610da39050565b506000199392505050565b60008115612c1357612c0c826126ad8568056bc75e2d6310000063ffffffff6134c016565b9050610cf6565b50600019610cf6565b6714d1120d7b16000081101561238d5760405162461bcd60e51b815260040180806020018281038252603781526020018061380e6037913960400191505060405180910390fd5b670f43fc2c04ee000081101561238d5760405162461bcd60e51b81526004018080602001828103825260498152602001806139f06049913960600191505060405180910390fd5b600480546040805163a9059cbb60e01b81526001600160a01b0386811694820194909452602481018590529051929091169163a9059cbb916044808201926020929091908290030181600087803b158015612d0457600080fd5b505af1158015612d18573d6000803e3d6000fd5b505050506040513d6020811015612d2e57600080fd5b505060408051632bac0bd960e11b81526004810183905290516001600160a01b0384169163575817b291602480830192600092919082900301818387803b158015612d7857600080fd5b505af1158015610cb3573d6000803e3d6000fd5b846001600160a01b031663cfb9329a826040518263ffffffff1660e01b815260040180828152602001915050600060405180830381600087803b158015612dd257600080fd5b505af1158015612de6573d6000803e3d6000fd5b50505050836001600160a01b03166340c10f1984846040518363ffffffff1660e01b815260040180836001600160a01b03166001600160a01b0316815260200182815260200192505050600060405180830381600087803b158015612e4a57600080fd5b505af1158015612e5e573d6000803e3d6000fd5b505050505050505050565b6006546001600160a01b03163314612eb25760405162461bcd60e51b8152600401808060200182810382526029815260200180613ab66029913960400191505060405180910390fd5b565b6000811161238d5760405162461bcd60e51b8152600401808060200182810382526037815260200180613b0f6037913960400191505060405180910390fd5b801580612efe575081155b6127ca5760405162461bcd60e51b81526004018080602001828103825260308152602001806137a56030913960400191505060405180910390fd5b80151580612f4657508215155b80612f5057508115155b61087c5760405162461bcd60e51b81526004018080602001828103825260468152602001806138776046913960600191505060405180910390fd5b6000808315612f9f57508290506001612fa3565b8291505b9250929050565b8315612fe357612fb9836135f4565b8115612fde57612fcc8160e00151612c1c565b612fde8160e001518260c00151613631565b610c8f565b612ff08160e00151612c63565b61300d816020015182606001518360400151858560000151612492565b6101008201819052610c8f9061251d565b6000610cf682680ad78ebc5ac620000063ffffffff61239016565b61305282680ad78ebc5ac620000063ffffffff61239016565b8111156127ca5760405162461bcd60e51b8152600401808060200182810382526043815260200180613a736043913960600191505060405180910390fd5b60008060008561312b57886001600160a01b031663d3d6f84389896040518363ffffffff1660e01b815260040180836001600160a01b03166001600160a01b0316815260200182815260200192505050602060405180830381600087803b1580156130fa57600080fd5b505af115801561310e573d6000803e3d6000fd5b505050506040513d602081101561312457600080fd5b50516131b8565b886001600160a01b03166372423c1789896040518363ffffffff1660e01b815260040180836001600160a01b03166001600160a01b0316815260200182815260200192505050602060405180830381600087803b15801561318b57600080fd5b505af115801561319f573d6000803e3d6000fd5b505050506040513d60208110156131b557600080fd5b50515b905060008461325257896001600160a01b03166312610e928a886040518363ffffffff1660e01b815260040180836001600160a01b03166001600160a01b0316815260200182815260200192505050602060405180830381600087803b15801561322157600080fd5b505af1158015613235573d6000803e3d6000fd5b505050506040513d602081101561324b57600080fd5b50516132df565b896001600160a01b0316639976cf458a886040518363ffffffff1660e01b815260040180836001600160a01b03166001600160a01b0316815260200182815260200192505050602060405180830381600087803b1580156132b257600080fd5b505af11580156132c6573d6000803e3d6000fd5b505050506040513d60208110156132dc57600080fd5b50515b919a91995090975050505050505050565b6000806000613303898989898989613465565b9150915060006133138383612be7565b9a9950505050505050505050565b8115613339576133348888888685612d8c565b613345565b61334588888886612564565b831561335a576133558886612caa565b612636565b876001600160a01b03166364a197f387876040518363ffffffff1660e01b815260040180836001600160a01b03166001600160a01b0316815260200182815260200192505050600060405180830381600087803b1580156133ba57600080fd5b505af1158015612275573d6000803e3d6000fd5b6000818484111561345d5760405162461bcd60e51b81526004018080602001828103825283818151815260200191508051906020019080838360005b8381101561342257818101518382015260200161340a565b50505050905090810190601f16801561344f5780820380516001836020036101000a031916815260200191505b509250505060405180910390fd5b505050900390565b6000808787866134845761347f8a8963ffffffff61239016565b613494565b6134948a8963ffffffff6126c116565b9150846134b0576134ab898763ffffffff61239016565b6132df565b6132df898763ffffffff6126c116565b6000826134cf57506000610cf6565b828202828482816134dc57fe5b0414610da35760405162461bcd60e51b81526004018080602001828103825260218152602001806138bd6021913960400191505060405180910390fd5b6000610da383836040518060400160405280601a81526020017f536166654d6174683a206469766973696f6e206279207a65726f000000000000815250613670565b600080613566611360565b90506000613572610de0565b90506126b9828286612bb5565b600061359d836126ad86670de0b6b3a764000063ffffffff6134c016565b905081811115610c8f576040805162461bcd60e51b815260206004820152601d60248201527f4665652065786365656465642070726f7669646564206d6178696d756d000000604482015290519081900360640190fd5b801561238d5760405162461bcd60e51b815260040180806020018281038252603e815260200180613975603e913960400191505060405180910390fd5b808210156127ca5760405162461bcd60e51b815260040180806020018281038252603e815260200180613b46603e913960400191505060405180910390fd5b600081836136bf5760405162461bcd60e51b815260206004820181815283516024840152835190928392604490910191908501908083836000831561342257818101518382015260200161340a565b5060008385816136cb57fe5b0495945050505050565b604080516060810182526000808252602082018190529181019190915290565b60405180610100016040528060008152602001600081526020016000815260200160008152602001600081526020016000815260200160008152602001600081525090565b604051806101a00160405280600081526020016000815260200160008152602001600015158152602001600081526020016000815260200160008152602001600081526020016000815260200160008152602001600081526020016000815260200160008152509056fe426f72726f7765724f7065726174696f6e733a2043616e6e6f7420776974686472617720616e642061646420636f6c6c426f72726f7765724f70733a204f7065726174696f6e206e6f74207065726d697474656420647572696e67205265636f76657279204d6f6465426f72726f7765724f70733a204f7065726174696f6e206d757374206c656176652074726f7665207769746820494352203e3d204343524d6178206665652070657263656e74616765206d757374206c657373207468616e206f7220657175616c20746f2031303025426f72726f7765724f70733a205468657265206d75737420626520656974686572206120636f6c6c61746572616c206368616e6765206f7220612064656274206368616e6765536166654d6174683a206d756c7469706c69636174696f6e206f766572666c6f77426f72726f7765724f70733a20416e206f7065726174696f6e207468617420776f756c6420726573756c7420696e20544352203c20434352206973206e6f74207065726d6974746564426f72726f7765724f70733a2054726f766520646f6573206e6f74206578697374206f7220697320636c6f736564c3770d654ed33aeea6bf11ac8ef05d02a6a04ed4686dd2f624d853bbec43cc8b426f72726f7765724f70733a20436f6c6c61746572616c207769746864726177616c206e6f74207065726d6974746564205265636f76657279204d6f6465426f72726f7765724f70733a2043616c6c657220646f65736e74206861766520656e6f756768204c55534420746f206d616b652072657061796d656e74426f72726f7765724f70733a20416e206f7065726174696f6e207468617420776f756c6420726573756c7420696e20494352203c204d4352206973206e6f74207065726d6974746564426f72726f7765724f70733a2054726f76652773206e65742064656274206d7573742062652067726561746572207468616e206d696e696d756d426f72726f7765724f70733a20416d6f756e7420726570616964206d757374206e6f74206265206c6172676572207468616e207468652054726f766527732064656274426f72726f7765724f70733a2043616c6c6572206973206e6f742053746162696c69747920506f6f6c4d6178206665652070657263656e74616765206d757374206265206265747765656e20302e352520616e642031303025426f72726f7765724f70733a204465627420696e637265617365207265717569726573206e6f6e2d7a65726f20646562744368616e6765426f72726f7765724f70733a2043616e6e6f7420646563726561736520796f75722054726f766527732049435220696e205265636f76657279204d6f6465a26469706673582212203c59019967b581aa5dacfa3b896c684a5488f08e51d2e46b54f82c19262ba9e664736f6c634300060b0033",
  "linkReferences": {},
  "deployedLinkReferences": {}
}