{
  "_format": "hh-sol-artifact-1",
  "contractName": "DefaultPool",
  "sourceName": "contracts/DefaultPool.sol",
  "abi": [
    {
      "anonymous": false,
      "inputs": [
        {
          "indexed": false,
          "internalType": "address",
          "name": "_newActivePoolAddress",
          "type": "address"
        }
      ],
      "name": "ActivePoolAddressChanged",
      "type": "event"
    },
    {
      "anonymous": false,
      "inputs": [
        {
          "indexed": false,
          "internalType": "address",
          "name": "_newDefaultPoolAddress",
          "type": "address"
        }
      ],
      "name": "DefaultPoolAddressChanged",
      "type": "event"
    },
    {
      "anonymous": false,
      "inputs": [
        {
          "indexed": false,
          "internalType": "uint256",
          "name": "_ETH",
          "type": "uint256"
        }
      ],
      "name": "DefaultPoolETHBalanceUpdated",
      "type": "event"
    },
    {
      "anonymous": false,
      "inputs": [
        {
          "indexed": false,
          "internalType": "uint256",
          "name": "_LUSDDebt",
          "type": "uint256"
        }
      ],
      "name": "DefaultPoolLUSDDebtUpdated",
      "type": "event"
    },
    {
      "anonymous": false,
      "inputs": [
        {
          "indexed": false,
          "internalType": "uint256",
          "name": "_newBalance",
          "type": "uint256"
        }
      ],
      "name": "ETHBalanceUpdated",
      "type": "event"
    },
    {
      "anonymous": false,
      "inputs": [
        {
          "indexed": false,
          "internalType": "address",
          "name": "_to",
          "type": "address"
        },
        {
          "indexed": false,
          "internalType": "uint256",
          "name": "_amount",
          "type": "uint256"
        }
      ],
      "name": "EtherSent",
      "type": "event"
    },
    {
      "anonymous": false,
      "inputs": [
        {
          "indexed": false,
          "internalType": "uint256",
          "name": "_newBalance",
          "type": "uint256"
        }
      ],
      "name": "LUSDBalanceUpdated",
      "type": "event"
    },
    {
      "anonymous": false,
      "inputs": [
        {
          "indexed": true,
          "internalType": "address",
          "name": "previousOwner",
          "type": "address"
        },
        {
          "indexed": true,
          "internalType": "address",
          "name": "newOwner",
          "type": "address"
        }
      ],
      "name": "OwnershipTransferred",
      "type": "event"
    },
    {
      "anonymous": false,
      "inputs": [
        {
          "indexed": false,
          "internalType": "address",
          "name": "_newStabilityPoolAddress",
          "type": "address"
        }
      ],
      "name": "StabilityPoolAddressChanged",
      "type": "event"
    },
    {
      "anonymous": false,
      "inputs": [
        {
          "indexed": false,
          "internalType": "address",
          "name": "_newTroveManagerAddress",
          "type": "address"
        }
      ],
      "name": "TroveManagerAddressChanged",
      "type": "event"
    },
    {
      "inputs": [],
      "name": "NAME",
      "outputs": [
        {
          "internalType": "string",
          "name": "",
          "type": "string"
        }
      ],
      "stateMutability": "view",
      "type": "function"
    },
    {
      "inputs": [],
      "name": "activePoolAddress",
      "outputs": [
        {
          "internalType": "address",
          "name": "",
          "type": "address"
        }
      ],
      "stateMutability": "view",
      "type": "function"
    },
    {
      "inputs": [
        {
          "internalType": "uint256",
          "name": "amount",
          "type": "uint256"
        }
      ],
      "name": "addETH",
      "outputs": [],
      "stateMutability": "nonpayable",
      "type": "function"
    },
    {
      "inputs": [
        {
          "internalType": "uint256",
          "name": "_amount",
          "type": "uint256"
        }
      ],
      "name": "decreaseLUSDDebt",
      "outputs": [],
      "stateMutability": "nonpayable",
      "type": "function"
    },
    {
      "inputs": [],
      "name": "getETH",
      "outputs": [
        {
          "internalType": "uint256",
          "name": "",
          "type": "uint256"
        }
      ],
      "stateMutability": "view",
      "type": "function"
    },
    {
      "inputs": [],
      "name": "getLUSDDebt",
      "outputs": [
        {
          "internalType": "uint256",
          "name": "",
          "type": "uint256"
        }
      ],
      "stateMutability": "view",
      "type": "function"
    },
    {
      "inputs": [
        {
          "internalType": "uint256",
          "name": "_amount",
          "type": "uint256"
        }
      ],
      "name": "increaseLUSDDebt",
      "outputs": [],
      "stateMutability": "nonpayable",
      "type": "function"
    },
    {
      "inputs": [],
      "name": "isOwner",
      "outputs": [
        {
          "internalType": "bool",
          "name": "",
          "type": "bool"
        }
      ],
      "stateMutability": "view",
      "type": "function"
    },
    {
      "inputs": [],
      "name": "owner",
      "outputs": [
        {
          "internalType": "address",
          "name": "",
          "type": "address"
        }
      ],
      "stateMutability": "view",
      "type": "function"
    },
    {
      "inputs": [
        {
          "internalType": "uint256",
          "name": "_amount",
          "type": "uint256"
        }
      ],
      "name": "sendETHToActivePool",
      "outputs": [],
      "stateMutability": "nonpayable",
      "type": "function"
    },
    {
      "inputs": [
        {
          "internalType": "address",
          "name": "_troveManagerAddress",
          "type": "address"
        },
        {
          "internalType": "address",
          "name": "_activePoolAddress",
          "type": "address"
        },
        {
          "internalType": "address",
          "name": "_stETHAddress",
          "type": "address"
        }
      ],
      "name": "setAddresses",
      "outputs": [],
      "stateMutability": "nonpayable",
      "type": "function"
    },
    {
      "inputs": [],
      "name": "stETHAddress",
      "outputs": [
        {
          "internalType": "address",
          "name": "",
          "type": "address"
        }
      ],
      "stateMutability": "view",
      "type": "function"
    },
    {
      "inputs": [],
      "name": "troveManagerAddress",
      "outputs": [
        {
          "internalType": "address",
          "name": "",
          "type": "address"
        }
      ],
      "stateMutability": "view",
      "type": "function"
    }
  ],
  "bytecode": "0x608060405234801561001057600080fd5b50600080546001600160a01b0319163390811782556040519091907f8be0079c531659141344cd1fd0a4f28419497f9722a3daafe3b4186f6b6457e0908290a36109b88061005f6000396000f3fe608060405234801561001057600080fd5b50600436106100bf5760003560e01c80638da5cb5b1161007c5780638da5cb5b1461017e5780638f32d59b14610186578063a3f4df7e146101a2578063ada50c9b1461021f578063b08bc72214610227578063be41205f1461022f578063cfb9329a1461024c576100bf565b806314f6c3be146100c4578063363bf964146100de57806338d995a814610118578063575817b2146101355780635a4d28bb146101525780635eb52fca14610176575b600080fd5b6100cc610269565b60408051918252519081900360200190f35b610116600480360360608110156100f457600080fd5b506001600160a01b03813581169160208101358216916040909101351661026f565b005b6101166004803603602081101561012e57600080fd5b5035610399565b6101166004803603602081101561014b57600080fd5b50356103ee565b61015a610443565b604080516001600160a01b039092168252519081900360200190f35b6100cc610452565b61015a610458565b61018e610467565b604080519115158252519081900360200190f35b6101aa610478565b6040805160208082528351818301528351919283929083019185019080838360005b838110156101e45781810151838201526020016101cc565b50505050905090810190601f1680156102115780820380516001836020036101000a031916815260200191505b509250505060405180910390f35b61015a61049f565b61015a6104ae565b6101166004803603602081101561024557600080fd5b50356104bd565b6101166004803603602081101561026257600080fd5b5035610648565b60045490565b610277610467565b6102c8576040805162461bcd60e51b815260206004820181905260248201527f4f776e61626c653a2063616c6c6572206973206e6f7420746865206f776e6572604482015290519081900360640190fd5b6102d183610663565b6102da82610663565b6102e381610663565b600180546001600160a01b038086166001600160a01b0319928316811790935560028054868316908416179055600380549185169190921617905560408051918252517f143219c9e69b09e07e095fcc889b43d8f46ca892bba65f08dc3a0050869a56789181900360200190a1604080516001600160a01b038416815290517f78f058b189175430c48dc02699e3a0031ea4ff781536dc2fab847de4babdd8829181900360200190a1610394610716565b505050565b6103a1610760565b6005546103b4908263ffffffff6107ab16565b600581905560408051918252517f7735d8b9c0814a13884384c73ec31633f708b4b920b2158764c6b306541341259181900360200190a150565b6103f66107f4565b600454610409908263ffffffff61083d16565b600481905560408051918252517f9a14ae677a60400af9176bed2e2d5ce8dfa6405e6c1702debb27668f567214289181900360200190a150565b6001546001600160a01b031681565b60055490565b6000546001600160a01b031690565b6000546001600160a01b0316331490565b6040518060400160405280600b81526020016a111959985d5b1d141bdbdb60aa1b81525081565b6003546001600160a01b031681565b6002546001600160a01b031681565b6104c5610760565b6002546004546001600160a01b03909116906104e7908363ffffffff6107ab16565b600481905560408051918252517f9a14ae677a60400af9176bed2e2d5ce8dfa6405e6c1702debb27668f567214289181900360200190a1604080516001600160a01b03831681526020810184905281517f6109e2559dfa766aaec7118351d48a523f0a4157f49c8d68749c8ac41318ad12929181900390910190a16003546040805163a9059cbb60e01b81526001600160a01b038481166004830152602482018690529151919092169163a9059cbb9160448083019260209291908290030181600087803b1580156105b857600080fd5b505af11580156105cc573d6000803e3d6000fd5b505050506040513d60208110156105e257600080fd5b505060408051632bac0bd960e11b81526004810184905290516001600160a01b0383169163575817b291602480830192600092919082900301818387803b15801561062c57600080fd5b505af1158015610640573d6000803e3d6000fd5b505050505050565b610650610760565b6005546103b4908263ffffffff61083d16565b6001600160a01b0381166106be576040805162461bcd60e51b815260206004820152601e60248201527f4163636f756e742063616e6e6f74206265207a65726f20616464726573730000604482015290519081900360640190fd5b803b80610712576040805162461bcd60e51b815260206004820181905260248201527f4163636f756e7420636f64652073697a652063616e6e6f74206265207a65726f604482015290519081900360640190fd5b5050565b600080546040516001600160a01b03909116907f8be0079c531659141344cd1fd0a4f28419497f9722a3daafe3b4186f6b6457e0908390a3600080546001600160a01b0319169055565b6001546001600160a01b031633146107a95760405162461bcd60e51b815260040180806020018281038252602b815260200180610958602b913960400191505060405180910390fd5b565b60006107ed83836040518060400160405280601e81526020017f536166654d6174683a207375627472616374696f6e206f766572666c6f770000815250610897565b9392505050565b6002546001600160a01b031633146107a95760405162461bcd60e51b815260040180806020018281038252602981526020018061092f6029913960400191505060405180910390fd5b6000828201838110156107ed576040805162461bcd60e51b815260206004820152601b60248201527f536166654d6174683a206164646974696f6e206f766572666c6f770000000000604482015290519081900360640190fd5b600081848411156109265760405162461bcd60e51b81526004018080602001828103825283818151815260200191508051906020019080838360005b838110156108eb5781810151838201526020016108d3565b50505050905090810190601f1680156109185780820380516001836020036101000a031916815260200191505b509250505060405180910390fd5b50505090039056fe44656661756c74506f6f6c3a2043616c6c6572206973206e6f742074686520416374697665506f6f6c44656661756c74506f6f6c3a2043616c6c6572206973206e6f74207468652054726f76654d616e61676572a26469706673582212201e6c5ae7d5e17f5cbfefb795e2c6f3fc9060091ae31e5b4f8cf428977ce88c1d64736f6c634300060b0033",
  "linkReferences": {},
  "deployedLinkReferences": {}
}