{
  "_format": "hh-sol-artifact-1",
  "contractName": "ETHTransferScript",
  "sourceName": "contracts/Proxy/ETHTransferScript.sol",
  "abi": [
    {
      "inputs": [
        {
          "internalType": "address",
          "name": "_stETHAddress",
          "type": "address"
        }
      ],
      "stateMutability": "nonpayable",
      "type": "constructor"
    },
    {
      "inputs": [
        {
          "internalType": "address",
          "name": "_recipient",
          "type": "address"
        },
        {
          "internalType": "uint256",
          "name": "_amount",
          "type": "uint256"
        }
      ],
      "name": "transferETH",
      "outputs": [
        {
          "internalType": "bool",
          "name": "",
          "type": "bool"
        }
      ],
      "stateMutability": "nonpayable",
      "type": "function"
    }
  ],
  "bytecode": "0x60a060405234801561001057600080fd5b506040516101b43803806101b48339818101604052602081101561003357600080fd5b5051606081901b6001600160601b0319166080526001600160a01b031661014e61006660003980609c525061014e6000f3fe608060405234801561001057600080fd5b506004361061002b5760003560e01c80637b1a490914610030575b600080fd5b61005c6004803603604081101561004657600080fd5b506001600160a01b038135169060200135610070565b604080519115158252519081900360200190f35b6040805163a9059cbb60e01b81526001600160a01b0384811660048301526024820184905291516000927f0000000000000000000000000000000000000000000000000000000000000000169163a9059cbb91604480830192602092919082900301818787803b1580156100e357600080fd5b505af11580156100f7573d6000803e3d6000fd5b505050506040513d602081101561010d57600080fd5b50600194935050505056fea264697066735822122044643aa73c76c9e67c80a0cc44c5ba74b86e38a7d2a185d948bc962e5ea3b9f364736f6c634300060b0033",
  "linkReferences": {},
  "deployedLinkReferences": {}
}