{
  "_format": "hh-sol-artifact-1",
  "contractName": "LQTYStakingTester",
  "sourceName": "contracts/TestContracts/LQTYStakingTester.sol",
  "abi": [
    {
      "anonymous": false,
      "inputs": [
        {
          "indexed": false,
          "internalType": "address",
          "name": "_activePoolAddress",
          "type": "address"
        }
      ],
      "name": "ActivePoolAddressSet",
      "type": "event"
    },
    {
      "anonymous": false,
      "inputs": [
        {
          "indexed": false,
          "internalType": "address",
          "name": "_borrowerOperationsAddress",
          "type": "address"
        }
      ],
      "name": "BorrowerOperationsAddressSet",
      "type": "event"
    },
    {
      "anonymous": false,
      "inputs": [
        {
          "indexed": false,
          "internalType": "address",
          "name": "_account",
          "type": "address"
        },
        {
          "indexed": false,
          "internalType": "uint256",
          "name": "_amount",
          "type": "uint256"
        }
      ],
      "name": "EtherSent",
      "type": "event"
    },
    {
      "anonymous": false,
      "inputs": [
        {
          "indexed": false,
          "internalType": "uint256",
          "name": "_F_ETH",
          "type": "uint256"
        }
      ],
      "name": "F_ETHUpdated",
      "type": "event"
    },
    {
      "anonymous": false,
      "inputs": [
        {
          "indexed": false,
          "internalType": "uint256",
          "name": "_F_LUSD",
          "type": "uint256"
        }
      ],
      "name": "F_LUSDUpdated",
      "type": "event"
    },
    {
      "anonymous": false,
      "inputs": [
        {
          "indexed": false,
          "internalType": "address",
          "name": "_lqtyTokenAddress",
          "type": "address"
        }
      ],
      "name": "LQTYTokenAddressSet",
      "type": "event"
    },
    {
      "anonymous": false,
      "inputs": [
        {
          "indexed": false,
          "internalType": "address",
          "name": "_lusdTokenAddress",
          "type": "address"
        }
      ],
      "name": "LUSDTokenAddressSet",
      "type": "event"
    },
    {
      "anonymous": false,
      "inputs": [
        {
          "indexed": true,
          "internalType": "address",
          "name": "previousOwner",
          "type": "address"
        },
        {
          "indexed": true,
          "internalType": "address",
          "name": "newOwner",
          "type": "address"
        }
      ],
      "name": "OwnershipTransferred",
      "type": "event"
    },
    {
      "anonymous": false,
      "inputs": [
        {
          "indexed": true,
          "internalType": "address",
          "name": "staker",
          "type": "address"
        },
        {
          "indexed": false,
          "internalType": "uint256",
          "name": "newStake",
          "type": "uint256"
        }
      ],
      "name": "StakeChanged",
      "type": "event"
    },
    {
      "anonymous": false,
      "inputs": [
        {
          "indexed": false,
          "internalType": "address",
          "name": "_staker",
          "type": "address"
        },
        {
          "indexed": false,
          "internalType": "uint256",
          "name": "_F_ETH",
          "type": "uint256"
        },
        {
          "indexed": false,
          "internalType": "uint256",
          "name": "_F_LUSD",
          "type": "uint256"
        }
      ],
      "name": "StakerSnapshotsUpdated",
      "type": "event"
    },
    {
      "anonymous": false,
      "inputs": [
        {
          "indexed": true,
          "internalType": "address",
          "name": "staker",
          "type": "address"
        },
        {
          "indexed": false,
          "internalType": "uint256",
          "name": "LUSDGain",
          "type": "uint256"
        },
        {
          "indexed": false,
          "internalType": "uint256",
          "name": "ETHGain",
          "type": "uint256"
        }
      ],
      "name": "StakingGainsWithdrawn",
      "type": "event"
    },
    {
      "anonymous": false,
      "inputs": [
        {
          "indexed": false,
          "internalType": "uint256",
          "name": "_totalLQTYStaked",
          "type": "uint256"
        }
      ],
      "name": "TotalLQTYStakedUpdated",
      "type": "event"
    },
    {
      "anonymous": false,
      "inputs": [
        {
          "indexed": false,
          "internalType": "address",
          "name": "_troveManager",
          "type": "address"
        }
      ],
      "name": "TroveManagerAddressSet",
      "type": "event"
    },
    {
      "inputs": [],
      "name": "DECIMAL_PRECISION",
      "outputs": [
        {
          "internalType": "uint256",
          "name": "",
          "type": "uint256"
        }
      ],
      "stateMutability": "view",
      "type": "function"
    },
    {
      "inputs": [],
      "name": "F_ETH",
      "outputs": [
        {
          "internalType": "uint256",
          "name": "",
          "type": "uint256"
        }
      ],
      "stateMutability": "view",
      "type": "function"
    },
    {
      "inputs": [],
      "name": "F_LUSD",
      "outputs": [
        {
          "internalType": "uint256",
          "name": "",
          "type": "uint256"
        }
      ],
      "stateMutability": "view",
      "type": "function"
    },
    {
      "inputs": [],
      "name": "NAME",
      "outputs": [
        {
          "internalType": "string",
          "name": "",
          "type": "string"
        }
      ],
      "stateMutability": "view",
      "type": "function"
    },
    {
      "inputs": [],
      "name": "activePoolAddress",
      "outputs": [
        {
          "internalType": "address",
          "name": "",
          "type": "address"
        }
      ],
      "stateMutability": "view",
      "type": "function"
    },
    {
      "inputs": [],
      "name": "borrowerOperationsAddress",
      "outputs": [
        {
          "internalType": "address",
          "name": "",
          "type": "address"
        }
      ],
      "stateMutability": "view",
      "type": "function"
    },
    {
      "inputs": [
        {
          "internalType": "address",
          "name": "_user",
          "type": "address"
        }
      ],
      "name": "getPendingETHGain",
      "outputs": [
        {
          "internalType": "uint256",
          "name": "",
          "type": "uint256"
        }
      ],
      "stateMutability": "view",
      "type": "function"
    },
    {
      "inputs": [
        {
          "internalType": "address",
          "name": "_user",
          "type": "address"
        }
      ],
      "name": "getPendingLUSDGain",
      "outputs": [
        {
          "internalType": "uint256",
          "name": "",
          "type": "uint256"
        }
      ],
      "stateMutability": "view",
      "type": "function"
    },
    {
      "inputs": [
        {
          "internalType": "uint256",
          "name": "_ETHFee",
          "type": "uint256"
        }
      ],
      "name": "increaseF_ETH",
      "outputs": [],
      "stateMutability": "nonpayable",
      "type": "function"
    },
    {
      "inputs": [
        {
          "internalType": "uint256",
          "name": "_LUSDFee",
          "type": "uint256"
        }
      ],
      "name": "increaseF_LUSD",
      "outputs": [],
      "stateMutability": "nonpayable",
      "type": "function"
    },
    {
      "inputs": [],
      "name": "isOwner",
      "outputs": [
        {
          "internalType": "bool",
          "name": "",
          "type": "bool"
        }
      ],
      "stateMutability": "view",
      "type": "function"
    },
    {
      "inputs": [],
      "name": "lqtyToken",
      "outputs": [
        {
          "internalType": "contract ILQTYToken",
          "name": "",
          "type": "address"
        }
      ],
      "stateMutability": "view",
      "type": "function"
    },
    {
      "inputs": [],
      "name": "lusdToken",
      "outputs": [
        {
          "internalType": "contract ILUSDToken",
          "name": "",
          "type": "address"
        }
      ],
      "stateMutability": "view",
      "type": "function"
    },
    {
      "inputs": [],
      "name": "owner",
      "outputs": [
        {
          "internalType": "address",
          "name": "",
          "type": "address"
        }
      ],
      "stateMutability": "view",
      "type": "function"
    },
    {
      "inputs": [],
      "name": "requireCallerIsTroveManager",
      "outputs": [],
      "stateMutability": "view",
      "type": "function"
    },
    {
      "inputs": [
        {
          "internalType": "address",
          "name": "_lqtyTokenAddress",
          "type": "address"
        },
        {
          "internalType": "address",
          "name": "_lusdTokenAddress",
          "type": "address"
        },
        {
          "internalType": "address",
          "name": "_troveManagerAddress",
          "type": "address"
        },
        {
          "internalType": "address",
          "name": "_borrowerOperationsAddress",
          "type": "address"
        },
        {
          "internalType": "address",
          "name": "_activePoolAddress",
          "type": "address"
        },
        {
          "internalType": "address",
          "name": "_stETHAddress",
          "type": "address"
        }
      ],
      "name": "setAddresses",
      "outputs": [],
      "stateMutability": "nonpayable",
      "type": "function"
    },
    {
      "inputs": [
        {
          "internalType": "address",
          "name": "",
          "type": "address"
        }
      ],
      "name": "snapshots",
      "outputs": [
        {
          "internalType": "uint256",
          "name": "F_ETH_Snapshot",
          "type": "uint256"
        },
        {
          "internalType": "uint256",
          "name": "F_LUSD_Snapshot",
          "type": "uint256"
        }
      ],
      "stateMutability": "view",
      "type": "function"
    },
    {
      "inputs": [],
      "name": "stETHAddress",
      "outputs": [
        {
          "internalType": "address",
          "name": "",
          "type": "address"
        }
      ],
      "stateMutability": "view",
      "type": "function"
    },
    {
      "inputs": [
        {
          "internalType": "uint256",
          "name": "_LQTYamount",
          "type": "uint256"
        }
      ],
      "name": "stake",
      "outputs": [],
      "stateMutability": "nonpayable",
      "type": "function"
    },
    {
      "inputs": [
        {
          "internalType": "address",
          "name": "",
          "type": "address"
        }
      ],
      "name": "stakes",
      "outputs": [
        {
          "internalType": "uint256",
          "name": "",
          "type": "uint256"
        }
      ],
      "stateMutability": "view",
      "type": "function"
    },
    {
      "inputs": [],
      "name": "totalLQTYStaked",
      "outputs": [
        {
          "internalType": "uint256",
          "name": "",
          "type": "uint256"
        }
      ],
      "stateMutability": "view",
      "type": "function"
    },
    {
      "inputs": [],
      "name": "troveManagerAddress",
      "outputs": [
        {
          "internalType": "address",
          "name": "",
          "type": "address"
        }
      ],
      "stateMutability": "view",
      "type": "function"
    },
    {
      "inputs": [
        {
          "internalType": "uint256",
          "name": "_LQTYamount",
          "type": "uint256"
        }
      ],
      "name": "unstake",
      "outputs": [],
      "stateMutability": "nonpayable",
      "type": "function"
    },
    {
      "stateMutability": "payable",
      "type": "receive"
    }
  ],
  "bytecode": "0x608060405234801561001057600080fd5b50600080546001600160a01b0319163390811782556040519091907f8be0079c531659141344cd1fd0a4f28419497f9722a3daafe3b4186f6b6457e0908290a36115668061005f6000396000f3fe6080604052600436106101445760003560e01c80638b9345ad116100b6578063a694fc3a1161006f578063a694fc3a1461048a578063ada50c9b146104b4578063b08bc722146104c9578063b7f8cf9b146104de578063b83f91a2146104f3578063b9bbe00f1461050857610153565b80638b9345ad146103475780638da5cb5b1461037a5780638f32d59b1461038f5780639beab5c0146103b8578063a20baee6146103eb578063a3f4df7e1461040057610153565b806334b3081f1161010857806334b3081f146102375780633b95b91d146102835780634677ffb3146102985780635a4d28bb146102c257806369b83185146102d75780636cfb6bf9146102ec57610153565b8063077ee4c61461015857806316934fc41461017f5780631e3e2a1a146101b25780631f7af3c3146101dc5780632e17de781461020d57610153565b366101535761015161051d565b005b600080fd5b34801561016457600080fd5b5061016d610568565b60408051918252519081900360200190f35b34801561018b57600080fd5b5061016d600480360360208110156101a257600080fd5b50356001600160a01b031661056e565b3480156101be57600080fd5b50610151600480360360208110156101d557600080fd5b5035610580565b3480156101e857600080fd5b506101f161060f565b604080516001600160a01b039092168252519081900360200190f35b34801561021957600080fd5b506101516004803603602081101561023057600080fd5b503561061e565b34801561024357600080fd5b5061026a6004803603602081101561025a57600080fd5b50356001600160a01b0316610862565b6040805192835260208301919091528051918290030190f35b34801561028f57600080fd5b5061015161087b565b3480156102a457600080fd5b50610151600480360360208110156102bb57600080fd5b5035610883565b3480156102ce57600080fd5b506101f1610906565b3480156102e357600080fd5b5061016d610915565b3480156102f857600080fd5b50610151600480360360c081101561030f57600080fd5b506001600160a01b038135811691602081013582169160408201358116916060810135821691608082013581169160a001351661091b565b34801561035357600080fd5b5061016d6004803603602081101561036a57600080fd5b50356001600160a01b0316610b3e565b34801561038657600080fd5b506101f1610b4f565b34801561039b57600080fd5b506103a4610b5e565b604080519115158252519081900360200190f35b3480156103c457600080fd5b5061016d600480360360208110156103db57600080fd5b50356001600160a01b0316610b6f565b3480156103f757600080fd5b5061016d610b7a565b34801561040c57600080fd5b50610415610b86565b6040805160208082528351818301528351919283929083019185019080838360005b8381101561044f578181015183820152602001610437565b50505050905090810190601f16801561047c5780820380516001836020036101000a031916815260200191505b509250505060405180910390f35b34801561049657600080fd5b50610151600480360360208110156104ad57600080fd5b5035610bad565b3480156104c057600080fd5b506101f1610dd1565b3480156104d557600080fd5b506101f1610de0565b3480156104ea57600080fd5b506101f1610def565b3480156104ff57600080fd5b506101f1610dfe565b34801561051457600080fd5b5061016d610e0d565b600a546001600160a01b031633146105665760405162461bcd60e51b81526004018080602001828103825260258152602001806114eb6025913960400191505060405180910390fd5b565b60025481565b60016020526000908152604090205481565b610588610e13565b600254600090156105c1576002546105be906105b284670de0b6b3a764000063ffffffff610e5c16565b9063ffffffff610ebc16565b90505b6003546105d4908263ffffffff610efe16565b600381905560408051918252517f4c56a0cf74da9899410b818edf6758c8af9b7b3070da97d2dcb6a5b1bf96317e9181900360200190a15050565b6006546001600160a01b031681565b3360009081526001602052604090205461063781610f58565b600061064233610f9a565b9050600061064f33611007565b905061065a3361104a565b831561079857600061066c85856110bc565b90506000610680858363ffffffff6110d216565b3360009081526001602052604090208190556002549091506106a8908363ffffffff6110d216565b600281905560408051918252517f1fb085b6fe1998bfcd59bfb91fb9a84d3a3a8c63a97b2b5c43247235a5ca1df79181900360200190a16006546040805163a9059cbb60e01b81523360048201526024810185905290516001600160a01b039092169163a9059cbb916044808201926020929091908290030181600087803b15801561073357600080fd5b505af1158015610747573d6000803e3d6000fd5b505050506040513d602081101561075d57600080fd5b505060408051828152905133917f39df0e5286a3ef2f42a0bf52f32cfe2c58e5b0405f47fe512f2c2439e4cfe204919081900360200190a250505b6040805182815260208101849052815133927ff744d34ca1cb25acfa4180df5f09a67306107110a9f4b6ed99bb3be259738215928290030190a26007546040805163a9059cbb60e01b81523360048201526024810184905290516001600160a01b039092169163a9059cbb916044808201926020929091908290030181600087803b15801561082657600080fd5b505af115801561083a573d6000803e3d6000fd5b505050506040513d602081101561085057600080fd5b5061085c905082611114565b50505050565b6005602052600090815260409020805460019091015482565b610566610e13565b61088b6111d2565b600254600090156108b8576002546108b5906105b284670de0b6b3a764000063ffffffff610e5c16565b90505b6004546108cb908263ffffffff610efe16565b600481905560408051918252517fdc043c079acfe2ef669592e1598aa8f95877fa0ba0e91d06c214a9f73d3521f99181900360200190a15050565b6008546001600160a01b031681565b60045481565b610923610b5e565b610974576040805162461bcd60e51b815260206004820181905260248201527f4f776e61626c653a2063616c6c6572206973206e6f7420746865206f776e6572604482015290519081900360640190fd5b61097d8661121b565b6109868561121b565b61098f8461121b565b6109988361121b565b6109a18261121b565b6109aa8161121b565b600680546001600160a01b038089166001600160a01b03199283168117909355600780548983169084161790556008805488831690841617905560098054878316908416179055600a8054868316908416179055600b80549185169190921617905560408051918252517fb0c89119a7c10e4c2d02306921ba368ac83d0e4b302337916017485c2791bec59181900360200190a1604080516001600160a01b038716815290517fb0c89119a7c10e4c2d02306921ba368ac83d0e4b302337916017485c2791bec59181900360200190a1604080516001600160a01b038616815290517f41097dcc1f7cbd663d822443d7972f05b04f71918b30fe9fc59dd6e42e2280609181900360200190a1604080516001600160a01b038516815290517f5962f8af633c4df1ab230096f773a514ee5adf7785c621ecdcdb764cb7f6e3919181900360200190a1604080516001600160a01b038416815290517f8f6a6e7d20a3233e0a79883272259ffbd7a243734e397bc2b4642c79d7fa8a6d9181900360200190a1610b366112ce565b505050505050565b6000610b4982610f9a565b92915050565b6000546001600160a01b031690565b6000546001600160a01b0316331490565b6000610b4982611007565b670de0b6b3a764000081565b6040518060400160405280600b81526020016a4c5154595374616b696e6760a81b81525081565b610bb681611318565b3360009081526001602052604081205490808215610be557610bd733610f9a565b9150610be233611007565b90505b610bee3361104a565b6000610c00848663ffffffff610efe16565b336000908152600160205260409020819055600254909150610c28908663ffffffff610efe16565b600281905560408051918252517f1fb085b6fe1998bfcd59bfb91fb9a84d3a3a8c63a97b2b5c43247235a5ca1df79181900360200190a16006546040805163f3a2568b60e01b81523360048201526024810188905290516001600160a01b039092169163f3a2568b9160448082019260009290919082900301818387803b158015610cb257600080fd5b505af1158015610cc6573d6000803e3d6000fd5b50506040805184815290513393507f39df0e5286a3ef2f42a0bf52f32cfe2c58e5b0405f47fe512f2c2439e4cfe20492509081900360200190a26040805183815260208101859052815133927ff744d34ca1cb25acfa4180df5f09a67306107110a9f4b6ed99bb3be259738215928290030190a28315610dca576007546040805163a9059cbb60e01b81523360048201526024810185905290516001600160a01b039092169163a9059cbb916044808201926020929091908290030181600087803b158015610d9457600080fd5b505af1158015610da8573d6000803e3d6000fd5b505050506040513d6020811015610dbe57600080fd5b50610dca905083611114565b5050505050565b600b546001600160a01b031681565b600a546001600160a01b031681565b6009546001600160a01b031681565b6007546001600160a01b031681565b60035481565b6008546001600160a01b031633146105665760405162461bcd60e51b81526004018080602001828103825260218152602001806115106021913960400191505060405180910390fd5b600082610e6b57506000610b49565b82820282848281610e7857fe5b0414610eb55760405162461bcd60e51b81526004018080602001828103825260218152602001806114ca6021913960400191505060405180910390fd5b9392505050565b6000610eb583836040518060400160405280601a81526020017f536166654d6174683a206469766973696f6e206279207a65726f000000000000815250611357565b600082820183811015610eb5576040805162461bcd60e51b815260206004820152601b60248201527f536166654d6174683a206164646974696f6e206f766572666c6f770000000000604482015290519081900360640190fd5b60008111610f975760405162461bcd60e51b815260040180806020018281038252602c815260200180611478602c913960400191505060405180910390fd5b50565b6001600160a01b0381166000908152600560205260408120546003548290610fff90670de0b6b3a7640000906105b290610fda908663ffffffff6110d216565b6001600160a01b0388166000908152600160205260409020549063ffffffff610e5c16565b949350505050565b6001600160a01b0381166000908152600560205260408120600101546004548290610fff90670de0b6b3a7640000906105b290610fda908663ffffffff6110d216565b600380546001600160a01b038316600081815260056020908152604091829020938455600454600190940184905593548151928352938201939093528083019190915290517f6b5cf27595af4428271524e0a5abd2b63f6fee1a61e31970490f5a10e257a1cd9181900360600190a150565b60008183106110cb5781610eb5565b5090919050565b6000610eb583836040518060400160405280601e81526020017f536166654d6174683a207375627472616374696f6e206f766572666c6f7700008152506113f9565b604080513381526020810183905281517f6109e2559dfa766aaec7118351d48a523f0a4157f49c8d68749c8ac41318ad12929181900390910190a1600b546040805163a9059cbb60e01b81523360048201526024810184905290516001600160a01b039092169163a9059cbb916044808201926020929091908290030181600087803b1580156111a357600080fd5b505af11580156111b7573d6000803e3d6000fd5b505050506040513d60208110156111cd57600080fd5b505050565b6009546001600160a01b031633146105665760405162461bcd60e51b81526004018080602001828103825260268152602001806114a46026913960400191505060405180910390fd5b6001600160a01b038116611276576040805162461bcd60e51b815260206004820152601e60248201527f4163636f756e742063616e6e6f74206265207a65726f20616464726573730000604482015290519081900360640190fd5b803b806112ca576040805162461bcd60e51b815260206004820181905260248201527f4163636f756e7420636f64652073697a652063616e6e6f74206265207a65726f604482015290519081900360640190fd5b5050565b600080546040516001600160a01b03909116907f8be0079c531659141344cd1fd0a4f28419497f9722a3daafe3b4186f6b6457e0908390a3600080546001600160a01b0319169055565b60008111610f975760405162461bcd60e51b81526004018080602001828103825260248152602001806114546024913960400191505060405180910390fd5b600081836113e35760405162461bcd60e51b81526004018080602001828103825283818151815260200191508051906020019080838360005b838110156113a8578181015183820152602001611390565b50505050905090810190601f1680156113d55780820380516001836020036101000a031916815260200191505b509250505060405180910390fd5b5060008385816113ef57fe5b0495945050505050565b6000818484111561144b5760405162461bcd60e51b81526020600482018181528351602484015283519092839260449091019190850190808383600083156113a8578181015183820152602001611390565b50505090039056fe4c5154595374616b696e673a20416d6f756e74206d757374206265206e6f6e2d7a65726f4c5154595374616b696e673a2055736572206d75737420686176652061206e6f6e2d7a65726f207374616b654c5154595374616b696e673a2063616c6c6572206973206e6f7420426f72726f7765724f7073536166654d6174683a206d756c7469706c69636174696f6e206f766572666c6f774c5154595374616b696e673a2063616c6c6572206973206e6f7420416374697665506f6f6c4c5154595374616b696e673a2063616c6c6572206973206e6f742054726f76654da2646970667358221220db95cb10e188cca3f6aa0e6fc20c8e391598f96d915a193ae50226096f4f54d764736f6c634300060b0033",
  "linkReferences": {},
  "deployedLinkReferences": {}
}