{
  "_format": "hh-sol-artifact-1",
  "contractName": "StabilityPool",
  "sourceName": "contracts/StabilityPool.sol",
  "abi": [
    {
      "anonymous": false,
      "inputs": [
        {
          "indexed": false,
          "internalType": "address",
          "name": "_newActivePoolAddress",
          "type": "address"
        }
      ],
      "name": "ActivePoolAddressChanged",
      "type": "event"
    },
    {
      "anonymous": false,
      "inputs": [
        {
          "indexed": false,
          "internalType": "address",
          "name": "_newBorrowerOperationsAddress",
          "type": "address"
        }
      ],
      "name": "BorrowerOperationsAddressChanged",
      "type": "event"
    },
    {
      "anonymous": false,
      "inputs": [
        {
          "indexed": false,
          "internalType": "address",
          "name": "_newCommunityIssuanceAddress",
          "type": "address"
        }
      ],
      "name": "CommunityIssuanceAddressChanged",
      "type": "event"
    },
    {
      "anonymous": false,
      "inputs": [
        {
          "indexed": false,
          "internalType": "address",
          "name": "_newDefaultPoolAddress",
          "type": "address"
        }
      ],
      "name": "DefaultPoolAddressChanged",
      "type": "event"
    },
    {
      "anonymous": false,
      "inputs": [
        {
          "indexed": true,
          "internalType": "address",
          "name": "_depositor",
          "type": "address"
        },
        {
          "indexed": false,
          "internalType": "uint256",
          "name": "_P",
          "type": "uint256"
        },
        {
          "indexed": false,
          "internalType": "uint256",
          "name": "_S",
          "type": "uint256"
        },
        {
          "indexed": false,
          "internalType": "uint256",
          "name": "_G",
          "type": "uint256"
        }
      ],
      "name": "DepositSnapshotUpdated",
      "type": "event"
    },
    {
      "anonymous": false,
      "inputs": [
        {
          "indexed": true,
          "internalType": "address",
          "name": "_depositor",
          "type": "address"
        },
        {
          "indexed": false,
          "internalType": "uint256",
          "name": "_ETH",
          "type": "uint256"
        },
        {
          "indexed": false,
          "internalType": "uint256",
          "name": "_LUSDLoss",
          "type": "uint256"
        }
      ],
      "name": "ETHGainWithdrawn",
      "type": "event"
    },
    {
      "anonymous": false,
      "inputs": [
        {
          "indexed": false,
          "internalType": "uint128",
          "name": "_currentEpoch",
          "type": "uint128"
        }
      ],
      "name": "EpochUpdated",
      "type": "event"
    },
    {
      "anonymous": false,
      "inputs": [
        {
          "indexed": false,
          "internalType": "address",
          "name": "_to",
          "type": "address"
        },
        {
          "indexed": false,
          "internalType": "uint256",
          "name": "_amount",
          "type": "uint256"
        }
      ],
      "name": "EtherSent",
      "type": "event"
    },
    {
      "anonymous": false,
      "inputs": [
        {
          "indexed": true,
          "internalType": "address",
          "name": "_frontEnd",
          "type": "address"
        },
        {
          "indexed": false,
          "internalType": "uint256",
          "name": "_kickbackRate",
          "type": "uint256"
        }
      ],
      "name": "FrontEndRegistered",
      "type": "event"
    },
    {
      "anonymous": false,
      "inputs": [
        {
          "indexed": true,
          "internalType": "address",
          "name": "_frontEnd",
          "type": "address"
        },
        {
          "indexed": false,
          "internalType": "uint256",
          "name": "_P",
          "type": "uint256"
        },
        {
          "indexed": false,
          "internalType": "uint256",
          "name": "_G",
          "type": "uint256"
        }
      ],
      "name": "FrontEndSnapshotUpdated",
      "type": "event"
    },
    {
      "anonymous": false,
      "inputs": [
        {
          "indexed": true,
          "internalType": "address",
          "name": "_frontEnd",
          "type": "address"
        },
        {
          "indexed": false,
          "internalType": "uint256",
          "name": "_newFrontEndStake",
          "type": "uint256"
        },
        {
          "indexed": false,
          "internalType": "address",
          "name": "_depositor",
          "type": "address"
        }
      ],
      "name": "FrontEndStakeChanged",
      "type": "event"
    },
    {
      "anonymous": false,
      "inputs": [
        {
          "indexed": true,
          "internalType": "address",
          "name": "_depositor",
          "type": "address"
        },
        {
          "indexed": true,
          "internalType": "address",
          "name": "_frontEnd",
          "type": "address"
        }
      ],
      "name": "FrontEndTagSet",
      "type": "event"
    },
    {
      "anonymous": false,
      "inputs": [
        {
          "indexed": false,
          "internalType": "uint256",
          "name": "_G",
          "type": "uint256"
        },
        {
          "indexed": false,
          "internalType": "uint128",
          "name": "_epoch",
          "type": "uint128"
        },
        {
          "indexed": false,
          "internalType": "uint128",
          "name": "_scale",
          "type": "uint128"
        }
      ],
      "name": "G_Updated",
      "type": "event"
    },
    {
      "anonymous": false,
      "inputs": [
        {
          "indexed": true,
          "internalType": "address",
          "name": "_depositor",
          "type": "address"
        },
        {
          "indexed": false,
          "internalType": "uint256",
          "name": "_LQTY",
          "type": "uint256"
        }
      ],
      "name": "LQTYPaidToDepositor",
      "type": "event"
    },
    {
      "anonymous": false,
      "inputs": [
        {
          "indexed": true,
          "internalType": "address",
          "name": "_frontEnd",
          "type": "address"
        },
        {
          "indexed": false,
          "internalType": "uint256",
          "name": "_LQTY",
          "type": "uint256"
        }
      ],
      "name": "LQTYPaidToFrontEnd",
      "type": "event"
    },
    {
      "anonymous": false,
      "inputs": [
        {
          "indexed": false,
          "internalType": "address",
          "name": "_newLUSDTokenAddress",
          "type": "address"
        }
      ],
      "name": "LUSDTokenAddressChanged",
      "type": "event"
    },
    {
      "anonymous": false,
      "inputs": [
        {
          "indexed": true,
          "internalType": "address",
          "name": "previousOwner",
          "type": "address"
        },
        {
          "indexed": true,
          "internalType": "address",
          "name": "newOwner",
          "type": "address"
        }
      ],
      "name": "OwnershipTransferred",
      "type": "event"
    },
    {
      "anonymous": false,
      "inputs": [
        {
          "indexed": false,
          "internalType": "uint256",
          "name": "_P",
          "type": "uint256"
        }
      ],
      "name": "P_Updated",
      "type": "event"
    },
    {
      "anonymous": false,
      "inputs": [
        {
          "indexed": false,
          "internalType": "address",
          "name": "_newPriceFeedAddress",
          "type": "address"
        }
      ],
      "name": "PriceFeedAddressChanged",
      "type": "event"
    },
    {
      "anonymous": false,
      "inputs": [
        {
          "indexed": false,
          "internalType": "uint256",
          "name": "_S",
          "type": "uint256"
        },
        {
          "indexed": false,
          "internalType": "uint128",
          "name": "_epoch",
          "type": "uint128"
        },
        {
          "indexed": false,
          "internalType": "uint128",
          "name": "_scale",
          "type": "uint128"
        }
      ],
      "name": "S_Updated",
      "type": "event"
    },
    {
      "anonymous": false,
      "inputs": [
        {
          "indexed": false,
          "internalType": "uint128",
          "name": "_currentScale",
          "type": "uint128"
        }
      ],
      "name": "ScaleUpdated",
      "type": "event"
    },
    {
      "anonymous": false,
      "inputs": [
        {
          "indexed": false,
          "internalType": "address",
          "name": "_newSortedTrovesAddress",
          "type": "address"
        }
      ],
      "name": "SortedTrovesAddressChanged",
      "type": "event"
    },
    {
      "anonymous": false,
      "inputs": [
        {
          "indexed": false,
          "internalType": "uint256",
          "name": "_newBalance",
          "type": "uint256"
        }
      ],
      "name": "StabilityPoolETHBalanceUpdated",
      "type": "event"
    },
    {
      "anonymous": false,
      "inputs": [
        {
          "indexed": false,
          "internalType": "uint256",
          "name": "_newBalance",
          "type": "uint256"
        }
      ],
      "name": "StabilityPoolLUSDBalanceUpdated",
      "type": "event"
    },
    {
      "anonymous": false,
      "inputs": [
        {
          "indexed": false,
          "internalType": "address",
          "name": "_newTroveManagerAddress",
          "type": "address"
        }
      ],
      "name": "TroveManagerAddressChanged",
      "type": "event"
    },
    {
      "anonymous": false,
      "inputs": [
        {
          "indexed": true,
          "internalType": "address",
          "name": "_depositor",
          "type": "address"
        },
        {
          "indexed": false,
          "internalType": "uint256",
          "name": "_newDeposit",
          "type": "uint256"
        }
      ],
      "name": "UserDepositChanged",
      "type": "event"
    },
    {
      "inputs": [],
      "name": "BORROWING_FEE_FLOOR",
      "outputs": [
        {
          "internalType": "uint256",
          "name": "",
          "type": "uint256"
        }
      ],
      "stateMutability": "view",
      "type": "function"
    },
    {
      "inputs": [],
      "name": "CCR",
      "outputs": [
        {
          "internalType": "uint256",
          "name": "",
          "type": "uint256"
        }
      ],
      "stateMutability": "view",
      "type": "function"
    },
    {
      "inputs": [],
      "name": "DECIMAL_PRECISION",
      "outputs": [
        {
          "internalType": "uint256",
          "name": "",
          "type": "uint256"
        }
      ],
      "stateMutability": "view",
      "type": "function"
    },
    {
      "inputs": [],
      "name": "LUSD_GAS_COMPENSATION",
      "outputs": [
        {
          "internalType": "uint256",
          "name": "",
          "type": "uint256"
        }
      ],
      "stateMutability": "view",
      "type": "function"
    },
    {
      "inputs": [],
      "name": "MCR",
      "outputs": [
        {
          "internalType": "uint256",
          "name": "",
          "type": "uint256"
        }
      ],
      "stateMutability": "view",
      "type": "function"
    },
    {
      "inputs": [],
      "name": "MIN_NET_DEBT",
      "outputs": [
        {
          "internalType": "uint256",
          "name": "",
          "type": "uint256"
        }
      ],
      "stateMutability": "view",
      "type": "function"
    },
    {
      "inputs": [],
      "name": "NAME",
      "outputs": [
        {
          "internalType": "string",
          "name": "",
          "type": "string"
        }
      ],
      "stateMutability": "view",
      "type": "function"
    },
    {
      "inputs": [],
      "name": "P",
      "outputs": [
        {
          "internalType": "uint256",
          "name": "",
          "type": "uint256"
        }
      ],
      "stateMutability": "view",
      "type": "function"
    },
    {
      "inputs": [],
      "name": "PERCENT_DIVISOR",
      "outputs": [
        {
          "internalType": "uint256",
          "name": "",
          "type": "uint256"
        }
      ],
      "stateMutability": "view",
      "type": "function"
    },
    {
      "inputs": [],
      "name": "SCALE_FACTOR",
      "outputs": [
        {
          "internalType": "uint256",
          "name": "",
          "type": "uint256"
        }
      ],
      "stateMutability": "view",
      "type": "function"
    },
    {
      "inputs": [],
      "name": "_100pct",
      "outputs": [
        {
          "internalType": "uint256",
          "name": "",
          "type": "uint256"
        }
      ],
      "stateMutability": "view",
      "type": "function"
    },
    {
      "inputs": [],
      "name": "activePool",
      "outputs": [
        {
          "internalType": "contract IActivePool",
          "name": "",
          "type": "address"
        }
      ],
      "stateMutability": "view",
      "type": "function"
    },
    {
      "inputs": [
        {
          "internalType": "uint256",
          "name": "amount",
          "type": "uint256"
        }
      ],
      "name": "addETH",
      "outputs": [],
      "stateMutability": "nonpayable",
      "type": "function"
    },
    {
      "inputs": [],
      "name": "borrowerOperations",
      "outputs": [
        {
          "internalType": "contract IBorrowerOperations",
          "name": "",
          "type": "address"
        }
      ],
      "stateMutability": "view",
      "type": "function"
    },
    {
      "inputs": [],
      "name": "communityIssuance",
      "outputs": [
        {
          "internalType": "contract ICommunityIssuance",
          "name": "",
          "type": "address"
        }
      ],
      "stateMutability": "view",
      "type": "function"
    },
    {
      "inputs": [],
      "name": "currentEpoch",
      "outputs": [
        {
          "internalType": "uint128",
          "name": "",
          "type": "uint128"
        }
      ],
      "stateMutability": "view",
      "type": "function"
    },
    {
      "inputs": [],
      "name": "currentScale",
      "outputs": [
        {
          "internalType": "uint128",
          "name": "",
          "type": "uint128"
        }
      ],
      "stateMutability": "view",
      "type": "function"
    },
    {
      "inputs": [],
      "name": "defaultPool",
      "outputs": [
        {
          "internalType": "contract IDefaultPool",
          "name": "",
          "type": "address"
        }
      ],
      "stateMutability": "view",
      "type": "function"
    },
    {
      "inputs": [
        {
          "internalType": "address",
          "name": "",
          "type": "address"
        }
      ],
      "name": "depositSnapshots",
      "outputs": [
        {
          "internalType": "uint256",
          "name": "S",
          "type": "uint256"
        },
        {
          "internalType": "uint256",
          "name": "P",
          "type": "uint256"
        },
        {
          "internalType": "uint256",
          "name": "G",
          "type": "uint256"
        },
        {
          "internalType": "uint128",
          "name": "scale",
          "type": "uint128"
        },
        {
          "internalType": "uint128",
          "name": "epoch",
          "type": "uint128"
        }
      ],
      "stateMutability": "view",
      "type": "function"
    },
    {
      "inputs": [
        {
          "internalType": "address",
          "name": "",
          "type": "address"
        }
      ],
      "name": "deposits",
      "outputs": [
        {
          "internalType": "uint256",
          "name": "initialValue",
          "type": "uint256"
        },
        {
          "internalType": "address",
          "name": "frontEndTag",
          "type": "address"
        }
      ],
      "stateMutability": "view",
      "type": "function"
    },
    {
      "inputs": [
        {
          "internalType": "uint128",
          "name": "",
          "type": "uint128"
        },
        {
          "internalType": "uint128",
          "name": "",
          "type": "uint128"
        }
      ],
      "name": "epochToScaleToG",
      "outputs": [
        {
          "internalType": "uint256",
          "name": "",
          "type": "uint256"
        }
      ],
      "stateMutability": "view",
      "type": "function"
    },
    {
      "inputs": [
        {
          "internalType": "uint128",
          "name": "",
          "type": "uint128"
        },
        {
          "internalType": "uint128",
          "name": "",
          "type": "uint128"
        }
      ],
      "name": "epochToScaleToSum",
      "outputs": [
        {
          "internalType": "uint256",
          "name": "",
          "type": "uint256"
        }
      ],
      "stateMutability": "view",
      "type": "function"
    },
    {
      "inputs": [
        {
          "internalType": "address",
          "name": "",
          "type": "address"
        }
      ],
      "name": "frontEndSnapshots",
      "outputs": [
        {
          "internalType": "uint256",
          "name": "S",
          "type": "uint256"
        },
        {
          "internalType": "uint256",
          "name": "P",
          "type": "uint256"
        },
        {
          "internalType": "uint256",
          "name": "G",
          "type": "uint256"
        },
        {
          "internalType": "uint128",
          "name": "scale",
          "type": "uint128"
        },
        {
          "internalType": "uint128",
          "name": "epoch",
          "type": "uint128"
        }
      ],
      "stateMutability": "view",
      "type": "function"
    },
    {
      "inputs": [
        {
          "internalType": "address",
          "name": "",
          "type": "address"
        }
      ],
      "name": "frontEndStakes",
      "outputs": [
        {
          "internalType": "uint256",
          "name": "",
          "type": "uint256"
        }
      ],
      "stateMutability": "view",
      "type": "function"
    },
    {
      "inputs": [
        {
          "internalType": "address",
          "name": "",
          "type": "address"
        }
      ],
      "name": "frontEnds",
      "outputs": [
        {
          "internalType": "uint256",
          "name": "kickbackRate",
          "type": "uint256"
        },
        {
          "internalType": "bool",
          "name": "registered",
          "type": "bool"
        }
      ],
      "stateMutability": "view",
      "type": "function"
    },
    {
      "inputs": [
        {
          "internalType": "address",
          "name": "_frontEnd",
          "type": "address"
        }
      ],
      "name": "getCompoundedFrontEndStake",
      "outputs": [
        {
          "internalType": "uint256",
          "name": "",
          "type": "uint256"
        }
      ],
      "stateMutability": "view",
      "type": "function"
    },
    {
      "inputs": [
        {
          "internalType": "address",
          "name": "_depositor",
          "type": "address"
        }
      ],
      "name": "getCompoundedLUSDDeposit",
      "outputs": [
        {
          "internalType": "uint256",
          "name": "",
          "type": "uint256"
        }
      ],
      "stateMutability": "view",
      "type": "function"
    },
    {
      "inputs": [
        {
          "internalType": "address",
          "name": "_depositor",
          "type": "address"
        }
      ],
      "name": "getDepositorETHGain",
      "outputs": [
        {
          "internalType": "uint256",
          "name": "",
          "type": "uint256"
        }
      ],
      "stateMutability": "view",
      "type": "function"
    },
    {
      "inputs": [
        {
          "internalType": "address",
          "name": "_depositor",
          "type": "address"
        }
      ],
      "name": "getDepositorLQTYGain",
      "outputs": [
        {
          "internalType": "uint256",
          "name": "",
          "type": "uint256"
        }
      ],
      "stateMutability": "view",
      "type": "function"
    },
    {
      "inputs": [],
      "name": "getETH",
      "outputs": [
        {
          "internalType": "uint256",
          "name": "",
          "type": "uint256"
        }
      ],
      "stateMutability": "view",
      "type": "function"
    },
    {
      "inputs": [],
      "name": "getEntireSystemColl",
      "outputs": [
        {
          "internalType": "uint256",
          "name": "entireSystemColl",
          "type": "uint256"
        }
      ],
      "stateMutability": "view",
      "type": "function"
    },
    {
      "inputs": [],
      "name": "getEntireSystemDebt",
      "outputs": [
        {
          "internalType": "uint256",
          "name": "entireSystemDebt",
          "type": "uint256"
        }
      ],
      "stateMutability": "view",
      "type": "function"
    },
    {
      "inputs": [
        {
          "internalType": "address",
          "name": "_frontEnd",
          "type": "address"
        }
      ],
      "name": "getFrontEndLQTYGain",
      "outputs": [
        {
          "internalType": "uint256",
          "name": "",
          "type": "uint256"
        }
      ],
      "stateMutability": "view",
      "type": "function"
    },
    {
      "inputs": [],
      "name": "getTotalLUSDDeposits",
      "outputs": [
        {
          "internalType": "uint256",
          "name": "",
          "type": "uint256"
        }
      ],
      "stateMutability": "view",
      "type": "function"
    },
    {
      "inputs": [],
      "name": "isOwner",
      "outputs": [
        {
          "internalType": "bool",
          "name": "",
          "type": "bool"
        }
      ],
      "stateMutability": "view",
      "type": "function"
    },
    {
      "inputs": [],
      "name": "lastETHError_Offset",
      "outputs": [
        {
          "internalType": "uint256",
          "name": "",
          "type": "uint256"
        }
      ],
      "stateMutability": "view",
      "type": "function"
    },
    {
      "inputs": [],
      "name": "lastLQTYError",
      "outputs": [
        {
          "internalType": "uint256",
          "name": "",
          "type": "uint256"
        }
      ],
      "stateMutability": "view",
      "type": "function"
    },
    {
      "inputs": [],
      "name": "lastLUSDLossError_Offset",
      "outputs": [
        {
          "internalType": "uint256",
          "name": "",
          "type": "uint256"
        }
      ],
      "stateMutability": "view",
      "type": "function"
    },
    {
      "inputs": [],
      "name": "lusdToken",
      "outputs": [
        {
          "internalType": "contract ILUSDToken",
          "name": "",
          "type": "address"
        }
      ],
      "stateMutability": "view",
      "type": "function"
    },
    {
      "inputs": [
        {
          "internalType": "uint256",
          "name": "_debtToOffset",
          "type": "uint256"
        },
        {
          "internalType": "uint256",
          "name": "_collToAdd",
          "type": "uint256"
        }
      ],
      "name": "offset",
      "outputs": [],
      "stateMutability": "nonpayable",
      "type": "function"
    },
    {
      "inputs": [],
      "name": "owner",
      "outputs": [
        {
          "internalType": "address",
          "name": "",
          "type": "address"
        }
      ],
      "stateMutability": "view",
      "type": "function"
    },
    {
      "inputs": [],
      "name": "priceFeed",
      "outputs": [
        {
          "internalType": "contract IPriceFeed",
          "name": "",
          "type": "address"
        }
      ],
      "stateMutability": "view",
      "type": "function"
    },
    {
      "inputs": [
        {
          "internalType": "uint256",
          "name": "_amount",
          "type": "uint256"
        },
        {
          "internalType": "address",
          "name": "_frontEndTag",
          "type": "address"
        }
      ],
      "name": "provideToSP",
      "outputs": [],
      "stateMutability": "nonpayable",
      "type": "function"
    },
    {
      "inputs": [
        {
          "internalType": "uint256",
          "name": "_kickbackRate",
          "type": "uint256"
        }
      ],
      "name": "registerFrontEnd",
      "outputs": [],
      "stateMutability": "nonpayable",
      "type": "function"
    },
    {
      "inputs": [
        {
          "internalType": "address",
          "name": "_borrowerOperationsAddress",
          "type": "address"
        },
        {
          "internalType": "address",
          "name": "_troveManagerAddress",
          "type": "address"
        },
        {
          "internalType": "address",
          "name": "_activePoolAddress",
          "type": "address"
        },
        {
          "internalType": "address",
          "name": "_lusdTokenAddress",
          "type": "address"
        },
        {
          "internalType": "address",
          "name": "_sortedTrovesAddress",
          "type": "address"
        },
        {
          "internalType": "address",
          "name": "_priceFeedAddress",
          "type": "address"
        },
        {
          "internalType": "address",
          "name": "_communityIssuanceAddress",
          "type": "address"
        },
        {
          "internalType": "address",
          "name": "_stETHAddress",
          "type": "address"
        }
      ],
      "name": "setAddresses",
      "outputs": [],
      "stateMutability": "nonpayable",
      "type": "function"
    },
    {
      "inputs": [],
      "name": "sortedTroves",
      "outputs": [
        {
          "internalType": "contract ISortedTroves",
          "name": "",
          "type": "address"
        }
      ],
      "stateMutability": "view",
      "type": "function"
    },
    {
      "inputs": [],
      "name": "troveManager",
      "outputs": [
        {
          "internalType": "contract ITroveManager",
          "name": "",
          "type": "address"
        }
      ],
      "stateMutability": "view",
      "type": "function"
    },
    {
      "inputs": [
        {
          "internalType": "address",
          "name": "_upperHint",
          "type": "address"
        },
        {
          "internalType": "address",
          "name": "_lowerHint",
          "type": "address"
        }
      ],
      "name": "withdrawETHGainToTrove",
      "outputs": [],
      "stateMutability": "nonpayable",
      "type": "function"
    },
    {
      "inputs": [
        {
          "internalType": "uint256",
          "name": "_amount",
          "type": "uint256"
        }
      ],
      "name": "withdrawFromSP",
      "outputs": [],
      "stateMutability": "nonpayable",
      "type": "function"
    }
  ],
  "bytecode": "0x6080604052670de0b6b3a764000060115534801561001c57600080fd5b50600380546001600160a01b031916339081179091556040516000907f8be0079c531659141344cd1fd0a4f28419497f9722a3daafe3b4186f6b6457e0908290a36137738061006c6000396000f3fe608060405234801561001057600080fd5b50600436106102ab5760003560e01c80637f7dde4a11610172578063a7bfff97116100d9578063d733cfd011610092578063d733cfd0146106b9578063d7fb044314610718578063df9cd84f14610720578063f5f1595d14610746578063f92d34331461076c578063fc7e286d14610774578063fda0101a146107bb576102ab565b8063a7bfff9714610634578063ae91875414610673578063b83f91a21461067b578063ce4b5bbe14610683578063cef941e81461068b578063d4ca057514610693576102ab565b80638f32d59b1161012b5780638f32d59b1461058357806395fb16bb1461059f5780639bf2f1ac146105a7578063a20baee6146104c3578063a3f4df7e146105af578063a4e59ac81461062c576102ab565b80637f7dde4a1461050f57806382e0a5741461051757806386da082414610545578063887105d31461056b5780638b8fbd92146105735780638da5cb5b1461057b576102ab565b8063538153ca1161021657806372fe25aa116101cf57806372fe25aa146104c3578063741bef1a146104cb57806376671808146104d357806377553ad4146104f7578063794e5724146104ff578063795d26c314610507576102ab565b8063538153ca14610427578063556be1011461042f5780635733d58f1461044c578063575817b2146104545780635d2de642146104715780635f788d6514610497576102ab565b80632e86bbd8116102685780632e86bbd8146103a2578063335525ad146103aa578063389e92a5146103cd5780633cc74225146103f35780633d83908a146104175780634870dd9a1461041f576102ab565b806314f6c3be146102b057806316b9d3c5146102ca5780631bf43555146103275780631cdc47001461032f57806328a0a04d146103555780632e54bf9514610383575b600080fd5b6102b86107e9565b60408051918252519081900360200190f35b6102f0600480360360208110156102e057600080fd5b50356001600160a01b03166107ef565b604080519586526020860194909452848401929092526001600160801b039081166060850152166080830152519081900360a00190f35b6102b861082a565b6102b86004803603602081101561034557600080fd5b50356001600160a01b0316610837565b6102b86004803603604081101561036b57600080fd5b506001600160801b03813581169160200135166108df565b6103a06004803603602081101561039957600080fd5b50356108fc565b005b6102b8610a85565b6103a0600480360360408110156103c057600080fd5b5080359060200135610a92565b6102b8600480360360208110156103e357600080fd5b50356001600160a01b0316610af6565b6103fb610b93565b604080516001600160a01b039092168252519081900360200190f35b6103fb610ba2565b6102b8610bb1565b6102b8610bb6565b6103a06004803603602081101561044557600080fd5b5035610bbc565b6102b8610c31565b6103a06004803603602081101561046a57600080fd5b5035610c3d565b6102b86004803603602081101561048757600080fd5b50356001600160a01b0316610c80565b6103a0600480360360408110156104ad57600080fd5b50803590602001356001600160a01b0316610c92565b6102b8610e13565b6103fb610e1f565b6104db610e2e565b604080516001600160801b039092168252519081900360200190f35b6103fb610e44565b6102b8610e53565b6102b8610e5f565b6103fb610f60565b6102b86004803603604081101561052d57600080fd5b506001600160801b0381358116916020013516610f6f565b6102f06004803603602081101561055b57600080fd5b50356001600160a01b0316610f8c565b6102b8610fc7565b6102b8611083565b6103fb611089565b61058b611098565b604080519115158252519081900360200190f35b6103fb6110a9565b6102b86110b8565b6105b76110be565b6040805160208082528351818301528351919283929083019185019080838360005b838110156105f15781810151838201526020016105d9565b50505050905090810190601f16801561061e5780820380516001836020036101000a031916815260200191505b509250505060405180910390f35b6104db6110e7565b61065a6004803603602081101561064a57600080fd5b50356001600160a01b03166110f6565b6040805192835290151560208301528051918290030190f35b6103fb611112565b6103fb611121565b6102b8611130565b6102b8611138565b6102b8600480360360208110156106a957600080fd5b50356001600160a01b031661113e565b6103a060048036036101008110156106d057600080fd5b506001600160a01b038135811691602081013582169160408201358116916060810135821691608082013581169160a081013582169160c082013581169160e0013516611242565b6102b8611509565b6102b86004803603602081101561073657600080fd5b50356001600160a01b031661150f565b6102b86004803603602081101561075c57600080fd5b50356001600160a01b03166115ac565b6102b86116a9565b61079a6004803603602081101561078a57600080fd5b50356001600160a01b03166116b4565b604080519283526001600160a01b0390911660208301528051918290030190f35b6103a0600480360360408110156107d157600080fd5b506001600160a01b03813581169160200135166116d6565b600a5490565b6010602052600090815260409020805460018201546002830154600390930154919290916001600160801b0380821691600160801b90041685565b686194049f30f720000081565b6001600160a01b0381166000908152600c60205260408120548061085f5760009150506108da565b6108676133d3565b506001600160a01b0383166000908152600d60209081526040808320815160a08101835281548152600182015493810193909352600281015491830191909152600301546001600160801b038082166060840152600160801b909104166080820152906108d4838361198d565b93505050505b919050565b601360209081526000928352604080842090915290825290205481565b801561090a5761090a611a8b565b336000908152600c602052604090205461092381611c48565b6009546001600160a01b031661093881611c8a565b600061094333610af6565b9050600061095033610837565b9050600061095e8683611cfe565b90506000610972868463ffffffff611d1616565b336000818152600c60205260409020600101549192506001600160a01b03909116906109a090879083611d58565b60006109ab8261150f565b905060006109bf828663ffffffff611d1616565b90506109cb8382611ef7565b6040805182815233602082015281516001600160a01b0386169260008051602061368d833981519152928290030190a2610a053386612043565b6000610a17878763ffffffff611d1616565b9050610a2333826120c9565b6040805182815290513391600080516020613519833981519152919081900360200190a26040805189815260208101879052815133926000805160206135dc833981519152928290030190a2610a788861224f565b5050505050505050505050565b680ad78ebc5ac620000081565b610a9a612359565b600b54801580610aa8575082155b15610ab35750610af2565b600954610ac8906001600160a01b0316611c8a565b600080610ad68486856123a4565b91509150610ae4828261249d565b610aee8486612797565b5050505b5050565b6001600160a01b0381166000908152600c602052604081205480610b1e5760009150506108da565b610b266133d3565b506001600160a01b0383166000908152600d60209081526040808320815160a08101835281548152600182015493810193909352600281015491830191909152600301546001600160801b038082166060840152600160801b909104166080820152906108d483836128da565b6001546001600160a01b031681565b6006546001600160a01b031681565b60c881565b60175481565b610bc5336129cb565b610bce33612a26565b610bd781612a7c565b336000818152600e60209081526040918290208481556001908101805460ff19169091179055815184815291517f19bc932fb9e16a8b5a1e41be9f4c2de59d5ddd7567b8b81405f532ca00a9880e9281900390910190a250565b6714d1120d7b16000081565b610c45612ac3565b600a54610c58908263ffffffff612b0c16565b600a81905560408051918252516000805160206134c88339815191529181900360200190a150565b600f6020526000908152604090205481565b610c9b81612b66565b610ca4336129cb565b610cad82612bd2565b336000908152600c60205260409020546009546001600160a01b0316610cd281611c8a565b81610ce157610ce13384612c11565b6000610cec33610af6565b90506000610cf933610837565b90506000610d0d858363ffffffff611d1616565b336000818152600c60205260409020600101549192506001600160a01b0390911690610d3b90869083611d58565b6000610d468261150f565b90506000610d5a828b63ffffffff612b0c16565b9050610d668382611ef7565b6040805182815233602082015281516001600160a01b0386169260008051602061368d833981519152928290030190a2610da0338b612c6b565b6000610db2868c63ffffffff612b0c16565b9050610dbe33826120c9565b6040805182815290513391600080516020613519833981519152919081900360200190a26040805188815260208101879052815133926000805160206135dc833981519152928290030190a2610a788761224f565b670de0b6b3a764000081565b6002546001600160a01b031681565b601254600160801b90046001600160801b031681565b6005546001600160a01b031681565b670f43fc2c04ee000081565b6000805460408051632f5a97e560e11b8152905183926001600160a01b031691635eb52fca916004808301926020929190829003018186803b158015610ea457600080fd5b505afa158015610eb8573d6000803e3d6000fd5b505050506040513d6020811015610ece57600080fd5b505160015460408051632f5a97e560e11b815290519293506000926001600160a01b0390921691635eb52fca91600480820192602092909190829003018186803b158015610f1b57600080fd5b505afa158015610f2f573d6000803e3d6000fd5b505050506040513d6020811015610f4557600080fd5b50519050610f59828263ffffffff612b0c16565b9250505090565b6000546001600160a01b031681565b601460209081526000928352604080842090915290825290205481565b600d602052600090815260409020805460018201546002830154600390930154919290916001600160801b0380821691600160801b90041685565b6000805460408051630a7b61df60e11b8152905183926001600160a01b0316916314f6c3be916004808301926020929190829003018186803b15801561100c57600080fd5b505afa158015611020573d6000803e3d6000fd5b505050506040513d602081101561103657600080fd5b505160015460408051630a7b61df60e11b815290519293506000926001600160a01b03909216916314f6c3be91600480820192602092909190829003018186803b158015610f1b57600080fd5b60115481565b6003546001600160a01b031690565b6003546001600160a01b0316331490565b6009546001600160a01b031681565b600b5490565b6040518060400160405280600d81526020016c14dd18589a5b1a5d1e541bdbdb609a1b81525081565b6012546001600160801b031681565b600e602052600090815260409020805460019091015460ff1682565b6008546001600160a01b031681565b6007546001600160a01b031681565b633b9aca0081565b60155481565b6001600160a01b0381166000908152600f6020526040812054806111665760009150506108da565b6001600160a01b0383166000908152600e602052604081205490611198670de0b6b3a76400008363ffffffff611d1616565b90506111a26133d3565b506001600160a01b0385166000908152601060209081526040808320815160a08101835281548152600182015493810193909352600281015491830191909152600301546001600160801b038082166060840152600160801b90910416608082015290611237670de0b6b3a764000061122b61121e8886612d35565b869063ffffffff612dc116565b9063ffffffff612e1a16565b979650505050505050565b61124a611098565b61129b576040805162461bcd60e51b815260206004820181905260248201527f4f776e61626c653a2063616c6c6572206973206e6f7420746865206f776e6572604482015290519081900360640190fd5b6112a488612e5c565b6112ad87612e5c565b6112b686612e5c565b6112bf85612e5c565b6112c884612e5c565b6112d183612e5c565b6112da82612e5c565b6112e381612e5c565b600580546001600160a01b03199081166001600160a01b038b81169182179093556006805483168b85161790556000805483168a85161790556007805483168985161790556008805483168885161790556002805483168785161790556009805483168685161790556004805490921692841692909217905560408051918252517f3ca631ffcd2a9b5d9ae18543fc82f58eb4ca33af9e6ab01b7a8e95331e6ed985916020908290030190a1604080516001600160a01b038916815290517f143219c9e69b09e07e095fcc889b43d8f46ca892bba65f08dc3a0050869a56789181900360200190a1604080516001600160a01b038816815290517f78f058b189175430c48dc02699e3a0031ea4ff781536dc2fab847de4babdd8829181900360200190a1604080516001600160a01b038716815290517f227eec0ec317af6ab1a9587ffa1c84332522eb4c583a908f89babc05f8f339bd9181900360200190a1604080516001600160a01b038616815290517f65f4cf077bc01e4742eb5ad98326f6e95b63548ea24b17f8d5e823111fe788009181900360200190a1604080516001600160a01b038516815290517f8c537274438aa850a330284665d81a85dd38267d09e4050d416bfc94142db2649181900360200190a1604080516001600160a01b038416815290517f3055265812fb8447b9ada4a5d804ec43bd528ec40e89c952bbc7b85dc5ac68119181900360200190a16114ff612f0b565b5050505050505050565b60165481565b6001600160a01b0381166000908152600f6020526040812054806115375760009150506108da565b61153f6133d3565b506001600160a01b0383166000908152601060209081526040808320815160a08101835281548152600182015493810193909352600281015491830191909152600301546001600160801b038082166060840152600160801b909104166080820152906108d4838361198d565b6001600160a01b0381166000908152600c6020526040812054806115d45760009150506108da565b6001600160a01b038084166000908152600c6020526040812060010154909116908115611619576001600160a01b0382166000908152600e6020526040902054611623565b670de0b6b3a76400005b905061162d6133d3565b506001600160a01b0385166000908152600d60209081526040808320815160a08101835281548152600182015493810193909352600281015491830191909152600301546001600160801b038082166060840152600160801b90910416608082015290611237670de0b6b3a764000061122b61121e8886612d35565b6611c37937e0800081565b600c60205260009081526040902080546001909101546001600160a01b031682565b336000908152600c60205260409020546116ef81611c48565b6116f833612f55565b6117013361300c565b6009546001600160a01b031661171681611c8a565b600061172133610af6565b9050600061172e33610837565b90506000611742858363ffffffff611d1616565b336000818152600c60205260409020600101549192506001600160a01b039091169061177090869083611d58565b600061177b8261150f565b9050806117888382611ef7565b6040805182815233602082015281516001600160a01b0386169260008051602061368d833981519152928290030190a26117c233866120c9565b6040805187815260208101869052815133926000805160206135dc833981519152928290030190a26040805186815290513391600080516020613519833981519152919081900360200190a2600a54611821908763ffffffff611d1616565b600a81905560408051918252516000805160206134c88339815191529181900360200190a1604080513381526020810188905281517f6109e2559dfa766aaec7118351d48a523f0a4157f49c8d68749c8ac41318ad12929181900390910190a1600480546005546040805163a9059cbb60e01b81526001600160a01b0392831694810194909452602484018a90525191169163a9059cbb9160448083019260209291908290030181600087803b1580156118da57600080fd5b505af11580156118ee573d6000803e3d6000fd5b505050506040513d602081101561190457600080fd5b505060055460408051631c90d4ad60e31b81523360048201526001600160a01b038d811660248301528c81166044830152606482018a90529151919092169163e486a56891608480830192600092919082900301818387803b15801561196957600080fd5b505af115801561197d573d6000803e3d6000fd5b5050505050505050505050505050565b6020810151606082015160808301516012546000939291906001600160801b03600160801b909104811690821610156119cc5760009350505050611a85565b60125460009081906119ed906001600160801b03168563ffffffff61305816565b90506001600160801b038116611a1d57611a168561122b6011548b612dc190919063ffffffff16565b9150611a55565b806001600160801b031660011415611a5057611a16633b9aca0061122b8761122b6011548d612dc190919063ffffffff16565b600091505b611a6988633b9aca0063ffffffff612e1a16565b821015611a7e57600095505050505050611a85565b5093505050505b92915050565b60025460408051630fdb11cf60e01b815290516000926001600160a01b031691630fdb11cf91600480830192602092919082900301818787803b158015611ad157600080fd5b505af1158015611ae5573d6000803e3d6000fd5b505050506040513d6020811015611afb57600080fd5b505160085460408051634d62283160e01b815290519293506000926001600160a01b0390921691634d62283191600480820192602092909190829003018186803b158015611b4857600080fd5b505afa158015611b5c573d6000803e3d6000fd5b505050506040513d6020811015611b7257600080fd5b505160065460408051630d293c7160e41b81526001600160a01b038085166004830152602482018790529151939450600093919092169163d293c710916044808301926020929190829003018186803b158015611bce57600080fd5b505afa158015611be2573d6000803e3d6000fd5b505050506040513d6020811015611bf857600080fd5b50519050670f43fc2c04ee0000811015611c435760405162461bcd60e51b81526004018080602001828103825260448152602001806136fa6044913960600191505060405180910390fd5b505050565b60008111611c875760405162461bcd60e51b815260040180806020018281038252603081526020018061365d6030913960400191505060405180910390fd5b50565b6000816001600160a01b03166346ad34d96040518163ffffffff1660e01b8152600401602060405180830381600087803b158015611cc757600080fd5b505af1158015611cdb573d6000803e3d6000fd5b505050506040513d6020811015611cf157600080fd5b50519050610af2816130b1565b6000818310611d0d5781611d0f565b825b9392505050565b6000611d0f83836040518060400160405280601e81526020017f536166654d6174683a207375627472616374696f6e206f766572666c6f7700008152506131cc565b6001600160a01b03811615611e2d576000611d728261113e565b9050836001600160a01b031663614d2ab683836040518363ffffffff1660e01b815260040180836001600160a01b03166001600160a01b0316815260200182815260200192505050600060405180830381600087803b158015611dd457600080fd5b505af1158015611de8573d6000803e3d6000fd5b50506040805184815290516001600160a01b03861693507fcd2cdc1a4af71051394e9c6facd9a266b2ac5bd65d219a701eeda009f47682bf92509081900360200190a2505b6000611e38836115ac565b9050836001600160a01b031663614d2ab684836040518363ffffffff1660e01b815260040180836001600160a01b03166001600160a01b0316815260200182815260200192505050600060405180830381600087803b158015611e9a57600080fd5b505af1158015611eae573d6000803e3d6000fd5b50506040805184815290516001600160a01b03871693507f2608b986a6ac0f6c629ca37018e80af5561e366252ae93602a96d3ab2e73e42d92509081900360200190a250505050565b6001600160a01b0382166000908152600f6020526040902081905580611f87576001600160a01b0382166000818152601060209081526040808320838155600181018490556002810184905560030183905580518381529182019290925281517fbb1322f85cc7cc8bac4e172a5bc5dcc0c1959007f9a030032abf9258205f0e45929181900390910190a2610af2565b6012546011546001600160801b03600160801b80840482166000818152601460209081526040808320978616808452978252808320546001600160a01b038b168085526010845293829020600181018990556002810182905560030180546001600160801b0319168a17909716958502959095179095558451868152908101849052845192959491927fbb1322f85cc7cc8bac4e172a5bc5dcc0c1959007f9a030032abf9258205f0e45929181900390910190a2505050505050565b8061204d57610af2565b60075460408051631062c15f60e11b81523060048201526001600160a01b03858116602483015260448201859052915191909216916320c582be91606480830192600092919082900301818387803b1580156120a857600080fd5b505af11580156120bc573d6000803e3d6000fd5b50505050610af281613263565b6001600160a01b0382166000908152600c6020526040902081905580612177576001600160a01b0382166000818152600c60209081526040808320600190810180546001600160a01b0319169055600d83528184208481559081018490556002810184905560030183905580518381529182018390528181019290925290517f2d6cc0bcdf72c9486f6451bde6b80f44066f4558f77f44dbfedbe7d8b295225a9181900360600190a2610af2565b6012546011546001600160801b03600160801b8084048216600081815260136020908152604080832097861680845297825280832054848452601483528184208985528352818420546001600160a01b038c16808652600d855294839020600181018a90558281556002810182905560030180546001600160801b0319168b179098169686029690961790965580518781529182018690528181018590525192959493927f2d6cc0bcdf72c9486f6451bde6b80f44066f4558f77f44dbfedbe7d8b295225a916060908290030190a250505050505050565b8061225957611c87565b600a5460009061226f908363ffffffff611d1616565b600a8190556040805182815290519192506000805160206134c8833981519152919081900360200190a1604080513381526020810184905281517f6109e2559dfa766aaec7118351d48a523f0a4157f49c8d68749c8ac41318ad12929181900390910190a1600480546040805163a9059cbb60e01b8152339381019390935260248301859052516001600160a01b039091169163a9059cbb9160448083019260209291908290030181600087803b15801561232957600080fd5b505af115801561233d573d6000803e3d6000fd5b505050506040513d602081101561235357600080fd5b50505050565b6006546001600160a01b031633146123a25760405162461bcd60e51b81526004018080602001828103825260298152602001806135396029913960400191505060405180910390fd5b565b60008060006123d66016546123ca670de0b6b3a764000089612dc190919063ffffffff16565b9063ffffffff612b0c16565b9050838511156123e257fe5b838514156123ff576000601755670de0b6b3a7640000915061245f565b60175460009061242d9061242188670de0b6b3a764000063ffffffff612dc116565b9063ffffffff611d1616565b905061244460016123ca838863ffffffff612e1a16565b925061245a81612421858863ffffffff612dc116565b601755505b61246f818563ffffffff612e1a16565b9250612491612484848663ffffffff612dc116565b829063ffffffff611d1616565b60165550935093915050565b6011546000670de0b6b3a76400008311156124b457fe5b60006124ce670de0b6b3a76400008563ffffffff611d1616565b6012546001600160801b03600160801b8204811660008181526013602090815260408083209490951680835293905292832054939450909290916125128988612dc1565b90506000612526838363ffffffff612b0c16565b6001600160801b038086166000818152601360209081526040808320948b16808452948252918290208590558151858152908101929092528181019290925290519192507fe12e2cd2c9afa8069203ca07e7eff1edce4a075686d0736a8e7e0d593597b207919081900360600190a18561265d576125b46001600160801b038516600163ffffffff6132b916565b601280546001600160801b03908116600160801b938216840217918290556040805193909204168252517fb50f0f59e7cb5b421dc77581c3a9919e3806e076e5fa78a874c3f120cb7d874d916020908290030190a1601280546001600160801b0319169055604080516000815290517f1f9dfc70cd666adb18a39d60a797518f7b4febf4b6e24ef37d44f6e1e7219fbe9181900360200190a1670de0b6b3a76400009650612749565b633b9aca0061267e670de0b6b3a764000061122b8b8a63ffffffff612dc116565b101561272a576126b4670de0b6b3a764000061122b633b9aca006126a88c8b63ffffffff612dc116565b9063ffffffff612dc116565b96506126d06001600160801b038616600163ffffffff6132b916565b601280546001600160801b0319166001600160801b0392831617908190556040805191909216815290517f1f9dfc70cd666adb18a39d60a797518f7b4febf4b6e24ef37d44f6e1e7219fbe916020908290030190a1612749565b612746670de0b6b3a764000061122b8a8963ffffffff612dc116565b96505b6000871161275357fe5b60118790556040805188815290517fc1a9618cb59ebca77cbdbc2949f126823c407ff13edb285fd0262519a9c18e8c9181900360200190a150505050505050505050565b600080546040805163071b32b560e31b81526004810185905290516001600160a01b039092169283926338d995a892602480820193929182900301818387803b1580156127e357600080fd5b505af11580156127f7573d6000803e3d6000fd5b5050505061280482613263565b60075460408051632770a7eb60e21b81523060048201526024810185905290516001600160a01b0390921691639dc29fac9160448082019260009290919082900301818387803b15801561285757600080fd5b505af115801561286b573d6000803e3d6000fd5b5050604080516364a197f360e01b81523060048201526024810187905290516001600160a01b03851693506364a197f39250604480830192600092919082900301818387803b1580156128bd57600080fd5b505af11580156128d1573d6000803e3d6000fd5b50505050505050565b6080810151606082015182516020808501516001600160801b03808616600090815260138452604080822092871682529190935282205491949392918590612928908463ffffffff611d1616565b6001600160801b0380871660009081526013602052604081209293509161298b91633b9aca0091908490612965908a16600163ffffffff6132b916565b6001600160801b031681526020810191909152604001600020549063ffffffff612e1a16565b905060006129bd670de0b6b3a764000061122b86816129b0888863ffffffff612b0c16565b8f9063ffffffff612dc116565b9a9950505050505050505050565b6001600160a01b0381166000908152600e602052604090206001015460ff1615611c875760405162461bcd60e51b81526004018080602001828103825260398152602001806135fc6039913960400191505060405180910390fd5b6001600160a01b0381166000908152600c60205260409020548015610af25760405162461bcd60e51b81526004018080602001828103825260288152602001806136356028913960400191505060405180910390fd5b670de0b6b3a7640000811115611c875760405162461bcd60e51b81526004018080602001828103825260338152602001806135836033913960400191505060405180910390fd5b6000546001600160a01b031633146123a25760405162461bcd60e51b81526004018080602001828103825260278152602001806134a16027913960400191505060405180910390fd5b600082820183811015611d0f576040805162461bcd60e51b815260206004820152601b60248201527f536166654d6174683a206164646974696f6e206f766572666c6f770000000000604482015290519081900360640190fd5b6001600160a01b0381166000908152600e602052604090206001015460ff1680612b9757506001600160a01b038116155b611c875760405162461bcd60e51b815260040180806020018281038252604681526020018061345b6046913960600191505060405180910390fd5b60008111611c875760405162461bcd60e51b81526004018080602001828103825260268152602001806135b66026913960400191505060405180910390fd5b6001600160a01b038281166000818152600c602052604080822060010180546001600160a01b0319169486169485179055517f094c08e96a8890877a8390b4f967180a7507ad8622244d05fcd0f9f8e086564e9190a35050565b60075460408051632ee65eeb60e21b81526001600160a01b038581166004830152306024830152604482018590529151919092169163bb997bac91606480830192600092919082900301818387803b158015612cc657600080fd5b505af1158015612cda573d6000803e3d6000fd5b5050600b5460009250612cf491508363ffffffff612b0c16565b600b8190556040805182815290519192507fa8e886449d8f7e765877b4a4f54632da3943ae454d5a272bdccb1781f086ff29919081900360200190a1505050565b608081015160608201516040808401516020808601516001600160801b03808716600090815260148452858120918716815292529281205490949392908590612d84908463ffffffff611d1616565b6001600160801b0380871660009081526014602052604081209293509161298b91633b9aca0091908490612965908a16600163ffffffff6132b916565b600082612dd057506000611a85565b82820282848281612ddd57fe5b0414611d0f5760405162461bcd60e51b81526004018080602001828103825260218152602001806135626021913960400191505060405180910390fd5b6000611d0f83836040518060400160405280601a81526020017f536166654d6174683a206469766973696f6e206279207a65726f000000000000815250613309565b6001600160a01b038116612eb7576040805162461bcd60e51b815260206004820152601e60248201527f4163636f756e742063616e6e6f74206265207a65726f20616464726573730000604482015290519081900360640190fd5b803b80610af2576040805162461bcd60e51b815260206004820181905260248201527f4163636f756e7420636f64652073697a652063616e6e6f74206265207a65726f604482015290519081900360640190fd5b6003546040516000916001600160a01b0316907f8be0079c531659141344cd1fd0a4f28419497f9722a3daafe3b4186f6b6457e0908390a3600380546001600160a01b0319169055565b600654604080516321e3780160e01b81526001600160a01b038481166004830152915191909216916321e37801916024808301926020929190829003018186803b158015612fa257600080fd5b505afa158015612fb6573d6000803e3d6000fd5b505050506040513d6020811015612fcc57600080fd5b5051600114611c875760405162461bcd60e51b81526004018080602001828103825260468152602001806134156046913960600191505060405180910390fd5b600061301782610af6565b905060008111610af25760405162461bcd60e51b81526004018080602001828103825260318152602001806134e86031913960400191505060405180910390fd5b6000826001600160801b0316826001600160801b031611156130ab5760405162461bcd60e51b81526004018080602001828103825260288152602001806136ad6028913960400191505060405180910390fd5b50900390565b600b548015806130bf575081155b156130ca5750611c87565b60006130d6838361336e565b905060006130ef60115483612dc190919063ffffffff16565b6012546001600160801b03600160801b820481166000908152601460209081526040808320939094168252919091522054909150613133908263ffffffff612b0c16565b601280546001600160801b03600160801b808304821660009081526014602081815260408084209686168452958152858320979097559454918204831680825294865283812091909216808352908552908290205482519081529384019290925282810191909152517f2d6127771b164a9cc8827d24b5955db2a77e7a81dac389107ebb8bce9fb649689181900360600190a150505050565b6000818484111561325b5760405162461bcd60e51b81526004018080602001828103825283818151815260200191508051906020019080838360005b83811015613220578181015183820152602001613208565b50505050905090810190601f16801561324d5780820380516001836020036101000a031916815260200191505b509250505060405180910390fd5b505050900390565b600b54600090613279908363ffffffff611d1616565b600b8190556040805182815290519192507fa8e886449d8f7e765877b4a4f54632da3943ae454d5a272bdccb1781f086ff29919081900360200190a15050565b60008282016001600160801b038085169082161015611d0f5760405162461bcd60e51b81526004018080602001828103825260258152602001806136d56025913960400191505060405180910390fd5b600081836133585760405162461bcd60e51b8152602060048201818152835160248401528351909283926044909101919085019080838360008315613220578181015183820152602001613208565b50600083858161336457fe5b0495945050505050565b6000806133926015546123ca670de0b6b3a764000087612dc190919063ffffffff16565b905060006133a6828563ffffffff612e1a16565b90506133c86133bb828663ffffffff612dc116565b839063ffffffff611d1616565b601555949350505050565b6040518060a0016040528060008152602001600081526020016000815260200160006001600160801b0316815260200160006001600160801b03168152509056fe53746162696c697479506f6f6c3a2063616c6c6572206d757374206861766520616e206163746976652074726f766520746f207769746864726177204554484761696e20746f53746162696c697479506f6f6c3a20546167206d757374206265206120726567697374657265642066726f6e7420656e642c206f7220746865207a65726f206164647265737353746162696c697479506f6f6c3a2043616c6c6572206973206e6f7420416374697665506f6f6cceb6d671277d4354fd29977ada70695fbd93a16612abf765d6b0e25c28dc6db353746162696c697479506f6f6c3a2063616c6c6572206d7573742068617665206e6f6e2d7a65726f20455448204761696ebce78369dccab09eec1986f4d409ab09ffbb47d65423e5148fcf98411c5111c953746162696c697479506f6f6c3a2043616c6c6572206973206e6f742054726f76654d616e61676572536166654d6174683a206d756c7469706c69636174696f6e206f766572666c6f7753746162696c697479506f6f6c3a204b69636b6261636b2072617465206d75737420626520696e2072616e6765205b302c315d53746162696c697479506f6f6c3a20416d6f756e74206d757374206265206e6f6e2d7a65726f51457222ebca92c335c9c86e2baa1cc0e40ffaa9084a51452980d5ba8dec2f6353746162696c697479506f6f6c3a206d757374206e6f7420616c7265616479206265206120726567697374657265642066726f6e7420656e6453746162696c697479506f6f6c3a2055736572206d7573742068617665206e6f206465706f73697453746162696c697479506f6f6c3a2055736572206d75737420686176652061206e6f6e2d7a65726f206465706f73697499920012339b5a3368d3a04b8606ce412c46ed92b7dcd8602d41fc8862cb8f254c697175697479536166654d6174683132383a207375627472616374696f6e206f766572666c6f774c697175697479536166654d6174683132383a206164646974696f6e206f766572666c6f7753746162696c697479506f6f6c3a2043616e6e6f74207769746864726177207768696c65207468657265206172652074726f766573207769746820494352203c204d4352a2646970667358221220378f43a6e67af50fb57076f52568995d2e1e897e44b48817250ac186edfed56564736f6c634300060b0033",
  "linkReferences": {},
  "deployedLinkReferences": {}
}